{
  "abi": [
    {
      "inputs": [
        {
          "internalType": "address",
          "name": "_bettingToken",
          "type": "address"
        }
      ],
      "stateMutability": "nonpayable",
      "type": "constructor"
    },
    {
      "inputs": [],
      "name": "OwnableUnauthorized",
      "type": "error"
    },
    {
      "anonymous": false,
      "inputs": [
        {
          "indexed": true,
          "internalType": "uint256",
          "name": "marketId",
          "type": "uint256"
        },
        {
          "indexed": true,
          "internalType": "address",
          "name": "user",
          "type": "address"
        },
        {
          "indexed": false,
          "internalType": "uint256",
          "name": "amount",
          "type": "uint256"
        }
      ],
      "name": "Claimed",
      "type": "event"
    },
    {
      "anonymous": false,
      "inputs": [
        {
          "indexed": true,
          "internalType": "uint256",
          "name": "marketId",
          "type": "uint256"
        },
        {
          "indexed": false,
          "internalType": "string",
          "name": "question",
          "type": "string"
        },
        {
          "indexed": false,
          "internalType": "string",
          "name": "optionA",
          "type": "string"
        },
        {
          "indexed": false,
          "internalType": "string",
          "name": "optionB",
          "type": "string"
        },
        {
          "indexed": false,
          "internalType": "uint256",
          "name": "endTime",
          "type": "uint256"
        }
      ],
      "name": "MarketCreated",
      "type": "event"
    },
    {
      "anonymous": false,
      "inputs": [
        {
          "indexed": true,
          "internalType": "uint256",
          "name": "marketId",
          "type": "uint256"
        },
        {
          "indexed": false,
          "internalType": "enum SimplePredictionMarket.MarketOutcome",
          "name": "outcome",
          "type": "uint8"
        }
      ],
      "name": "MarketResolved",
      "type": "event"
    },
    {
      "anonymous": false,
      "inputs": [
        {
          "indexed": true,
          "internalType": "address",
          "name": "prevOwner",
          "type": "address"
        },
        {
          "indexed": true,
          "internalType": "address",
          "name": "newOwner",
          "type": "address"
        }
      ],
      "name": "OwnerUpdated",
      "type": "event"
    },
    {
      "anonymous": false,
      "inputs": [
        {
          "indexed": true,
          "internalType": "uint256",
          "name": "marketId",
          "type": "uint256"
        },
        {
          "indexed": true,
          "internalType": "address",
          "name": "buyer",
          "type": "address"
        },
        {
          "indexed": false,
          "internalType": "bool",
          "name": "isOptionA",
          "type": "bool"
        },
        {
          "indexed": false,
          "internalType": "uint256",
          "name": "amount",
          "type": "uint256"
        }
      ],
      "name": "SharesPurchased",
      "type": "event"
    },
    {
      "inputs": [],
      "name": "bettingToken",
      "outputs": [
        {
          "internalType": "contract IERC20",
          "name": "",
          "type": "address"
        }
      ],
      "stateMutability": "view",
      "type": "function"
    },
    {
      "inputs": [
        {
          "internalType": "uint256",
          "name": "_marketId",
          "type": "uint256"
        },
        {
          "internalType": "bool",
          "name": "_isOptionA",
          "type": "bool"
        },
        {
          "internalType": "uint256",
          "name": "_amount",
          "type": "uint256"
        }
      ],
      "name": "buyShares",
      "outputs": [],
      "stateMutability": "nonpayable",
      "type": "function"
    },
    {
      "inputs": [
        {
          "internalType": "uint256",
          "name": "_marketId",
          "type": "uint256"
        }
      ],
      "name": "claimWinnings",
      "outputs": [],
      "stateMutability": "nonpayable",
      "type": "function"
    },
    {
      "inputs": [
        {
          "internalType": "string",
          "name": "_question",
          "type": "string"
        },
        {
          "internalType": "string",
          "name": "_optionA",
          "type": "string"
        },
        {
          "internalType": "string",
          "name": "_optionB",
          "type": "string"
        },
        {
          "internalType": "uint256",
          "name": "_duration",
          "type": "uint256"
        }
      ],
      "name": "createMarket",
      "outputs": [
        {
          "internalType": "uint256",
          "name": "",
          "type": "uint256"
        }
      ],
      "stateMutability": "nonpayable",
      "type": "function"
    },
    {
      "inputs": [
        {
          "internalType": "uint256",
          "name": "_marketId",
          "type": "uint256"
        }
      ],
      "name": "getMarketInfo",
      "outputs": [
        {
          "internalType": "string",
          "name": "",
          "type": "string"
        },
        {
          "internalType": "string",
          "name": "",
          "type": "string"
        },
        {
          "internalType": "string",
          "name": "",
          "type": "string"
        },
        {
          "internalType": "uint256",
          "name": "",
          "type": "uint256"
        },
        {
          "internalType": "enum SimplePredictionMarket.MarketOutcome",
          "name": "",
          "type": "uint8"
        },
        {
          "internalType": "uint256",
          "name": "",
          "type": "uint256"
        },
        {
          "internalType": "uint256",
          "name": "",
          "type": "uint256"
        },
        {
          "internalType": "bool",
          "name": "",
          "type": "bool"
        }
      ],
      "stateMutability": "view",
      "type": "function"
    },
    {
      "inputs": [
        {
          "internalType": "uint256",
          "name": "_marketId",
          "type": "uint256"
        },
        {
          "internalType": "address",
          "name": "_user",
          "type": "address"
        }
      ],
      "name": "getSharesBalance",
      "outputs": [
        {
          "internalType": "uint256",
          "name": "",
          "type": "uint256"
        },
        {
          "internalType": "uint256",
          "name": "",
          "type": "uint256"
        }
      ],
      "stateMutability": "view",
      "type": "function"
    },
    {
      "inputs": [],
      "name": "marketCount",
      "outputs": [
        {
          "internalType": "uint256",
          "name": "",
          "type": "uint256"
        }
      ],
      "stateMutability": "view",
      "type": "function"
    },
    {
      "inputs": [
        {
          "internalType": "uint256",
          "name": "",
          "type": "uint256"
        }
      ],
      "name": "markets",
      "outputs": [
        {
          "internalType": "string",
          "name": "question",
          "type": "string"
        },
        {
          "internalType": "uint256",
          "name": "endTime",
          "type": "uint256"
        },
        {
          "internalType": "enum SimplePredictionMarket.MarketOutcome",
          "name": "outcome",
          "type": "uint8"
        },
        {
          "internalType": "string",
          "name": "optionA",
          "type": "string"
        },
        {
          "internalType": "string",
          "name": "optionB",
          "type": "string"
        },
        {
          "internalType": "uint256",
          "name": "totalOptionAShares",
          "type": "uint256"
        },
        {
          "internalType": "uint256",
          "name": "totalOptionBShares",
          "type": "uint256"
        },
        {
          "internalType": "bool",
          "name": "resolved",
          "type": "bool"
        }
      ],
      "stateMutability": "view",
      "type": "function"
    },
    {
      "inputs": [],
      "name": "owner",
      "outputs": [
        {
          "internalType": "address",
          "name": "",
          "type": "address"
        }
      ],
      "stateMutability": "view",
      "type": "function"
    },
    {
      "inputs": [
        {
          "internalType": "uint256",
          "name": "_marketId",
          "type": "uint256"
        },
        {
          "internalType": "enum SimplePredictionMarket.MarketOutcome",
          "name": "_outcome",
          "type": "uint8"
        }
      ],
      "name": "resolveMarket",
      "outputs": [],
      "stateMutability": "nonpayable",
      "type": "function"
    },
    {
      "inputs": [
        {
          "internalType": "address",
          "name": "_newOwner",
          "type": "address"
        }
      ],
      "name": "setOwner",
      "outputs": [],
      "stateMutability": "nonpayable",
      "type": "function"
    }
  ],
  "devdoc": {
    "errors": {
      "OwnableUnauthorized()": [
        {
          "details": "The sender is not authorized to perform the action"
        }
      ]
    },
    "events": {
      "OwnerUpdated(address,address)": {
        "details": "Emitted when a new Owner is set."
      }
    },
    "kind": "dev",
    "methods": {
      "setOwner(address)": {
        "params": {
          "_newOwner": "The address to set as the new owner of the contract."
        }
      }
    },
    "version": 1
  },
  "evm": {
    "assembly": "    /* \"SimplePredictionMarket.sol\":271:5681  contract SimplePredictionMarket is Ownable, ReentrancyGuard {... */\n  mstore(0x40, 0x80)\n    /* \"SimplePredictionMarket.sol\":1453:1574  constructor(address _bettingToken) {... */\n  callvalue\n  dup1\n  iszero\n  tag_1\n  jumpi\n  0x00\n  dup1\n  revert\ntag_1:\n  pop\n  mload(0x40)\n  sub(codesize, bytecodeSize)\n  dup1\n  bytecodeSize\n  dup4\n  codecopy\n  dup2\n  add\n  0x40\n  dup2\n  swap1\n  mstore\n  tag_2\n  swap2\n  tag_3\n  jump\t// in\ntag_2:\n    /* \"@thirdweb-dev/contracts/external-deps/openzeppelin/security/ReentrancyGuard.sol\":202:203   */\n  0x01\n    /* \"@thirdweb-dev/contracts/external-deps/openzeppelin/security/ReentrancyGuard.sol\":307:329   */\n  dup1\n  sstore\n    /* \"SimplePredictionMarket.sol\":1498:1510  bettingToken */\n  0x02\n    /* \"SimplePredictionMarket.sol\":1498:1534  bettingToken = IERC20(_bettingToken) */\n  dup1\n  sload\n  not(sub(shl(0xa0, 0x01), 0x01))\n  and\n  sub(shl(0xa0, 0x01), 0x01)\n  dup4\n  and\n  or\n  swap1\n  sstore\n    /* \"SimplePredictionMarket.sol\":1544:1567  _setupOwner(msg.sender) */\n  tag_8\n    /* \"SimplePredictionMarket.sol\":1556:1566  msg.sender */\n  caller\n    /* \"SimplePredictionMarket.sol\":1544:1555  _setupOwner */\n  tag_9\n    /* \"SimplePredictionMarket.sol\":1544:1567  _setupOwner(msg.sender) */\n  jump\t// in\ntag_8:\n    /* \"SimplePredictionMarket.sol\":1453:1574  constructor(address _bettingToken) {... */\n  pop\n    /* \"SimplePredictionMarket.sol\":271:5681  contract SimplePredictionMarket is Ownable, ReentrancyGuard {... */\n  jump(tag_12)\n    /* \"@thirdweb-dev/contracts/extension/Ownable.sol\":1527:1699   */\ntag_9:\n    /* \"@thirdweb-dev/contracts/extension/Ownable.sol\":1586:1604   */\n  0x00\n    /* \"@thirdweb-dev/contracts/extension/Ownable.sol\":1607:1613   */\n  dup1\n  sload\n  sub(shl(0xa0, 0x01), 0x01)\n    /* \"@thirdweb-dev/contracts/extension/Ownable.sol\":1623:1641   */\n  dup4\n  dup2\n  and\n  not(sub(shl(0xa0, 0x01), 0x01))\n  dup4\n  and\n  dup2\n  or\n  dup5\n  sstore\n    /* \"@thirdweb-dev/contracts/extension/Ownable.sol\":1657:1692   */\n  mload(0x40)\n    /* \"@thirdweb-dev/contracts/extension/Ownable.sol\":1607:1613   */\n  swap2\n  swap1\n  swap3\n  and\n  swap3\n  dup4\n  swap2\n    /* \"@thirdweb-dev/contracts/extension/Ownable.sol\":1657:1692   */\n  0x8292fce18fa69edf4db7b94ea2e58241df0ae57f97e0a6c9b29067028bf92d76\n  swap2\n    /* \"@thirdweb-dev/contracts/extension/Ownable.sol\":1586:1604   */\n  swap1\n    /* \"@thirdweb-dev/contracts/extension/Ownable.sol\":1657:1692   */\n  log3\n    /* \"@thirdweb-dev/contracts/extension/Ownable.sol\":1576:1699   */\n  pop\n    /* \"@thirdweb-dev/contracts/extension/Ownable.sol\":1527:1699   */\n  pop\n  jump\t// out\n    /* \"#utility.yul\":14:304   */\ntag_3:\n    /* \"#utility.yul\":84:90   */\n  0x00\n    /* \"#utility.yul\":137:139   */\n  0x20\n    /* \"#utility.yul\":125:134   */\n  dup3\n    /* \"#utility.yul\":116:123   */\n  dup5\n    /* \"#utility.yul\":112:135   */\n  sub\n    /* \"#utility.yul\":108:140   */\n  slt\n    /* \"#utility.yul\":105:157   */\n  iszero\n  tag_14\n  jumpi\n    /* \"#utility.yul\":153:154   */\n  0x00\n    /* \"#utility.yul\":150:151   */\n  dup1\n    /* \"#utility.yul\":143:155   */\n  revert\n    /* \"#utility.yul\":105:157   */\ntag_14:\n    /* \"#utility.yul\":179:195   */\n  dup2\n  mload\n  sub(shl(0xa0, 0x01), 0x01)\n    /* \"#utility.yul\":224:255   */\n  dup2\n  and\n    /* \"#utility.yul\":214:256   */\n  dup2\n  eq\n    /* \"#utility.yul\":204:274   */\n  tag_15\n  jumpi\n    /* \"#utility.yul\":270:271   */\n  0x00\n    /* \"#utility.yul\":267:268   */\n  dup1\n    /* \"#utility.yul\":260:272   */\n  revert\n    /* \"#utility.yul\":204:274   */\ntag_15:\n    /* \"#utility.yul\":293:298   */\n  swap4\n    /* \"#utility.yul\":14:304   */\n  swap3\n  pop\n  pop\n  pop\n  jump\t// out\ntag_12:\n    /* \"SimplePredictionMarket.sol\":271:5681  contract SimplePredictionMarket is Ownable, ReentrancyGuard {... */\n  dataSize(sub_0)\n  dup1\n  dataOffset(sub_0)\n  0x00\n  codecopy\n  0x00\n  return\nstop\n\nsub_0: assembly {\n        /* \"SimplePredictionMarket.sol\":271:5681  contract SimplePredictionMarket is Ownable, ReentrancyGuard {... */\n      mstore(0x40, 0x80)\n      callvalue\n      dup1\n      iszero\n      tag_1\n      jumpi\n      0x00\n      dup1\n      revert\n    tag_1:\n      pop\n      jumpi(tag_2, lt(calldatasize, 0x04))\n      shr(0xe0, calldataload(0x00))\n      dup1\n      0x76e00406\n      gt\n      tag_14\n      jumpi\n      dup1\n      0xb1283e77\n      gt\n      tag_15\n      jumpi\n      dup1\n      0xb1283e77\n      eq\n      tag_11\n      jumpi\n      dup1\n      0xdf55406e\n      eq\n      tag_12\n      jumpi\n      dup1\n      0xec979082\n      eq\n      tag_13\n      jumpi\n      0x00\n      dup1\n      revert\n    tag_15:\n      dup1\n      0x76e00406\n      eq\n      tag_8\n      jumpi\n      dup1\n      0x7f1a10da\n      eq\n      tag_9\n      jumpi\n      dup1\n      0x8da5cb5b\n      eq\n      tag_10\n      jumpi\n      0x00\n      dup1\n      revert\n    tag_14:\n      dup1\n      0x3ec79193\n      gt\n      tag_16\n      jumpi\n      dup1\n      0x3ec79193\n      eq\n      tag_5\n      jumpi\n      dup1\n      0x43425e88\n      eq\n      tag_6\n      jumpi\n      dup1\n      0x677bd9ff\n      eq\n      tag_7\n      jumpi\n      0x00\n      dup1\n      revert\n    tag_16:\n      dup1\n      0x13af4035\n      eq\n      tag_3\n      jumpi\n      dup1\n      0x39b46372\n      eq\n      tag_4\n      jumpi\n    tag_2:\n      0x00\n      dup1\n      revert\n        /* \"@thirdweb-dev/contracts/extension/Ownable.sol\":1235:1412   */\n    tag_3:\n      tag_17\n      tag_18\n      calldatasize\n      0x04\n      tag_19\n      jump\t// in\n    tag_18:\n      tag_20\n      jump\t// in\n    tag_17:\n      stop\n        /* \"SimplePredictionMarket.sol\":2341:3149  function buyShares(uint256 _marketId, bool _isOptionA, uint256 _amount) external {... */\n    tag_4:\n      tag_17\n      tag_22\n      calldatasize\n      0x04\n      tag_23\n      jump\t// in\n    tag_22:\n      tag_24\n      jump\t// in\n        /* \"SimplePredictionMarket.sol\":5038:5424  function getMarketInfo(uint256 _marketId) external view returns (string memory, string memory, string memory, uint256, MarketOutcome, uint256, uint256, bool) {... */\n    tag_5:\n      tag_25\n      tag_26\n      calldatasize\n      0x04\n      tag_27\n      jump\t// in\n    tag_26:\n      tag_28\n      jump\t// in\n    tag_25:\n      mload(0x40)\n      tag_29\n      swap9\n      swap8\n      swap7\n      swap6\n      swap5\n      swap4\n      swap3\n      swap2\n      swap1\n      tag_30\n      jump\t// in\n    tag_29:\n      mload(0x40)\n      dup1\n      swap2\n      sub\n      swap1\n      return\n        /* \"SimplePredictionMarket.sol\":836:862  IERC20 public bettingToken */\n    tag_6:\n      sload(0x02)\n      tag_31\n      swap1\n      sub(shl(0xa0, 0x01), 0x01)\n      and\n      dup2\n      jump\n    tag_31:\n      mload(0x40)\n      sub(shl(0xa0, 0x01), 0x01)\n        /* \"#utility.yul\":2925:2980   */\n      swap1\n      swap2\n      and\n        /* \"#utility.yul\":2907:2981   */\n      dup2\n      mstore\n        /* \"#utility.yul\":2895:2897   */\n      0x20\n        /* \"#utility.yul\":2880:2898   */\n      add\n        /* \"SimplePredictionMarket.sol\":836:862  IERC20 public bettingToken */\n      tag_29\n        /* \"#utility.yul\":2747:2987   */\n      jump\n        /* \"SimplePredictionMarket.sol\":3639:5032  function claimWinnings(uint256 _marketId) external {... */\n    tag_7:\n      tag_17\n      tag_36\n      calldatasize\n      0x04\n      tag_27\n      jump\t// in\n    tag_36:\n      tag_37\n      jump\t// in\n        /* \"SimplePredictionMarket.sol\":1580:2335  function createMarket(string memory _question, string memory _optionA, string memory _optionB, uint256 _duration) external onlyOwner returns (uint256) {... */\n    tag_8:\n      tag_38\n      tag_39\n      calldatasize\n      0x04\n      tag_40\n      jump\t// in\n    tag_39:\n      tag_41\n      jump\t// in\n    tag_38:\n      mload(0x40)\n        /* \"#utility.yul\":4811:4836   */\n      swap1\n      dup2\n      mstore\n        /* \"#utility.yul\":4799:4801   */\n      0x20\n        /* \"#utility.yul\":4784:4802   */\n      add\n        /* \"SimplePredictionMarket.sol\":1580:2335  function createMarket(string memory _question, string memory _optionA, string memory _optionB, uint256 _duration) external onlyOwner returns (uint256) {... */\n      tag_29\n        /* \"#utility.yul\":4665:4842   */\n      jump\n        /* \"SimplePredictionMarket.sol\":5430:5679  function getSharesBalance(uint256 _marketId, address _user) external view returns (uint256, uint256) {... */\n    tag_9:\n      tag_44\n      tag_45\n      calldatasize\n      0x04\n      tag_46\n      jump\t// in\n    tag_45:\n        /* \"SimplePredictionMarket.sol\":5513:5520  uint256 */\n      0x00\n        /* \"SimplePredictionMarket.sol\":5565:5583  markets[_marketId] */\n      swap2\n      dup3\n      mstore\n        /* \"SimplePredictionMarket.sol\":5565:5572  markets */\n      0x04\n        /* \"SimplePredictionMarket.sol\":5565:5583  markets[_marketId] */\n      0x20\n      swap1\n      dup2\n      mstore\n      0x40\n      dup1\n      dup5\n      keccak256\n      sub(shl(0xa0, 0x01), 0x01)\n        /* \"SimplePredictionMarket.sol\":5601:5635  market.optionASharesBalance[_user] */\n      swap4\n      swap1\n      swap4\n      and\n      dup5\n      mstore\n        /* \"SimplePredictionMarket.sol\":5601:5628  market.optionASharesBalance */\n      0x08\n      dup4\n      add\n        /* \"SimplePredictionMarket.sol\":5601:5635  market.optionASharesBalance[_user] */\n      dup3\n      mstore\n      dup1\n      dup5\n      keccak256\n      sload\n        /* \"SimplePredictionMarket.sol\":5637:5664  market.optionBSharesBalance */\n      0x09\n      swap1\n      swap4\n      add\n        /* \"SimplePredictionMarket.sol\":5637:5671  market.optionBSharesBalance[_user] */\n      swap1\n      swap2\n      mstore\n      swap1\n      swap2\n      keccak256\n      sload\n        /* \"SimplePredictionMarket.sol\":5601:5635  market.optionASharesBalance[_user] */\n      swap1\n      swap2\n        /* \"SimplePredictionMarket.sol\":5430:5679  function getSharesBalance(uint256 _marketId, address _user) external view returns (uint256, uint256) {... */\n      jump\n    tag_44:\n      0x40\n      dup1\n      mload\n        /* \"#utility.yul\":5280:5305   */\n      swap3\n      dup4\n      mstore\n        /* \"#utility.yul\":5336:5338   */\n      0x20\n        /* \"#utility.yul\":5321:5339   */\n      dup4\n      add\n        /* \"#utility.yul\":5314:5348   */\n      swap2\n      swap1\n      swap2\n      mstore\n        /* \"#utility.yul\":5253:5271   */\n      add\n        /* \"SimplePredictionMarket.sol\":5430:5679  function getSharesBalance(uint256 _marketId, address _user) external view returns (uint256, uint256) {... */\n      tag_29\n        /* \"#utility.yul\":5106:5354   */\n      jump\n        /* \"@thirdweb-dev/contracts/extension/Ownable.sol\":973:1059   */\n    tag_10:\n        /* \"@thirdweb-dev/contracts/extension/Ownable.sol\":1020:1027   */\n      0x00\n        /* \"@thirdweb-dev/contracts/extension/Ownable.sol\":1046:1052   */\n      sload\n      sub(shl(0xa0, 0x01), 0x01)\n      and\n        /* \"@thirdweb-dev/contracts/extension/Ownable.sol\":973:1059   */\n      jump(tag_31)\n        /* \"SimplePredictionMarket.sol\":900:941  mapping(uint256 => Market) public markets */\n    tag_11:\n      tag_54\n      tag_55\n      calldatasize\n      0x04\n      tag_27\n      jump\t// in\n    tag_55:\n      tag_56\n      jump\t// in\n    tag_54:\n      mload(0x40)\n      tag_29\n      swap9\n      swap8\n      swap7\n      swap6\n      swap5\n      swap4\n      swap3\n      swap2\n      swap1\n      tag_58\n      jump\t// in\n        /* \"SimplePredictionMarket.sol\":3155:3633  function resolveMarket(uint256 _marketId, MarketOutcome _outcome) external onlyOwner {... */\n    tag_12:\n      tag_17\n      tag_60\n      calldatasize\n      0x04\n      tag_61\n      jump\t// in\n    tag_60:\n      tag_62\n      jump\t// in\n        /* \"SimplePredictionMarket.sol\":868:894  uint256 public marketCount */\n    tag_13:\n      tag_38\n      sload(0x03)\n      dup2\n      jump\n        /* \"@thirdweb-dev/contracts/extension/Ownable.sol\":1235:1412   */\n    tag_20:\n        /* \"SimplePredictionMarket.sol\":1396:1400  bool */\n      0x00\n        /* \"@thirdweb-dev/contracts/extension/Ownable.sol\":1046:1052   */\n      sload\n      sub(shl(0xa0, 0x01), 0x01)\n      and\n        /* \"SimplePredictionMarket.sol\":1419:1429  msg.sender */\n      caller\n        /* \"SimplePredictionMarket.sol\":1419:1440  msg.sender == owner() */\n      eq\n        /* \"@thirdweb-dev/contracts/extension/Ownable.sol\":1300:1374   */\n      tag_69\n      jumpi\n        /* \"@thirdweb-dev/contracts/extension/Ownable.sol\":1342:1363   */\n      mload(0x40)\n      shl(0xe1, 0x16ccb9cb)\n      dup2\n      mstore\n      0x04\n      add\n      mload(0x40)\n      dup1\n      swap2\n      sub\n      swap1\n      revert\n        /* \"@thirdweb-dev/contracts/extension/Ownable.sol\":1300:1374   */\n    tag_69:\n        /* \"@thirdweb-dev/contracts/extension/Ownable.sol\":1383:1405   */\n      tag_70\n        /* \"@thirdweb-dev/contracts/extension/Ownable.sol\":1395:1404   */\n      dup2\n        /* \"@thirdweb-dev/contracts/extension/Ownable.sol\":1383:1394   */\n      tag_71\n        /* \"@thirdweb-dev/contracts/extension/Ownable.sol\":1383:1405   */\n      jump\t// in\n    tag_70:\n        /* \"@thirdweb-dev/contracts/extension/Ownable.sol\":1235:1412   */\n      pop\n      jump\t// out\n        /* \"SimplePredictionMarket.sol\":2341:3149  function buyShares(uint256 _marketId, bool _isOptionA, uint256 _amount) external {... */\n    tag_24:\n        /* \"SimplePredictionMarket.sol\":2432:2453  Market storage market */\n      0x00\n        /* \"SimplePredictionMarket.sol\":2456:2474  markets[_marketId] */\n      dup4\n      dup2\n      mstore\n        /* \"SimplePredictionMarket.sol\":2456:2463  markets */\n      0x04\n        /* \"SimplePredictionMarket.sol\":2456:2474  markets[_marketId] */\n      0x20\n      mstore\n      0x40\n      swap1\n      keccak256\n        /* \"SimplePredictionMarket.sol\":2510:2524  market.endTime */\n      0x01\n      dup2\n      add\n      sload\n        /* \"SimplePredictionMarket.sol\":2492:2507  block.timestamp */\n      timestamp\n        /* \"SimplePredictionMarket.sol\":2492:2524  block.timestamp < market.endTime */\n      lt\n        /* \"SimplePredictionMarket.sol\":2484:2560  require(block.timestamp < market.endTime, \"Market trading period has ended\") */\n      tag_73\n      jumpi\n      mload(0x40)\n      shl(0xe5, 0x461bcd)\n      dup2\n      mstore\n        /* \"#utility.yul\":7116:7118   */\n      0x20\n        /* \"SimplePredictionMarket.sol\":2484:2560  require(block.timestamp < market.endTime, \"Market trading period has ended\") */\n      0x04\n      dup3\n      add\n        /* \"#utility.yul\":7098:7119   */\n      mstore\n        /* \"#utility.yul\":7155:7157   */\n      0x1f\n        /* \"#utility.yul\":7135:7153   */\n      0x24\n      dup3\n      add\n        /* \"#utility.yul\":7128:7158   */\n      mstore\n        /* \"#utility.yul\":7194:7227   */\n      0x4d61726b65742074726164696e6720706572696f642068617320656e64656400\n        /* \"#utility.yul\":7174:7192   */\n      0x44\n      dup3\n      add\n        /* \"#utility.yul\":7167:7228   */\n      mstore\n        /* \"#utility.yul\":7245:7263   */\n      0x64\n      add\n        /* \"SimplePredictionMarket.sol\":2484:2560  require(block.timestamp < market.endTime, \"Market trading period has ended\") */\n    tag_74:\n      mload(0x40)\n      dup1\n      swap2\n      sub\n      swap1\n      revert\n    tag_73:\n        /* \"SimplePredictionMarket.sol\":2579:2594  market.resolved */\n      0x07\n      dup2\n      add\n      sload\n      0xff\n      and\n        /* \"SimplePredictionMarket.sol\":2578:2594  !market.resolved */\n      iszero\n        /* \"SimplePredictionMarket.sol\":2570:2622  require(!market.resolved, \"Market already resolved\") */\n      tag_76\n      jumpi\n      mload(0x40)\n      shl(0xe5, 0x461bcd)\n      dup2\n      mstore\n        /* \"#utility.yul\":7476:7478   */\n      0x20\n        /* \"SimplePredictionMarket.sol\":2570:2622  require(!market.resolved, \"Market already resolved\") */\n      0x04\n      dup3\n      add\n        /* \"#utility.yul\":7458:7479   */\n      mstore\n        /* \"#utility.yul\":7515:7517   */\n      0x17\n        /* \"#utility.yul\":7495:7513   */\n      0x24\n      dup3\n      add\n        /* \"#utility.yul\":7488:7518   */\n      mstore\n        /* \"#utility.yul\":7554:7579   */\n      0x4d61726b657420616c7265616479207265736f6c766564000000000000000000\n        /* \"#utility.yul\":7534:7552   */\n      0x44\n      dup3\n      add\n        /* \"#utility.yul\":7527:7580   */\n      mstore\n        /* \"#utility.yul\":7597:7615   */\n      0x64\n      add\n        /* \"SimplePredictionMarket.sol\":2570:2622  require(!market.resolved, \"Market already resolved\") */\n      tag_74\n        /* \"#utility.yul\":7274:7621   */\n      jump\n        /* \"SimplePredictionMarket.sol\":2570:2622  require(!market.resolved, \"Market already resolved\") */\n    tag_76:\n        /* \"SimplePredictionMarket.sol\":2650:2651  0 */\n      0x00\n        /* \"SimplePredictionMarket.sol\":2640:2647  _amount */\n      dup3\n        /* \"SimplePredictionMarket.sol\":2640:2651  _amount > 0 */\n      gt\n        /* \"SimplePredictionMarket.sol\":2632:2679  require(_amount > 0, \"Amount must be positive\") */\n      tag_79\n      jumpi\n      mload(0x40)\n      shl(0xe5, 0x461bcd)\n      dup2\n      mstore\n        /* \"#utility.yul\":7828:7830   */\n      0x20\n        /* \"SimplePredictionMarket.sol\":2632:2679  require(_amount > 0, \"Amount must be positive\") */\n      0x04\n      dup3\n      add\n        /* \"#utility.yul\":7810:7831   */\n      mstore\n        /* \"#utility.yul\":7867:7869   */\n      0x17\n        /* \"#utility.yul\":7847:7865   */\n      0x24\n      dup3\n      add\n        /* \"#utility.yul\":7840:7870   */\n      mstore\n        /* \"#utility.yul\":7906:7931   */\n      0x416d6f756e74206d75737420626520706f736974697665000000000000000000\n        /* \"#utility.yul\":7886:7904   */\n      0x44\n      dup3\n      add\n        /* \"#utility.yul\":7879:7932   */\n      mstore\n        /* \"#utility.yul\":7949:7967   */\n      0x64\n      add\n        /* \"SimplePredictionMarket.sol\":2632:2679  require(_amount > 0, \"Amount must be positive\") */\n      tag_74\n        /* \"#utility.yul\":7626:7973   */\n      jump\n        /* \"SimplePredictionMarket.sol\":2632:2679  require(_amount > 0, \"Amount must be positive\") */\n    tag_79:\n        /* \"SimplePredictionMarket.sol\":2698:2710  bettingToken */\n      sload(0x02)\n        /* \"SimplePredictionMarket.sol\":2698:2759  bettingToken.transferFrom(msg.sender, address(this), _amount) */\n      mload(0x40)\n      shl(0xe0, 0x23b872dd)\n      dup2\n      mstore\n        /* \"SimplePredictionMarket.sol\":2724:2734  msg.sender */\n      caller\n        /* \"SimplePredictionMarket.sol\":2698:2759  bettingToken.transferFrom(msg.sender, address(this), _amount) */\n      0x04\n      dup3\n      add\n        /* \"#utility.yul\":8241:8275   */\n      mstore\n        /* \"SimplePredictionMarket.sol\":2744:2748  this */\n      address\n        /* \"#utility.yul\":8291:8309   */\n      0x24\n      dup3\n      add\n        /* \"#utility.yul\":8284:8327   */\n      mstore\n        /* \"#utility.yul\":8343:8361   */\n      0x44\n      dup2\n      add\n        /* \"#utility.yul\":8336:8370   */\n      dup5\n      swap1\n      mstore\n      sub(shl(0xa0, 0x01), 0x01)\n        /* \"SimplePredictionMarket.sol\":2698:2710  bettingToken */\n      swap1\n      swap2\n      and\n      swap1\n        /* \"SimplePredictionMarket.sol\":2698:2723  bettingToken.transferFrom */\n      0x23b872dd\n      swap1\n        /* \"#utility.yul\":8153:8171   */\n      0x64\n      add\n        /* \"SimplePredictionMarket.sol\":2698:2759  bettingToken.transferFrom(msg.sender, address(this), _amount) */\n      0x20\n      mload(0x40)\n      dup1\n      dup4\n      sub\n      dup2\n      0x00\n      dup8\n      gas\n      call\n      iszero\n      dup1\n      iszero\n      tag_85\n      jumpi\n      returndatasize\n      0x00\n      dup1\n      returndatacopy\n      revert(0x00, returndatasize)\n    tag_85:\n      pop\n      pop\n      pop\n      pop\n      mload(0x40)\n      returndatasize\n      not(0x1f)\n      0x1f\n      dup3\n      add\n      and\n      dup3\n      add\n      dup1\n      0x40\n      mstore\n      pop\n      dup2\n      add\n      swap1\n      tag_86\n      swap2\n      swap1\n      tag_87\n      jump\t// in\n    tag_86:\n        /* \"SimplePredictionMarket.sol\":2690:2785  require(bettingToken.transferFrom(msg.sender, address(this), _amount), \"Token transfer failed\") */\n      tag_88\n      jumpi\n      mload(0x40)\n      shl(0xe5, 0x461bcd)\n      dup2\n      mstore\n        /* \"#utility.yul\":8833:8835   */\n      0x20\n        /* \"SimplePredictionMarket.sol\":2690:2785  require(bettingToken.transferFrom(msg.sender, address(this), _amount), \"Token transfer failed\") */\n      0x04\n      dup3\n      add\n        /* \"#utility.yul\":8815:8836   */\n      mstore\n        /* \"#utility.yul\":8872:8874   */\n      0x15\n        /* \"#utility.yul\":8852:8870   */\n      0x24\n      dup3\n      add\n        /* \"#utility.yul\":8845:8875   */\n      mstore\n        /* \"#utility.yul\":8911:8934   */\n      0x546f6b656e207472616e73666572206661696c65640000000000000000000000\n        /* \"#utility.yul\":8891:8909   */\n      0x44\n      dup3\n      add\n        /* \"#utility.yul\":8884:8935   */\n      mstore\n        /* \"#utility.yul\":8952:8970   */\n      0x64\n      add\n        /* \"SimplePredictionMarket.sol\":2690:2785  require(bettingToken.transferFrom(msg.sender, address(this), _amount), \"Token transfer failed\") */\n      tag_74\n        /* \"#utility.yul\":8631:8976   */\n      jump\n        /* \"SimplePredictionMarket.sol\":2690:2785  require(bettingToken.transferFrom(msg.sender, address(this), _amount), \"Token transfer failed\") */\n    tag_88:\n        /* \"SimplePredictionMarket.sol\":2800:2810  _isOptionA */\n      dup3\n        /* \"SimplePredictionMarket.sol\":2796:3068  if (_isOptionA) {... */\n      iszero\n      tag_91\n      jumpi\n        /* \"SimplePredictionMarket.sol\":2854:2864  msg.sender */\n      caller\n        /* \"SimplePredictionMarket.sol\":2826:2865  market.optionASharesBalance[msg.sender] */\n      0x00\n      swap1\n      dup2\n      mstore\n        /* \"SimplePredictionMarket.sol\":2826:2853  market.optionASharesBalance */\n      0x08\n      dup3\n      add\n        /* \"SimplePredictionMarket.sol\":2826:2865  market.optionASharesBalance[msg.sender] */\n      0x20\n      mstore\n      0x40\n      dup2\n      keccak256\n        /* \"SimplePredictionMarket.sol\":2826:2876  market.optionASharesBalance[msg.sender] += _amount */\n      dup1\n      sload\n        /* \"SimplePredictionMarket.sol\":2869:2876  _amount */\n      dup5\n      swap3\n        /* \"SimplePredictionMarket.sol\":2826:2865  market.optionASharesBalance[msg.sender] */\n      swap1\n        /* \"SimplePredictionMarket.sol\":2826:2876  market.optionASharesBalance[msg.sender] += _amount */\n      tag_92\n      swap1\n        /* \"SimplePredictionMarket.sol\":2869:2876  _amount */\n      dup5\n      swap1\n        /* \"SimplePredictionMarket.sol\":2826:2876  market.optionASharesBalance[msg.sender] += _amount */\n      tag_93\n      jump\t// in\n    tag_92:\n      swap3\n      pop\n      pop\n      dup2\n      swap1\n      sstore\n      pop\n        /* \"SimplePredictionMarket.sol\":2919:2926  _amount */\n      dup2\n        /* \"SimplePredictionMarket.sol\":2890:2896  market */\n      dup2\n        /* \"SimplePredictionMarket.sol\":2890:2915  market.totalOptionAShares */\n      0x05\n      add\n      0x00\n        /* \"SimplePredictionMarket.sol\":2890:2926  market.totalOptionAShares += _amount */\n      dup3\n      dup3\n      sload\n      tag_94\n      swap2\n      swap1\n      tag_93\n      jump\t// in\n    tag_94:\n      swap1\n      swap2\n      sstore\n      pop\n        /* \"SimplePredictionMarket.sol\":2796:3068  if (_isOptionA) {... */\n      tag_95\n      swap1\n      pop\n      jump\n    tag_91:\n        /* \"SimplePredictionMarket.sol\":2985:2995  msg.sender */\n      caller\n        /* \"SimplePredictionMarket.sol\":2957:2996  market.optionBSharesBalance[msg.sender] */\n      0x00\n      swap1\n      dup2\n      mstore\n        /* \"SimplePredictionMarket.sol\":2957:2984  market.optionBSharesBalance */\n      0x09\n      dup3\n      add\n        /* \"SimplePredictionMarket.sol\":2957:2996  market.optionBSharesBalance[msg.sender] */\n      0x20\n      mstore\n      0x40\n      dup2\n      keccak256\n        /* \"SimplePredictionMarket.sol\":2957:3007  market.optionBSharesBalance[msg.sender] += _amount */\n      dup1\n      sload\n        /* \"SimplePredictionMarket.sol\":3000:3007  _amount */\n      dup5\n      swap3\n        /* \"SimplePredictionMarket.sol\":2957:2996  market.optionBSharesBalance[msg.sender] */\n      swap1\n        /* \"SimplePredictionMarket.sol\":2957:3007  market.optionBSharesBalance[msg.sender] += _amount */\n      tag_96\n      swap1\n        /* \"SimplePredictionMarket.sol\":3000:3007  _amount */\n      dup5\n      swap1\n        /* \"SimplePredictionMarket.sol\":2957:3007  market.optionBSharesBalance[msg.sender] += _amount */\n      tag_93\n      jump\t// in\n    tag_96:\n      swap3\n      pop\n      pop\n      dup2\n      swap1\n      sstore\n      pop\n        /* \"SimplePredictionMarket.sol\":3050:3057  _amount */\n      dup2\n        /* \"SimplePredictionMarket.sol\":3021:3027  market */\n      dup2\n        /* \"SimplePredictionMarket.sol\":3021:3046  market.totalOptionBShares */\n      0x06\n      add\n      0x00\n        /* \"SimplePredictionMarket.sol\":3021:3057  market.totalOptionBShares += _amount */\n      dup3\n      dup3\n      sload\n      tag_97\n      swap2\n      swap1\n      tag_93\n      jump\t// in\n    tag_97:\n      swap1\n      swap2\n      sstore\n      pop\n      pop\n        /* \"SimplePredictionMarket.sol\":2796:3068  if (_isOptionA) {... */\n    tag_95:\n        /* \"SimplePredictionMarket.sol\":3083:3142  SharesPurchased(_marketId, msg.sender, _isOptionA, _amount) */\n      0x40\n      dup1\n      mload\n        /* \"#utility.yul\":9436:9450   */\n      dup5\n      iszero\n        /* \"#utility.yul\":9429:9451   */\n      iszero\n        /* \"#utility.yul\":9411:9452   */\n      dup2\n      mstore\n        /* \"#utility.yul\":9483:9485   */\n      0x20\n        /* \"#utility.yul\":9468:9486   */\n      dup2\n      add\n        /* \"#utility.yul\":9461:9495   */\n      dup5\n      swap1\n      mstore\n        /* \"SimplePredictionMarket.sol\":3110:3120  msg.sender */\n      caller\n      swap2\n        /* \"SimplePredictionMarket.sol\":3099:3108  _marketId */\n      dup7\n      swap2\n        /* \"SimplePredictionMarket.sol\":3083:3142  SharesPurchased(_marketId, msg.sender, _isOptionA, _amount) */\n      0xb3a1ddef05fa52ff8a462662e00f5fd54a3b35e85417cafcaa671fb30434bd11\n      swap2\n        /* \"#utility.yul\":9384:9402   */\n      add\n        /* \"SimplePredictionMarket.sol\":3083:3142  SharesPurchased(_marketId, msg.sender, _isOptionA, _amount) */\n      mload(0x40)\n      dup1\n      swap2\n      sub\n      swap1\n      log3\n        /* \"SimplePredictionMarket.sol\":2422:3149  {... */\n      pop\n        /* \"SimplePredictionMarket.sol\":2341:3149  function buyShares(uint256 _marketId, bool _isOptionA, uint256 _amount) external {... */\n      pop\n      pop\n      pop\n      jump\t// out\n        /* \"SimplePredictionMarket.sol\":5038:5424  function getMarketInfo(uint256 _marketId) external view returns (string memory, string memory, string memory, uint256, MarketOutcome, uint256, uint256, bool) {... */\n    tag_28:\n        /* \"SimplePredictionMarket.sol\":5148:5155  uint256 */\n      0x00\n        /* \"SimplePredictionMarket.sol\":5230:5248  markets[_marketId] */\n      dup2\n      dup2\n      mstore\n        /* \"SimplePredictionMarket.sol\":5230:5237  markets */\n      0x04\n        /* \"SimplePredictionMarket.sol\":5230:5248  markets[_marketId] */\n      0x20\n      dup2\n      swap1\n      mstore\n      0x40\n      dup3\n      keccak256\n        /* \"SimplePredictionMarket.sol\":5315:5329  market.endTime */\n      0x01\n      dup2\n      add\n      sload\n        /* \"SimplePredictionMarket.sol\":5331:5345  market.outcome */\n      0x02\n      dup3\n      add\n      sload\n        /* \"SimplePredictionMarket.sol\":5347:5372  market.totalOptionAShares */\n      0x05\n      dup4\n      add\n      sload\n        /* \"SimplePredictionMarket.sol\":5374:5399  market.totalOptionBShares */\n      0x06\n      dup5\n      add\n      sload\n        /* \"SimplePredictionMarket.sol\":5401:5416  market.resolved */\n      0x07\n      dup6\n      add\n      sload\n        /* \"SimplePredictionMarket.sol\":5258:5417  return (market.question, market.optionA, market.optionB, market.endTime, market.outcome, market.totalOptionAShares, market.totalOptionBShares, market.resolved) */\n      dup6\n      sload\n        /* \"SimplePredictionMarket.sol\":5103:5116  string memory */\n      0x60\n      swap9\n      dup10\n      swap9\n      dup10\n      swap9\n        /* \"SimplePredictionMarket.sol\":5148:5155  uint256 */\n      swap2\n      swap8\n      dup9\n      swap8\n      dup9\n      swap8\n      dup9\n      swap8\n      dup9\n      swap8\n        /* \"SimplePredictionMarket.sol\":5230:5248  markets[_marketId] */\n      swap6\n      swap7\n      dup8\n      swap7\n        /* \"SimplePredictionMarket.sol\":5283:5297  market.optionA */\n      0x03\n      dup9\n      add\n      swap7\n        /* \"SimplePredictionMarket.sol\":5299:5313  market.optionB */\n      dup9\n      add\n      swap6\n        /* \"SimplePredictionMarket.sol\":5315:5329  market.endTime */\n      swap5\n        /* \"SimplePredictionMarket.sol\":5331:5345  market.outcome */\n      0xff\n      swap1\n      dup2\n      and\n      swap5\n        /* \"SimplePredictionMarket.sol\":5347:5372  market.totalOptionAShares */\n      swap4\n        /* \"SimplePredictionMarket.sol\":5374:5399  market.totalOptionBShares */\n      swap3\n        /* \"SimplePredictionMarket.sol\":5401:5416  market.resolved */\n      swap2\n      and\n      swap1\n        /* \"SimplePredictionMarket.sol\":5230:5248  markets[_marketId] */\n      dup9\n      swap1\n        /* \"SimplePredictionMarket.sol\":5258:5417  return (market.question, market.optionA, market.optionB, market.endTime, market.outcome, market.totalOptionAShares, market.totalOptionBShares, market.resolved) */\n      tag_101\n      swap1\n      tag_102\n      jump\t// in\n    tag_101:\n      dup1\n      0x1f\n      add\n      0x20\n      dup1\n      swap2\n      div\n      mul\n      0x20\n      add\n      mload(0x40)\n      swap1\n      dup2\n      add\n      0x40\n      mstore\n      dup1\n      swap3\n      swap2\n      swap1\n      dup2\n      dup2\n      mstore\n      0x20\n      add\n      dup3\n      dup1\n      sload\n      tag_103\n      swap1\n      tag_102\n      jump\t// in\n    tag_103:\n      dup1\n      iszero\n      tag_104\n      jumpi\n      dup1\n      0x1f\n      lt\n      tag_105\n      jumpi\n      0x0100\n      dup1\n      dup4\n      sload\n      div\n      mul\n      dup4\n      mstore\n      swap2\n      0x20\n      add\n      swap2\n      jump(tag_104)\n    tag_105:\n      dup3\n      add\n      swap2\n      swap1\n      0x00\n      mstore\n      keccak256(0x00, 0x20)\n      swap1\n    tag_106:\n      dup2\n      sload\n      dup2\n      mstore\n      swap1\n      0x01\n      add\n      swap1\n      0x20\n      add\n      dup1\n      dup4\n      gt\n      tag_106\n      jumpi\n      dup3\n      swap1\n      sub\n      0x1f\n      and\n      dup3\n      add\n      swap2\n    tag_104:\n      pop\n      pop\n      pop\n      pop\n      pop\n      swap8\n      pop\n      dup7\n      dup1\n      sload\n      tag_107\n      swap1\n      tag_102\n      jump\t// in\n    tag_107:\n      dup1\n      0x1f\n      add\n      0x20\n      dup1\n      swap2\n      div\n      mul\n      0x20\n      add\n      mload(0x40)\n      swap1\n      dup2\n      add\n      0x40\n      mstore\n      dup1\n      swap3\n      swap2\n      swap1\n      dup2\n      dup2\n      mstore\n      0x20\n      add\n      dup3\n      dup1\n      sload\n      tag_108\n      swap1\n      tag_102\n      jump\t// in\n    tag_108:\n      dup1\n      iszero\n      tag_109\n      jumpi\n      dup1\n      0x1f\n      lt\n      tag_110\n      jumpi\n      0x0100\n      dup1\n      dup4\n      sload\n      div\n      mul\n      dup4\n      mstore\n      swap2\n      0x20\n      add\n      swap2\n      jump(tag_109)\n    tag_110:\n      dup3\n      add\n      swap2\n      swap1\n      0x00\n      mstore\n      keccak256(0x00, 0x20)\n      swap1\n    tag_111:\n      dup2\n      sload\n      dup2\n      mstore\n      swap1\n      0x01\n      add\n      swap1\n      0x20\n      add\n      dup1\n      dup4\n      gt\n      tag_111\n      jumpi\n      dup3\n      swap1\n      sub\n      0x1f\n      and\n      dup3\n      add\n      swap2\n    tag_109:\n      pop\n      pop\n      pop\n      pop\n      pop\n      swap7\n      pop\n      dup6\n      dup1\n      sload\n      tag_112\n      swap1\n      tag_102\n      jump\t// in\n    tag_112:\n      dup1\n      0x1f\n      add\n      0x20\n      dup1\n      swap2\n      div\n      mul\n      0x20\n      add\n      mload(0x40)\n      swap1\n      dup2\n      add\n      0x40\n      mstore\n      dup1\n      swap3\n      swap2\n      swap1\n      dup2\n      dup2\n      mstore\n      0x20\n      add\n      dup3\n      dup1\n      sload\n      tag_113\n      swap1\n      tag_102\n      jump\t// in\n    tag_113:\n      dup1\n      iszero\n      tag_114\n      jumpi\n      dup1\n      0x1f\n      lt\n      tag_115\n      jumpi\n      0x0100\n      dup1\n      dup4\n      sload\n      div\n      mul\n      dup4\n      mstore\n      swap2\n      0x20\n      add\n      swap2\n      jump(tag_114)\n    tag_115:\n      dup3\n      add\n      swap2\n      swap1\n      0x00\n      mstore\n      keccak256(0x00, 0x20)\n      swap1\n    tag_116:\n      dup2\n      sload\n      dup2\n      mstore\n      swap1\n      0x01\n      add\n      swap1\n      0x20\n      add\n      dup1\n      dup4\n      gt\n      tag_116\n      jumpi\n      dup3\n      swap1\n      sub\n      0x1f\n      and\n      dup3\n      add\n      swap2\n    tag_114:\n      pop\n      pop\n      pop\n      pop\n      pop\n      swap6\n      pop\n      swap9\n      pop\n      swap9\n      pop\n      swap9\n      pop\n      swap9\n      pop\n      swap9\n      pop\n      swap9\n      pop\n      swap9\n      pop\n      swap9\n      pop\n      pop\n        /* \"SimplePredictionMarket.sol\":5038:5424  function getMarketInfo(uint256 _marketId) external view returns (string memory, string memory, string memory, uint256, MarketOutcome, uint256, uint256, bool) {... */\n      swap2\n      swap4\n      swap6\n      swap8\n      pop\n      swap2\n      swap4\n      swap6\n      swap8\n      jump\t// out\n        /* \"SimplePredictionMarket.sol\":3639:5032  function claimWinnings(uint256 _marketId) external {... */\n    tag_37:\n        /* \"SimplePredictionMarket.sol\":3700:3721  Market storage market */\n      0x00\n        /* \"SimplePredictionMarket.sol\":3724:3742  markets[_marketId] */\n      dup2\n      dup2\n      mstore\n        /* \"SimplePredictionMarket.sol\":3724:3731  markets */\n      0x04\n        /* \"SimplePredictionMarket.sol\":3724:3742  markets[_marketId] */\n      0x20\n      mstore\n      0x40\n      swap1\n      keccak256\n        /* \"SimplePredictionMarket.sol\":3760:3775  market.resolved */\n      0x07\n      dup2\n      add\n      sload\n      0xff\n      and\n        /* \"SimplePredictionMarket.sol\":3752:3803  require(market.resolved, \"Market not resolved yet\") */\n      tag_118\n      jumpi\n      mload(0x40)\n      shl(0xe5, 0x461bcd)\n      dup2\n      mstore\n        /* \"#utility.yul\":10093:10095   */\n      0x20\n        /* \"SimplePredictionMarket.sol\":3752:3803  require(market.resolved, \"Market not resolved yet\") */\n      0x04\n      dup3\n      add\n        /* \"#utility.yul\":10075:10096   */\n      mstore\n        /* \"#utility.yul\":10132:10134   */\n      0x17\n        /* \"#utility.yul\":10112:10130   */\n      0x24\n      dup3\n      add\n        /* \"#utility.yul\":10105:10135   */\n      mstore\n        /* \"#utility.yul\":10171:10196   */\n      0x4d61726b6574206e6f74207265736f6c76656420796574000000000000000000\n        /* \"#utility.yul\":10151:10169   */\n      0x44\n      dup3\n      add\n        /* \"#utility.yul\":10144:10197   */\n      mstore\n        /* \"#utility.yul\":10214:10232   */\n      0x64\n      add\n        /* \"SimplePredictionMarket.sol\":3752:3803  require(market.resolved, \"Market not resolved yet\") */\n      tag_74\n        /* \"#utility.yul\":9891:10238   */\n      jump\n        /* \"SimplePredictionMarket.sol\":3752:3803  require(market.resolved, \"Market not resolved yet\") */\n    tag_118:\n        /* \"SimplePredictionMarket.sol\":3840:3850  msg.sender */\n      caller\n        /* \"SimplePredictionMarket.sol\":3822:3851  market.hasClaimed[msg.sender] */\n      0x00\n      swap1\n      dup2\n      mstore\n        /* \"SimplePredictionMarket.sol\":3822:3839  market.hasClaimed */\n      0x0a\n      dup3\n      add\n        /* \"SimplePredictionMarket.sol\":3822:3851  market.hasClaimed[msg.sender] */\n      0x20\n      mstore\n      0x40\n      swap1\n      keccak256\n      sload\n      0xff\n      and\n        /* \"SimplePredictionMarket.sol\":3821:3851  !market.hasClaimed[msg.sender] */\n      iszero\n        /* \"SimplePredictionMarket.sol\":3813:3880  require(!market.hasClaimed[msg.sender], \"Winnings already claimed\") */\n      tag_121\n      jumpi\n      mload(0x40)\n      shl(0xe5, 0x461bcd)\n      dup2\n      mstore\n        /* \"#utility.yul\":10445:10447   */\n      0x20\n        /* \"SimplePredictionMarket.sol\":3813:3880  require(!market.hasClaimed[msg.sender], \"Winnings already claimed\") */\n      0x04\n      dup3\n      add\n        /* \"#utility.yul\":10427:10448   */\n      mstore\n        /* \"#utility.yul\":10484:10486   */\n      0x18\n        /* \"#utility.yul\":10464:10482   */\n      0x24\n      dup3\n      add\n        /* \"#utility.yul\":10457:10487   */\n      mstore\n        /* \"#utility.yul\":10523:10549   */\n      0x57696e6e696e677320616c726561647920636c61696d65640000000000000000\n        /* \"#utility.yul\":10503:10521   */\n      0x44\n      dup3\n      add\n        /* \"#utility.yul\":10496:10550   */\n      mstore\n        /* \"#utility.yul\":10567:10585   */\n      0x64\n      add\n        /* \"SimplePredictionMarket.sol\":3813:3880  require(!market.hasClaimed[msg.sender], \"Winnings already claimed\") */\n      tag_74\n        /* \"#utility.yul\":10243:10591   */\n      jump\n        /* \"SimplePredictionMarket.sol\":3813:3880  require(!market.hasClaimed[msg.sender], \"Winnings already claimed\") */\n    tag_121:\n        /* \"SimplePredictionMarket.sol\":3891:3909  uint256 userShares */\n      0x00\n      dup1\n      dup1\n        /* \"SimplePredictionMarket.sol\":4003:4025  MarketOutcome.OPTION_A */\n      0x01\n        /* \"SimplePredictionMarket.sol\":3985:3999  market.outcome */\n      0x02\n      dup1\n      dup7\n      add\n      sload\n      0xff\n      and\n      swap1\n        /* \"SimplePredictionMarket.sol\":3985:4025  market.outcome == MarketOutcome.OPTION_A */\n      dup2\n      gt\n      iszero\n      tag_128\n      jumpi\n      tag_128\n      tag_126\n      jump\t// in\n    tag_128:\n      sub\n        /* \"SimplePredictionMarket.sol\":3981:4633  if (market.outcome == MarketOutcome.OPTION_A) {... */\n      tag_129\n      jumpi\n      pop\n      pop\n        /* \"SimplePredictionMarket.sol\":4082:4092  msg.sender */\n      caller\n        /* \"SimplePredictionMarket.sol\":4054:4093  market.optionASharesBalance[msg.sender] */\n      0x00\n      swap1\n      dup2\n      mstore\n        /* \"SimplePredictionMarket.sol\":4054:4081  market.optionASharesBalance */\n      0x08\n      dup4\n      add\n        /* \"SimplePredictionMarket.sol\":4054:4093  market.optionASharesBalance[msg.sender] */\n      0x20\n      mstore\n      0x40\n      dup2\n      keccak256\n      dup1\n      sload\n        /* \"SimplePredictionMarket.sol\":4123:4148  market.totalOptionAShares */\n      0x05\n      dup6\n      add\n      sload\n        /* \"SimplePredictionMarket.sol\":4177:4202  market.totalOptionBShares */\n      0x06\n      dup7\n      add\n      sload\n        /* \"SimplePredictionMarket.sol\":4216:4259  market.optionASharesBalance[msg.sender] = 0 */\n      swap4\n      swap1\n      swap3\n      sstore\n        /* \"SimplePredictionMarket.sol\":4054:4093  market.optionASharesBalance[msg.sender] */\n      swap3\n      pop\n        /* \"SimplePredictionMarket.sol\":4123:4148  market.totalOptionAShares */\n      swap1\n        /* \"SimplePredictionMarket.sol\":3981:4633  if (market.outcome == MarketOutcome.OPTION_A) {... */\n      jump(tag_136)\n    tag_129:\n        /* \"SimplePredictionMarket.sol\":4298:4320  MarketOutcome.OPTION_B */\n      0x02\n        /* \"SimplePredictionMarket.sol\":4280:4294  market.outcome */\n      dup5\n      dup2\n      add\n      sload\n      0xff\n      and\n        /* \"SimplePredictionMarket.sol\":4280:4320  market.outcome == MarketOutcome.OPTION_B */\n      dup2\n      dup2\n      gt\n      iszero\n      tag_134\n      jumpi\n      tag_134\n      tag_126\n      jump\t// in\n    tag_134:\n      sub\n        /* \"SimplePredictionMarket.sol\":4276:4633  if (market.outcome == MarketOutcome.OPTION_B) {... */\n      tag_135\n      jumpi\n      pop\n      pop\n        /* \"SimplePredictionMarket.sol\":4377:4387  msg.sender */\n      caller\n        /* \"SimplePredictionMarket.sol\":4349:4388  market.optionBSharesBalance[msg.sender] */\n      0x00\n      swap1\n      dup2\n      mstore\n        /* \"SimplePredictionMarket.sol\":4349:4376  market.optionBSharesBalance */\n      0x09\n      dup4\n      add\n        /* \"SimplePredictionMarket.sol\":4349:4388  market.optionBSharesBalance[msg.sender] */\n      0x20\n      mstore\n      0x40\n      dup2\n      keccak256\n      dup1\n      sload\n        /* \"SimplePredictionMarket.sol\":4418:4443  market.totalOptionBShares */\n      0x06\n      dup6\n      add\n      sload\n        /* \"SimplePredictionMarket.sol\":4472:4497  market.totalOptionAShares */\n      0x05\n      dup7\n      add\n      sload\n        /* \"SimplePredictionMarket.sol\":4511:4554  market.optionBSharesBalance[msg.sender] = 0 */\n      swap4\n      swap1\n      swap3\n      sstore\n        /* \"SimplePredictionMarket.sol\":4349:4388  market.optionBSharesBalance[msg.sender] */\n      swap3\n      pop\n        /* \"SimplePredictionMarket.sol\":4418:4443  market.totalOptionBShares */\n      swap1\n        /* \"SimplePredictionMarket.sol\":4276:4633  if (market.outcome == MarketOutcome.OPTION_B) {... */\n      jump(tag_136)\n    tag_135:\n        /* \"SimplePredictionMarket.sol\":4585:4622  revert(\"Market outcome is not valid\") */\n      mload(0x40)\n      shl(0xe5, 0x461bcd)\n      dup2\n      mstore\n        /* \"#utility.yul\":10798:10800   */\n      0x20\n        /* \"SimplePredictionMarket.sol\":4585:4622  revert(\"Market outcome is not valid\") */\n      0x04\n      dup3\n      add\n        /* \"#utility.yul\":10780:10801   */\n      mstore\n        /* \"#utility.yul\":10837:10839   */\n      0x1b\n        /* \"#utility.yul\":10817:10835   */\n      0x24\n      dup3\n      add\n        /* \"#utility.yul\":10810:10840   */\n      mstore\n        /* \"#utility.yul\":10876:10905   */\n      0x4d61726b6574206f7574636f6d65206973206e6f742076616c69640000000000\n        /* \"#utility.yul\":10856:10874   */\n      0x44\n      dup3\n      add\n        /* \"#utility.yul\":10849:10906   */\n      mstore\n        /* \"#utility.yul\":10923:10941   */\n      0x64\n      add\n        /* \"SimplePredictionMarket.sol\":4585:4622  revert(\"Market outcome is not valid\") */\n      tag_74\n        /* \"#utility.yul\":10596:10947   */\n      jump\n        /* \"SimplePredictionMarket.sol\":4276:4633  if (market.outcome == MarketOutcome.OPTION_B) {... */\n    tag_136:\n        /* \"SimplePredictionMarket.sol\":4664:4665  0 */\n      0x00\n        /* \"SimplePredictionMarket.sol\":4651:4661  userShares */\n      dup4\n        /* \"SimplePredictionMarket.sol\":4651:4665  userShares > 0 */\n      gt\n        /* \"SimplePredictionMarket.sol\":4643:4690  require(userShares > 0, \"No winnings to claim\") */\n      tag_139\n      jumpi\n      mload(0x40)\n      shl(0xe5, 0x461bcd)\n      dup2\n      mstore\n        /* \"#utility.yul\":11154:11156   */\n      0x20\n        /* \"SimplePredictionMarket.sol\":4643:4690  require(userShares > 0, \"No winnings to claim\") */\n      0x04\n      dup3\n      add\n        /* \"#utility.yul\":11136:11157   */\n      mstore\n        /* \"#utility.yul\":11193:11195   */\n      0x14\n        /* \"#utility.yul\":11173:11191   */\n      0x24\n      dup3\n      add\n        /* \"#utility.yul\":11166:11196   */\n      mstore\n        /* \"#utility.yul\":11232:11254   */\n      0x4e6f2077696e6e696e677320746f20636c61696d000000000000000000000000\n        /* \"#utility.yul\":11212:11230   */\n      0x44\n      dup3\n      add\n        /* \"#utility.yul\":11205:11255   */\n      mstore\n        /* \"#utility.yul\":11272:11290   */\n      0x64\n      add\n        /* \"SimplePredictionMarket.sol\":4643:4690  require(userShares > 0, \"No winnings to claim\") */\n      tag_74\n        /* \"#utility.yul\":10952:11296   */\n      jump\n        /* \"SimplePredictionMarket.sol\":4643:4690  require(userShares > 0, \"No winnings to claim\") */\n    tag_139:\n        /* \"SimplePredictionMarket.sol\":4701:4720  uint256 rewardRatio */\n      0x00\n        /* \"SimplePredictionMarket.sol\":4747:4760  winningShares */\n      dup3\n        /* \"SimplePredictionMarket.sol\":4724:4743  losingShares * 1e18 */\n      tag_142\n        /* \"SimplePredictionMarket.sol\":4724:4736  losingShares */\n      dup4\n        /* \"SimplePredictionMarket.sol\":4739:4743  1e18 */\n      0x0de0b6b3a7640000\n        /* \"SimplePredictionMarket.sol\":4724:4743  losingShares * 1e18 */\n      tag_143\n      jump\t// in\n    tag_142:\n        /* \"SimplePredictionMarket.sol\":4723:4760  (losingShares * 1e18) / winningShares */\n      tag_144\n      swap2\n      swap1\n      tag_145\n      jump\t// in\n    tag_144:\n        /* \"SimplePredictionMarket.sol\":4701:4760  uint256 rewardRatio = (losingShares * 1e18) / winningShares */\n      swap1\n      pop\n        /* \"SimplePredictionMarket.sol\":4770:4786  uint256 winnings */\n      0x00\n        /* \"SimplePredictionMarket.sol\":4831:4835  1e18 */\n      0x0de0b6b3a7640000\n        /* \"SimplePredictionMarket.sol\":4803:4827  userShares * rewardRatio */\n      tag_146\n        /* \"SimplePredictionMarket.sol\":4701:4760  uint256 rewardRatio = (losingShares * 1e18) / winningShares */\n      dup4\n        /* \"SimplePredictionMarket.sol\":4803:4813  userShares */\n      dup8\n        /* \"SimplePredictionMarket.sol\":4803:4827  userShares * rewardRatio */\n      tag_143\n      jump\t// in\n    tag_146:\n        /* \"SimplePredictionMarket.sol\":4802:4835  (userShares * rewardRatio) / 1e18 */\n      tag_147\n      swap2\n      swap1\n      tag_145\n      jump\t// in\n    tag_147:\n        /* \"SimplePredictionMarket.sol\":4789:4835  userShares + (userShares * rewardRatio) / 1e18 */\n      tag_148\n      swap1\n        /* \"SimplePredictionMarket.sol\":4789:4799  userShares */\n      dup7\n        /* \"SimplePredictionMarket.sol\":4789:4835  userShares + (userShares * rewardRatio) / 1e18 */\n      tag_93\n      jump\t// in\n    tag_148:\n        /* \"SimplePredictionMarket.sol\":4854:4866  bettingToken */\n      sload(0x02)\n        /* \"SimplePredictionMarket.sol\":4854:4897  bettingToken.transfer(msg.sender, winnings) */\n      mload(0x40)\n      shl(0xe0, 0xa9059cbb)\n      dup2\n      mstore\n        /* \"SimplePredictionMarket.sol\":4876:4886  msg.sender */\n      caller\n        /* \"SimplePredictionMarket.sol\":4854:4897  bettingToken.transfer(msg.sender, winnings) */\n      0x04\n      dup3\n      add\n        /* \"#utility.yul\":11870:11944   */\n      mstore\n        /* \"#utility.yul\":11960:11978   */\n      0x24\n      dup2\n      add\n        /* \"#utility.yul\":11953:11987   */\n      dup4\n      swap1\n      mstore\n        /* \"SimplePredictionMarket.sol\":4770:4835  uint256 winnings = userShares + (userShares * rewardRatio) / 1e18 */\n      swap2\n      swap3\n      pop\n      sub(shl(0xa0, 0x01), 0x01)\n        /* \"SimplePredictionMarket.sol\":4854:4866  bettingToken */\n      and\n      swap1\n        /* \"SimplePredictionMarket.sol\":4854:4875  bettingToken.transfer */\n      0xa9059cbb\n      swap1\n        /* \"#utility.yul\":11843:11861   */\n      0x44\n      add\n        /* \"SimplePredictionMarket.sol\":4854:4897  bettingToken.transfer(msg.sender, winnings) */\n      0x20\n      mload(0x40)\n      dup1\n      dup4\n      sub\n      dup2\n      0x00\n      dup8\n      gas\n      call\n      iszero\n      dup1\n      iszero\n      tag_152\n      jumpi\n      returndatasize\n      0x00\n      dup1\n      returndatacopy\n      revert(0x00, returndatasize)\n    tag_152:\n      pop\n      pop\n      pop\n      pop\n      mload(0x40)\n      returndatasize\n      not(0x1f)\n      0x1f\n      dup3\n      add\n      and\n      dup3\n      add\n      dup1\n      0x40\n      mstore\n      pop\n      dup2\n      add\n      swap1\n      tag_153\n      swap2\n      swap1\n      tag_87\n      jump\t// in\n    tag_153:\n        /* \"SimplePredictionMarket.sol\":4846:4923  require(bettingToken.transfer(msg.sender, winnings), \"Token transfer failed\") */\n      tag_154\n      jumpi\n      mload(0x40)\n      shl(0xe5, 0x461bcd)\n      dup2\n      mstore\n        /* \"#utility.yul\":8833:8835   */\n      0x20\n        /* \"SimplePredictionMarket.sol\":4846:4923  require(bettingToken.transfer(msg.sender, winnings), \"Token transfer failed\") */\n      0x04\n      dup3\n      add\n        /* \"#utility.yul\":8815:8836   */\n      mstore\n        /* \"#utility.yul\":8872:8874   */\n      0x15\n        /* \"#utility.yul\":8852:8870   */\n      0x24\n      dup3\n      add\n        /* \"#utility.yul\":8845:8875   */\n      mstore\n        /* \"#utility.yul\":8911:8934   */\n      0x546f6b656e207472616e73666572206661696c65640000000000000000000000\n        /* \"#utility.yul\":8891:8909   */\n      0x44\n      dup3\n      add\n        /* \"#utility.yul\":8884:8935   */\n      mstore\n        /* \"#utility.yul\":8952:8970   */\n      0x64\n      add\n        /* \"SimplePredictionMarket.sol\":4846:4923  require(bettingToken.transfer(msg.sender, winnings), \"Token transfer failed\") */\n      tag_74\n        /* \"#utility.yul\":8631:8976   */\n      jump\n        /* \"SimplePredictionMarket.sol\":4846:4923  require(bettingToken.transfer(msg.sender, winnings), \"Token transfer failed\") */\n    tag_154:\n        /* \"SimplePredictionMarket.sol\":4952:4962  msg.sender */\n      caller\n        /* \"SimplePredictionMarket.sol\":4934:4963  market.hasClaimed[msg.sender] */\n      0x00\n      dup2\n      dup2\n      mstore\n        /* \"SimplePredictionMarket.sol\":4934:4951  market.hasClaimed */\n      0x0a\n      dup9\n      add\n        /* \"SimplePredictionMarket.sol\":4934:4963  market.hasClaimed[msg.sender] */\n      0x20\n      mstore\n      0x40\n      swap1\n      dup2\n      swap1\n      keccak256\n        /* \"SimplePredictionMarket.sol\":4934:4970  market.hasClaimed[msg.sender] = true */\n      dup1\n      sload\n      not(0xff)\n      and\n        /* \"SimplePredictionMarket.sol\":4966:4970  true */\n      0x01\n        /* \"SimplePredictionMarket.sol\":4934:4970  market.hasClaimed[msg.sender] = true */\n      or\n      swap1\n      sstore\n        /* \"SimplePredictionMarket.sol\":4985:5025  Claimed(_marketId, msg.sender, winnings) */\n      mload\n        /* \"SimplePredictionMarket.sol\":4993:5002  _marketId */\n      dup9\n      swap1\n        /* \"SimplePredictionMarket.sol\":4985:5025  Claimed(_marketId, msg.sender, winnings) */\n      0x4ec90e965519d92681267467f775ada5bd214aa92c0dc93d90a5e880ce9ed026\n      swap1\n      tag_156\n      swap1\n        /* \"SimplePredictionMarket.sol\":5016:5024  winnings */\n      dup6\n        /* \"#utility.yul\":4811:4836   */\n      dup2\n      mstore\n        /* \"#utility.yul\":4799:4801   */\n      0x20\n        /* \"#utility.yul\":4784:4802   */\n      add\n      swap1\n        /* \"#utility.yul\":4665:4842   */\n      jump\n        /* \"SimplePredictionMarket.sol\":4985:5025  Claimed(_marketId, msg.sender, winnings) */\n    tag_156:\n      mload(0x40)\n      dup1\n      swap2\n      sub\n      swap1\n      log3\n        /* \"SimplePredictionMarket.sol\":3690:5032  {... */\n      pop\n      pop\n      pop\n      pop\n      pop\n      pop\n        /* \"SimplePredictionMarket.sol\":3639:5032  function claimWinnings(uint256 _marketId) external {... */\n      pop\n      jump\t// out\n        /* \"SimplePredictionMarket.sol\":1580:2335  function createMarket(string memory _question, string memory _optionA, string memory _optionB, uint256 _duration) external onlyOwner returns (uint256) {... */\n    tag_41:\n        /* \"SimplePredictionMarket.sol\":1722:1729  uint256 */\n      0x00\n        /* \"@thirdweb-dev/contracts/extension/Ownable.sol\":822:828   */\n      dup1\n      sload\n      sub(shl(0xa0, 0x01), 0x01)\n      and\n        /* \"@thirdweb-dev/contracts/extension/Ownable.sol\":808:818   */\n      caller\n        /* \"@thirdweb-dev/contracts/extension/Ownable.sol\":808:828   */\n      eq\n        /* \"@thirdweb-dev/contracts/extension/Ownable.sol\":804:883   */\n      tag_158\n      jumpi\n        /* \"@thirdweb-dev/contracts/extension/Ownable.sol\":851:872   */\n      mload(0x40)\n      shl(0xe1, 0x16ccb9cb)\n      dup2\n      mstore\n      0x04\n      add\n      mload(0x40)\n      dup1\n      swap2\n      sub\n      swap1\n      revert\n        /* \"@thirdweb-dev/contracts/extension/Ownable.sol\":804:883   */\n    tag_158:\n        /* \"SimplePredictionMarket.sol\":1761:1762  0 */\n      0x00\n        /* \"SimplePredictionMarket.sol\":1749:1758  _duration */\n      dup3\n        /* \"SimplePredictionMarket.sol\":1749:1762  _duration > 0 */\n      gt\n        /* \"SimplePredictionMarket.sol\":1741:1792  require(_duration > 0, \"Duration must be positive\") */\n      tag_160\n      jumpi\n      mload(0x40)\n      shl(0xe5, 0x461bcd)\n      dup2\n      mstore\n        /* \"#utility.yul\":12200:12202   */\n      0x20\n        /* \"SimplePredictionMarket.sol\":1741:1792  require(_duration > 0, \"Duration must be positive\") */\n      0x04\n      dup3\n      add\n        /* \"#utility.yul\":12182:12203   */\n      mstore\n        /* \"#utility.yul\":12239:12241   */\n      0x19\n        /* \"#utility.yul\":12219:12237   */\n      0x24\n      dup3\n      add\n        /* \"#utility.yul\":12212:12242   */\n      mstore\n        /* \"#utility.yul\":12278:12305   */\n      0x4475726174696f6e206d75737420626520706f73697469766500000000000000\n        /* \"#utility.yul\":12258:12276   */\n      0x44\n      dup3\n      add\n        /* \"#utility.yul\":12251:12306   */\n      mstore\n        /* \"#utility.yul\":12323:12341   */\n      0x64\n      add\n        /* \"SimplePredictionMarket.sol\":1741:1792  require(_duration > 0, \"Duration must be positive\") */\n      tag_74\n        /* \"#utility.yul\":11998:12347   */\n      jump\n        /* \"SimplePredictionMarket.sol\":1741:1792  require(_duration > 0, \"Duration must be positive\") */\n    tag_160:\n        /* \"SimplePredictionMarket.sol\":1835:1836  0 */\n      0x00\n        /* \"SimplePredictionMarket.sol\":1816:1824  _optionA */\n      dup5\n        /* \"SimplePredictionMarket.sol\":1810:1832  bytes(_optionA).length */\n      mload\n        /* \"SimplePredictionMarket.sol\":1810:1836  bytes(_optionA).length > 0 */\n      gt\n        /* \"SimplePredictionMarket.sol\":1810:1866  bytes(_optionA).length > 0 && bytes(_optionB).length > 0 */\n      dup1\n      iszero\n      tag_163\n      jumpi\n      pop\n        /* \"SimplePredictionMarket.sol\":1865:1866  0 */\n      0x00\n        /* \"SimplePredictionMarket.sol\":1846:1854  _optionB */\n      dup4\n        /* \"SimplePredictionMarket.sol\":1840:1862  bytes(_optionB).length */\n      mload\n        /* \"SimplePredictionMarket.sol\":1840:1866  bytes(_optionB).length > 0 */\n      gt\n        /* \"SimplePredictionMarket.sol\":1810:1866  bytes(_optionA).length > 0 && bytes(_optionB).length > 0 */\n    tag_163:\n        /* \"SimplePredictionMarket.sol\":1802:1894  require(bytes(_optionA).length > 0 && bytes(_optionB).length > 0, \"Options cannot be empty\") */\n      tag_164\n      jumpi\n      mload(0x40)\n      shl(0xe5, 0x461bcd)\n      dup2\n      mstore\n        /* \"#utility.yul\":12554:12556   */\n      0x20\n        /* \"SimplePredictionMarket.sol\":1802:1894  require(bytes(_optionA).length > 0 && bytes(_optionB).length > 0, \"Options cannot be empty\") */\n      0x04\n      dup3\n      add\n        /* \"#utility.yul\":12536:12557   */\n      mstore\n        /* \"#utility.yul\":12593:12595   */\n      0x17\n        /* \"#utility.yul\":12573:12591   */\n      0x24\n      dup3\n      add\n        /* \"#utility.yul\":12566:12596   */\n      mstore\n        /* \"#utility.yul\":12632:12657   */\n      0x4f7074696f6e732063616e6e6f7420626520656d707479000000000000000000\n        /* \"#utility.yul\":12612:12630   */\n      0x44\n      dup3\n      add\n        /* \"#utility.yul\":12605:12658   */\n      mstore\n        /* \"#utility.yul\":12675:12693   */\n      0x64\n      add\n        /* \"SimplePredictionMarket.sol\":1802:1894  require(bytes(_optionA).length > 0 && bytes(_optionB).length > 0, \"Options cannot be empty\") */\n      tag_74\n        /* \"#utility.yul\":12352:12699   */\n      jump\n        /* \"SimplePredictionMarket.sol\":1802:1894  require(bytes(_optionA).length > 0 && bytes(_optionB).length > 0, \"Options cannot be empty\") */\n    tag_164:\n        /* \"SimplePredictionMarket.sol\":1932:1943  marketCount */\n      0x03\n        /* \"SimplePredictionMarket.sol\":1932:1945  marketCount++ */\n      dup1\n      sload\n        /* \"SimplePredictionMarket.sol\":1913:1929  uint256 marketId */\n      0x00\n      swap2\n      dup3\n        /* \"SimplePredictionMarket.sol\":1932:1945  marketCount++ */\n      tag_167\n      dup4\n      tag_168\n      jump\t// in\n    tag_167:\n      swap1\n      swap2\n      sstore\n      pop\n        /* \"SimplePredictionMarket.sol\":1955:1976  Market storage market */\n      0x00\n        /* \"SimplePredictionMarket.sol\":1979:1996  markets[marketId] */\n      dup2\n      dup2\n      mstore\n        /* \"SimplePredictionMarket.sol\":1979:1986  markets */\n      0x04\n        /* \"SimplePredictionMarket.sol\":1979:1996  markets[marketId] */\n      0x20\n      mstore\n      0x40\n      swap1\n      keccak256\n        /* \"SimplePredictionMarket.sol\":1913:1945  uint256 marketId = marketCount++ */\n      swap1\n      swap2\n      pop\n        /* \"SimplePredictionMarket.sol\":1979:1996  markets[marketId] */\n      dup1\n        /* \"SimplePredictionMarket.sol\":2007:2034  market.question = _question */\n      tag_169\n        /* \"SimplePredictionMarket.sol\":2025:2034  _question */\n      dup9\n        /* \"SimplePredictionMarket.sol\":1979:1996  markets[marketId] */\n      dup3\n        /* \"SimplePredictionMarket.sol\":2007:2034  market.question = _question */\n      tag_170\n      jump\t// in\n    tag_169:\n      pop\n        /* \"SimplePredictionMarket.sol\":2044:2058  market.optionA */\n      0x03\n      dup2\n      add\n        /* \"SimplePredictionMarket.sol\":2044:2069  market.optionA = _optionA */\n      tag_171\n        /* \"SimplePredictionMarket.sol\":2061:2069  _optionA */\n      dup8\n        /* \"SimplePredictionMarket.sol\":2044:2058  market.optionA */\n      dup3\n        /* \"SimplePredictionMarket.sol\":2044:2069  market.optionA = _optionA */\n      tag_170\n      jump\t// in\n    tag_171:\n      pop\n        /* \"SimplePredictionMarket.sol\":2079:2093  market.optionB */\n      0x04\n      dup2\n      add\n        /* \"SimplePredictionMarket.sol\":2079:2104  market.optionB = _optionB */\n      tag_172\n        /* \"SimplePredictionMarket.sol\":2096:2104  _optionB */\n      dup7\n        /* \"SimplePredictionMarket.sol\":2079:2093  market.optionB */\n      dup3\n        /* \"SimplePredictionMarket.sol\":2079:2104  market.optionB = _optionB */\n      tag_170\n      jump\t// in\n    tag_172:\n      pop\n        /* \"SimplePredictionMarket.sol\":2131:2158  block.timestamp + _duration */\n      tag_173\n        /* \"SimplePredictionMarket.sol\":2149:2158  _duration */\n      dup5\n        /* \"SimplePredictionMarket.sol\":2131:2146  block.timestamp */\n      timestamp\n        /* \"SimplePredictionMarket.sol\":2131:2158  block.timestamp + _duration */\n      tag_93\n      jump\t// in\n    tag_173:\n        /* \"SimplePredictionMarket.sol\":2114:2128  market.endTime */\n      0x01\n      dup3\n      add\n        /* \"SimplePredictionMarket.sol\":2114:2158  market.endTime = block.timestamp + _duration */\n      dup2\n      swap1\n      sstore\n        /* \"SimplePredictionMarket.sol\":2168:2182  market.outcome */\n      0x02\n      dup3\n      add\n        /* \"SimplePredictionMarket.sol\":2168:2209  market.outcome = MarketOutcome.UNRESOLVED */\n      dup1\n      sload\n      not(0xff)\n      and\n      swap1\n      sstore\n        /* \"SimplePredictionMarket.sol\":2233:2303  MarketCreated(marketId, _question, _optionA, _optionB, market.endTime) */\n      mload(0x40)\n        /* \"SimplePredictionMarket.sol\":2247:2255  marketId */\n      dup4\n      swap2\n        /* \"SimplePredictionMarket.sol\":2233:2303  MarketCreated(marketId, _question, _optionA, _optionB, market.endTime) */\n      0xa2d123850430ad736c7d9b724e8f4ac57a15f478145540d7d4f9e01af14147f6\n      swap2\n      tag_176\n      swap2\n        /* \"SimplePredictionMarket.sol\":2257:2266  _question */\n      dup12\n      swap2\n        /* \"SimplePredictionMarket.sol\":2268:2276  _optionA */\n      dup12\n      swap2\n        /* \"SimplePredictionMarket.sol\":2278:2286  _optionB */\n      dup12\n      swap2\n        /* \"SimplePredictionMarket.sol\":2233:2303  MarketCreated(marketId, _question, _optionA, _optionB, market.endTime) */\n      tag_177\n      jump\t// in\n    tag_176:\n      mload(0x40)\n      dup1\n      swap2\n      sub\n      swap1\n      log2\n      pop\n        /* \"SimplePredictionMarket.sol\":2320:2328  marketId */\n      swap6\n        /* \"SimplePredictionMarket.sol\":1580:2335  function createMarket(string memory _question, string memory _optionA, string memory _optionB, uint256 _duration) external onlyOwner returns (uint256) {... */\n      swap5\n      pop\n      pop\n      pop\n      pop\n      pop\n      jump\t// out\n        /* \"SimplePredictionMarket.sol\":900:941  mapping(uint256 => Market) public markets */\n    tag_56:\n      mstore(0x20, 0x04)\n      0x00\n      swap1\n      dup2\n      mstore\n      0x40\n      swap1\n      keccak256\n      dup1\n      sload\n      dup2\n      swap1\n      tag_180\n      swap1\n      tag_102\n      jump\t// in\n    tag_180:\n      dup1\n      0x1f\n      add\n      0x20\n      dup1\n      swap2\n      div\n      mul\n      0x20\n      add\n      mload(0x40)\n      swap1\n      dup2\n      add\n      0x40\n      mstore\n      dup1\n      swap3\n      swap2\n      swap1\n      dup2\n      dup2\n      mstore\n      0x20\n      add\n      dup3\n      dup1\n      sload\n      tag_181\n      swap1\n      tag_102\n      jump\t// in\n    tag_181:\n      dup1\n      iszero\n      tag_182\n      jumpi\n      dup1\n      0x1f\n      lt\n      tag_183\n      jumpi\n      0x0100\n      dup1\n      dup4\n      sload\n      div\n      mul\n      dup4\n      mstore\n      swap2\n      0x20\n      add\n      swap2\n      jump(tag_182)\n    tag_183:\n      dup3\n      add\n      swap2\n      swap1\n      0x00\n      mstore\n      keccak256(0x00, 0x20)\n      swap1\n    tag_184:\n      dup2\n      sload\n      dup2\n      mstore\n      swap1\n      0x01\n      add\n      swap1\n      0x20\n      add\n      dup1\n      dup4\n      gt\n      tag_184\n      jumpi\n      dup3\n      swap1\n      sub\n      0x1f\n      and\n      dup3\n      add\n      swap2\n    tag_182:\n      pop\n      pop\n      pop\n      pop\n      0x01\n      dup4\n      add\n      sload\n      0x02\n      dup5\n      add\n      sload\n      0x03\n      dup6\n      add\n      dup1\n      sload\n      swap5\n      swap6\n      swap3\n      swap5\n      0xff\n      swap1\n      swap3\n      and\n      swap4\n      pop\n      swap1\n      tag_185\n      swap1\n      tag_102\n      jump\t// in\n    tag_185:\n      dup1\n      0x1f\n      add\n      0x20\n      dup1\n      swap2\n      div\n      mul\n      0x20\n      add\n      mload(0x40)\n      swap1\n      dup2\n      add\n      0x40\n      mstore\n      dup1\n      swap3\n      swap2\n      swap1\n      dup2\n      dup2\n      mstore\n      0x20\n      add\n      dup3\n      dup1\n      sload\n      tag_186\n      swap1\n      tag_102\n      jump\t// in\n    tag_186:\n      dup1\n      iszero\n      tag_187\n      jumpi\n      dup1\n      0x1f\n      lt\n      tag_188\n      jumpi\n      0x0100\n      dup1\n      dup4\n      sload\n      div\n      mul\n      dup4\n      mstore\n      swap2\n      0x20\n      add\n      swap2\n      jump(tag_187)\n    tag_188:\n      dup3\n      add\n      swap2\n      swap1\n      0x00\n      mstore\n      keccak256(0x00, 0x20)\n      swap1\n    tag_189:\n      dup2\n      sload\n      dup2\n      mstore\n      swap1\n      0x01\n      add\n      swap1\n      0x20\n      add\n      dup1\n      dup4\n      gt\n      tag_189\n      jumpi\n      dup3\n      swap1\n      sub\n      0x1f\n      and\n      dup3\n      add\n      swap2\n    tag_187:\n      pop\n      pop\n      pop\n      pop\n      pop\n      swap1\n      dup1\n      0x04\n      add\n      dup1\n      sload\n      tag_190\n      swap1\n      tag_102\n      jump\t// in\n    tag_190:\n      dup1\n      0x1f\n      add\n      0x20\n      dup1\n      swap2\n      div\n      mul\n      0x20\n      add\n      mload(0x40)\n      swap1\n      dup2\n      add\n      0x40\n      mstore\n      dup1\n      swap3\n      swap2\n      swap1\n      dup2\n      dup2\n      mstore\n      0x20\n      add\n      dup3\n      dup1\n      sload\n      tag_191\n      swap1\n      tag_102\n      jump\t// in\n    tag_191:\n      dup1\n      iszero\n      tag_192\n      jumpi\n      dup1\n      0x1f\n      lt\n      tag_193\n      jumpi\n      0x0100\n      dup1\n      dup4\n      sload\n      div\n      mul\n      dup4\n      mstore\n      swap2\n      0x20\n      add\n      swap2\n      jump(tag_192)\n    tag_193:\n      dup3\n      add\n      swap2\n      swap1\n      0x00\n      mstore\n      keccak256(0x00, 0x20)\n      swap1\n    tag_194:\n      dup2\n      sload\n      dup2\n      mstore\n      swap1\n      0x01\n      add\n      swap1\n      0x20\n      add\n      dup1\n      dup4\n      gt\n      tag_194\n      jumpi\n      dup3\n      swap1\n      sub\n      0x1f\n      and\n      dup3\n      add\n      swap2\n    tag_192:\n      pop\n      pop\n      pop\n      pop\n      0x05\n      dup4\n      add\n      sload\n      0x06\n      dup5\n      add\n      sload\n      0x07\n      swap1\n      swap5\n      add\n      sload\n      swap3\n      swap4\n      swap1\n      swap3\n      swap1\n      swap2\n      pop\n      0xff\n      and\n      dup9\n      jump\t// out\n        /* \"SimplePredictionMarket.sol\":3155:3633  function resolveMarket(uint256 _marketId, MarketOutcome _outcome) external onlyOwner {... */\n    tag_62:\n        /* \"@thirdweb-dev/contracts/extension/Ownable.sol\":822:828   */\n      and(sub(shl(0xa0, 0x01), 0x01), sload(0x00))\n        /* \"@thirdweb-dev/contracts/extension/Ownable.sol\":808:818   */\n      caller\n        /* \"@thirdweb-dev/contracts/extension/Ownable.sol\":808:828   */\n      eq\n        /* \"@thirdweb-dev/contracts/extension/Ownable.sol\":804:883   */\n      tag_196\n      jumpi\n        /* \"@thirdweb-dev/contracts/extension/Ownable.sol\":851:872   */\n      mload(0x40)\n      shl(0xe1, 0x16ccb9cb)\n      dup2\n      mstore\n      0x04\n      add\n      mload(0x40)\n      dup1\n      swap2\n      sub\n      swap1\n      revert\n        /* \"@thirdweb-dev/contracts/extension/Ownable.sol\":804:883   */\n    tag_196:\n        /* \"SimplePredictionMarket.sol\":3250:3271  Market storage market */\n      0x00\n        /* \"SimplePredictionMarket.sol\":3274:3292  markets[_marketId] */\n      dup3\n      dup2\n      mstore\n        /* \"SimplePredictionMarket.sol\":3274:3281  markets */\n      0x04\n        /* \"SimplePredictionMarket.sol\":3274:3292  markets[_marketId] */\n      0x20\n      mstore\n      0x40\n      swap1\n      keccak256\n        /* \"SimplePredictionMarket.sol\":3329:3343  market.endTime */\n      0x01\n      dup2\n      add\n      sload\n        /* \"SimplePredictionMarket.sol\":3310:3325  block.timestamp */\n      timestamp\n        /* \"SimplePredictionMarket.sol\":3310:3343  block.timestamp >= market.endTime */\n      lt\n      iszero\n        /* \"SimplePredictionMarket.sol\":3302:3371  require(block.timestamp >= market.endTime, \"Market hasn't ended yet\") */\n      tag_198\n      jumpi\n      mload(0x40)\n      shl(0xe5, 0x461bcd)\n      dup2\n      mstore\n        /* \"#utility.yul\":15840:15842   */\n      0x20\n        /* \"SimplePredictionMarket.sol\":3302:3371  require(block.timestamp >= market.endTime, \"Market hasn't ended yet\") */\n      0x04\n      dup3\n      add\n        /* \"#utility.yul\":15822:15843   */\n      mstore\n        /* \"#utility.yul\":15879:15881   */\n      0x17\n        /* \"#utility.yul\":15859:15877   */\n      0x24\n      dup3\n      add\n        /* \"#utility.yul\":15852:15882   */\n      mstore\n        /* \"#utility.yul\":15918:15943   */\n      0x4d61726b6574206861736e277420656e64656420796574000000000000000000\n        /* \"#utility.yul\":15898:15916   */\n      0x44\n      dup3\n      add\n        /* \"#utility.yul\":15891:15944   */\n      mstore\n        /* \"#utility.yul\":15961:15979   */\n      0x64\n      add\n        /* \"SimplePredictionMarket.sol\":3302:3371  require(block.timestamp >= market.endTime, \"Market hasn't ended yet\") */\n      tag_74\n        /* \"#utility.yul\":15638:15985   */\n      jump\n        /* \"SimplePredictionMarket.sol\":3302:3371  require(block.timestamp >= market.endTime, \"Market hasn't ended yet\") */\n    tag_198:\n        /* \"SimplePredictionMarket.sol\":3390:3405  market.resolved */\n      0x07\n      dup2\n      add\n      sload\n      0xff\n      and\n        /* \"SimplePredictionMarket.sol\":3389:3405  !market.resolved */\n      iszero\n        /* \"SimplePredictionMarket.sol\":3381:3433  require(!market.resolved, \"Market already resolved\") */\n      tag_201\n      jumpi\n      mload(0x40)\n      shl(0xe5, 0x461bcd)\n      dup2\n      mstore\n        /* \"#utility.yul\":7476:7478   */\n      0x20\n        /* \"SimplePredictionMarket.sol\":3381:3433  require(!market.resolved, \"Market already resolved\") */\n      0x04\n      dup3\n      add\n        /* \"#utility.yul\":7458:7479   */\n      mstore\n        /* \"#utility.yul\":7515:7517   */\n      0x17\n        /* \"#utility.yul\":7495:7513   */\n      0x24\n      dup3\n      add\n        /* \"#utility.yul\":7488:7518   */\n      mstore\n        /* \"#utility.yul\":7554:7579   */\n      0x4d61726b657420616c7265616479207265736f6c766564000000000000000000\n        /* \"#utility.yul\":7534:7552   */\n      0x44\n      dup3\n      add\n        /* \"#utility.yul\":7527:7580   */\n      mstore\n        /* \"#utility.yul\":7597:7615   */\n      0x64\n      add\n        /* \"SimplePredictionMarket.sol\":3381:3433  require(!market.resolved, \"Market already resolved\") */\n      tag_74\n        /* \"#utility.yul\":7274:7621   */\n      jump\n        /* \"SimplePredictionMarket.sol\":3381:3433  require(!market.resolved, \"Market already resolved\") */\n    tag_201:\n        /* \"SimplePredictionMarket.sol\":3463:3487  MarketOutcome.UNRESOLVED */\n      0x00\n        /* \"SimplePredictionMarket.sol\":3451:3459  _outcome */\n      dup3\n        /* \"SimplePredictionMarket.sol\":3451:3487  _outcome != MarketOutcome.UNRESOLVED */\n      0x02\n      dup2\n      gt\n      iszero\n      tag_206\n      jumpi\n      tag_206\n      tag_126\n      jump\t// in\n    tag_206:\n      sub\n        /* \"SimplePredictionMarket.sol\":3443:3507  require(_outcome != MarketOutcome.UNRESOLVED, \"Invalid outcome\") */\n      tag_207\n      jumpi\n      mload(0x40)\n      shl(0xe5, 0x461bcd)\n      dup2\n      mstore\n        /* \"#utility.yul\":16192:16194   */\n      0x20\n        /* \"SimplePredictionMarket.sol\":3443:3507  require(_outcome != MarketOutcome.UNRESOLVED, \"Invalid outcome\") */\n      0x04\n      dup3\n      add\n        /* \"#utility.yul\":16174:16195   */\n      mstore\n        /* \"#utility.yul\":16231:16233   */\n      0x0f\n        /* \"#utility.yul\":16211:16229   */\n      0x24\n      dup3\n      add\n        /* \"#utility.yul\":16204:16234   */\n      mstore\n        /* \"#utility.yul\":16270:16287   */\n      0x496e76616c6964206f7574636f6d650000000000000000000000000000000000\n        /* \"#utility.yul\":16250:16268   */\n      0x44\n      dup3\n      add\n        /* \"#utility.yul\":16243:16288   */\n      mstore\n        /* \"#utility.yul\":16305:16323   */\n      0x64\n      add\n        /* \"SimplePredictionMarket.sol\":3443:3507  require(_outcome != MarketOutcome.UNRESOLVED, \"Invalid outcome\") */\n      tag_74\n        /* \"#utility.yul\":15990:16329   */\n      jump\n        /* \"SimplePredictionMarket.sol\":3443:3507  require(_outcome != MarketOutcome.UNRESOLVED, \"Invalid outcome\") */\n    tag_207:\n        /* \"SimplePredictionMarket.sol\":3535:3543  _outcome */\n      dup2\n        /* \"SimplePredictionMarket.sol\":3518:3524  market */\n      dup2\n        /* \"SimplePredictionMarket.sol\":3518:3532  market.outcome */\n      0x02\n      add\n      0x00\n        /* \"SimplePredictionMarket.sol\":3518:3543  market.outcome = _outcome */\n      0x0100\n      exp\n      dup2\n      sload\n      dup2\n      0xff\n      mul\n      not\n      and\n      swap1\n      dup4\n      0x02\n      dup2\n      gt\n      iszero\n      tag_211\n      jumpi\n      tag_211\n      tag_126\n      jump\t// in\n    tag_211:\n      mul\n      or\n      swap1\n      sstore\n      pop\n        /* \"SimplePredictionMarket.sol\":3553:3568  market.resolved */\n      0x07\n      dup2\n      add\n        /* \"SimplePredictionMarket.sol\":3553:3575  market.resolved = true */\n      dup1\n      sload\n      not(0xff)\n      and\n        /* \"SimplePredictionMarket.sol\":3571:3575  true */\n      0x01\n        /* \"SimplePredictionMarket.sol\":3553:3575  market.resolved = true */\n      or\n      swap1\n      sstore\n        /* \"SimplePredictionMarket.sol\":3591:3626  MarketResolved(_marketId, _outcome) */\n      mload(0x40)\n        /* \"SimplePredictionMarket.sol\":3606:3615  _marketId */\n      dup4\n      swap1\n        /* \"SimplePredictionMarket.sol\":3591:3626  MarketResolved(_marketId, _outcome) */\n      0x739f283563fb51ab6b89ee95d937b2e63a6cfcb83c385dbebb629f9d97bd43e6\n      swap1\n      tag_212\n      swap1\n        /* \"SimplePredictionMarket.sol\":3617:3625  _outcome */\n      dup6\n      swap1\n        /* \"SimplePredictionMarket.sol\":3591:3626  MarketResolved(_marketId, _outcome) */\n      tag_213\n      jump\t// in\n    tag_212:\n      mload(0x40)\n      dup1\n      swap2\n      sub\n      swap1\n      log2\n        /* \"SimplePredictionMarket.sol\":3240:3633  {... */\n      pop\n        /* \"SimplePredictionMarket.sol\":3155:3633  function resolveMarket(uint256 _marketId, MarketOutcome _outcome) external onlyOwner {... */\n      pop\n      pop\n      jump\t// out\n        /* \"@thirdweb-dev/contracts/extension/Ownable.sol\":1527:1699   */\n    tag_71:\n        /* \"@thirdweb-dev/contracts/extension/Ownable.sol\":1586:1604   */\n      0x00\n        /* \"@thirdweb-dev/contracts/extension/Ownable.sol\":1607:1613   */\n      dup1\n      sload\n      sub(shl(0xa0, 0x01), 0x01)\n        /* \"@thirdweb-dev/contracts/extension/Ownable.sol\":1623:1641   */\n      dup4\n      dup2\n      and\n      0xffffffffffffffffffffffff0000000000000000000000000000000000000000\n      dup4\n      and\n      dup2\n      or\n      dup5\n      sstore\n        /* \"@thirdweb-dev/contracts/extension/Ownable.sol\":1657:1692   */\n      mload(0x40)\n        /* \"@thirdweb-dev/contracts/extension/Ownable.sol\":1607:1613   */\n      swap2\n      swap1\n      swap3\n      and\n      swap3\n      dup4\n      swap2\n        /* \"@thirdweb-dev/contracts/extension/Ownable.sol\":1657:1692   */\n      0x8292fce18fa69edf4db7b94ea2e58241df0ae57f97e0a6c9b29067028bf92d76\n      swap2\n        /* \"@thirdweb-dev/contracts/extension/Ownable.sol\":1586:1604   */\n      swap1\n        /* \"@thirdweb-dev/contracts/extension/Ownable.sol\":1657:1692   */\n      log3\n        /* \"@thirdweb-dev/contracts/extension/Ownable.sol\":1576:1699   */\n      pop\n        /* \"@thirdweb-dev/contracts/extension/Ownable.sol\":1527:1699   */\n      pop\n      jump\t// out\n        /* \"#utility.yul\":14:210   */\n    tag_217:\n        /* \"#utility.yul\":82:102   */\n      dup1\n      calldataload\n      sub(shl(0xa0, 0x01), 0x01)\n        /* \"#utility.yul\":131:185   */\n      dup2\n      and\n        /* \"#utility.yul\":121:186   */\n      dup2\n      eq\n        /* \"#utility.yul\":111:204   */\n      tag_229\n      jumpi\n        /* \"#utility.yul\":200:201   */\n      0x00\n        /* \"#utility.yul\":197:198   */\n      dup1\n        /* \"#utility.yul\":190:202   */\n      revert\n        /* \"#utility.yul\":111:204   */\n    tag_229:\n        /* \"#utility.yul\":14:210   */\n      swap2\n      swap1\n      pop\n      jump\t// out\n        /* \"#utility.yul\":215:401   */\n    tag_19:\n        /* \"#utility.yul\":274:280   */\n      0x00\n        /* \"#utility.yul\":327:329   */\n      0x20\n        /* \"#utility.yul\":315:324   */\n      dup3\n        /* \"#utility.yul\":306:313   */\n      dup5\n        /* \"#utility.yul\":302:325   */\n      sub\n        /* \"#utility.yul\":298:330   */\n      slt\n        /* \"#utility.yul\":295:347   */\n      iszero\n      tag_231\n      jumpi\n        /* \"#utility.yul\":343:344   */\n      0x00\n        /* \"#utility.yul\":340:341   */\n      dup1\n        /* \"#utility.yul\":333:345   */\n      revert\n        /* \"#utility.yul\":295:347   */\n    tag_231:\n        /* \"#utility.yul\":366:395   */\n      tag_232\n        /* \"#utility.yul\":385:394   */\n      dup3\n        /* \"#utility.yul\":366:395   */\n      tag_217\n      jump\t// in\n    tag_232:\n        /* \"#utility.yul\":356:395   */\n      swap4\n        /* \"#utility.yul\":215:401   */\n      swap3\n      pop\n      pop\n      pop\n      jump\t// out\n        /* \"#utility.yul\":406:524   */\n    tag_218:\n        /* \"#utility.yul\":492:497   */\n      dup1\n        /* \"#utility.yul\":485:498   */\n      iszero\n        /* \"#utility.yul\":478:499   */\n      iszero\n        /* \"#utility.yul\":471:476   */\n      dup2\n        /* \"#utility.yul\":468:500   */\n      eq\n        /* \"#utility.yul\":458:518   */\n      tag_70\n      jumpi\n        /* \"#utility.yul\":514:515   */\n      0x00\n        /* \"#utility.yul\":511:512   */\n      dup1\n        /* \"#utility.yul\":504:516   */\n      revert\n        /* \"#utility.yul\":529:906   */\n    tag_23:\n        /* \"#utility.yul\":603:609   */\n      0x00\n        /* \"#utility.yul\":611:617   */\n      dup1\n        /* \"#utility.yul\":619:625   */\n      0x00\n        /* \"#utility.yul\":672:674   */\n      0x60\n        /* \"#utility.yul\":660:669   */\n      dup5\n        /* \"#utility.yul\":651:658   */\n      dup7\n        /* \"#utility.yul\":647:670   */\n      sub\n        /* \"#utility.yul\":643:675   */\n      slt\n        /* \"#utility.yul\":640:692   */\n      iszero\n      tag_236\n      jumpi\n        /* \"#utility.yul\":688:689   */\n      0x00\n        /* \"#utility.yul\":685:686   */\n      dup1\n        /* \"#utility.yul\":678:690   */\n      revert\n        /* \"#utility.yul\":640:692   */\n    tag_236:\n        /* \"#utility.yul\":724:733   */\n      dup4\n        /* \"#utility.yul\":711:734   */\n      calldataload\n        /* \"#utility.yul\":701:734   */\n      swap3\n      pop\n        /* \"#utility.yul\":784:786   */\n      0x20\n        /* \"#utility.yul\":773:782   */\n      dup5\n        /* \"#utility.yul\":769:787   */\n      add\n        /* \"#utility.yul\":756:788   */\n      calldataload\n        /* \"#utility.yul\":797:825   */\n      tag_237\n        /* \"#utility.yul\":819:824   */\n      dup2\n        /* \"#utility.yul\":797:825   */\n      tag_218\n      jump\t// in\n    tag_237:\n        /* \"#utility.yul\":529:906   */\n      swap3\n      swap6\n        /* \"#utility.yul\":844:849   */\n      swap3\n      swap5\n      pop\n      pop\n      pop\n        /* \"#utility.yul\":896:898   */\n      0x40\n        /* \"#utility.yul\":881:899   */\n      swap2\n      swap1\n      swap2\n      add\n        /* \"#utility.yul\":868:900   */\n      calldataload\n      swap1\n        /* \"#utility.yul\":529:906   */\n      jump\t// out\n        /* \"#utility.yul\":911:1091   */\n    tag_27:\n        /* \"#utility.yul\":970:976   */\n      0x00\n        /* \"#utility.yul\":1023:1025   */\n      0x20\n        /* \"#utility.yul\":1011:1020   */\n      dup3\n        /* \"#utility.yul\":1002:1009   */\n      dup5\n        /* \"#utility.yul\":998:1021   */\n      sub\n        /* \"#utility.yul\":994:1026   */\n      slt\n        /* \"#utility.yul\":991:1043   */\n      iszero\n      tag_239\n      jumpi\n        /* \"#utility.yul\":1039:1040   */\n      0x00\n        /* \"#utility.yul\":1036:1037   */\n      dup1\n        /* \"#utility.yul\":1029:1041   */\n      revert\n        /* \"#utility.yul\":991:1043   */\n    tag_239:\n      pop\n        /* \"#utility.yul\":1062:1085   */\n      calldataload\n      swap2\n        /* \"#utility.yul\":911:1091   */\n      swap1\n      pop\n      jump\t// out\n        /* \"#utility.yul\":1096:1385   */\n    tag_219:\n        /* \"#utility.yul\":1138:1141   */\n      0x00\n        /* \"#utility.yul\":1176:1181   */\n      dup2\n        /* \"#utility.yul\":1170:1182   */\n      mload\n        /* \"#utility.yul\":1203:1209   */\n      dup1\n        /* \"#utility.yul\":1198:1201   */\n      dup5\n        /* \"#utility.yul\":1191:1210   */\n      mstore\n        /* \"#utility.yul\":1259:1265   */\n      dup1\n        /* \"#utility.yul\":1252:1256   */\n      0x20\n        /* \"#utility.yul\":1245:1250   */\n      dup5\n        /* \"#utility.yul\":1241:1257   */\n      add\n        /* \"#utility.yul\":1234:1238   */\n      0x20\n        /* \"#utility.yul\":1229:1232   */\n      dup7\n        /* \"#utility.yul\":1225:1239   */\n      add\n        /* \"#utility.yul\":1219:1266   */\n      mcopy\n        /* \"#utility.yul\":1311:1312   */\n      0x00\n        /* \"#utility.yul\":1304:1308   */\n      0x20\n        /* \"#utility.yul\":1295:1301   */\n      dup3\n        /* \"#utility.yul\":1290:1293   */\n      dup7\n        /* \"#utility.yul\":1286:1302   */\n      add\n        /* \"#utility.yul\":1282:1309   */\n      add\n        /* \"#utility.yul\":1275:1313   */\n      mstore\n        /* \"#utility.yul\":1374:1378   */\n      0x20\n        /* \"#utility.yul\":1367:1369   */\n      0x1f\n        /* \"#utility.yul\":1363:1370   */\n      not\n        /* \"#utility.yul\":1358:1360   */\n      0x1f\n        /* \"#utility.yul\":1350:1356   */\n      dup4\n        /* \"#utility.yul\":1346:1361   */\n      add\n        /* \"#utility.yul\":1342:1371   */\n      and\n        /* \"#utility.yul\":1337:1340   */\n      dup6\n        /* \"#utility.yul\":1333:1372   */\n      add\n        /* \"#utility.yul\":1329:1379   */\n      add\n        /* \"#utility.yul\":1322:1379   */\n      swap2\n      pop\n      pop\n        /* \"#utility.yul\":1096:1385   */\n      swap3\n      swap2\n      pop\n      pop\n      jump\t// out\n        /* \"#utility.yul\":1390:1517   */\n    tag_126:\n        /* \"#utility.yul\":1451:1461   */\n      0x4e487b71\n        /* \"#utility.yul\":1446:1449   */\n      0xe0\n        /* \"#utility.yul\":1442:1462   */\n      shl\n        /* \"#utility.yul\":1439:1440   */\n      0x00\n        /* \"#utility.yul\":1432:1463   */\n      mstore\n        /* \"#utility.yul\":1482:1486   */\n      0x21\n        /* \"#utility.yul\":1479:1480   */\n      0x04\n        /* \"#utility.yul\":1472:1487   */\n      mstore\n        /* \"#utility.yul\":1506:1510   */\n      0x24\n        /* \"#utility.yul\":1503:1504   */\n      0x00\n        /* \"#utility.yul\":1496:1511   */\n      revert\n        /* \"#utility.yul\":1522:1763   */\n    tag_220:\n        /* \"#utility.yul\":1607:1608   */\n      0x03\n        /* \"#utility.yul\":1600:1605   */\n      dup2\n        /* \"#utility.yul\":1597:1609   */\n      lt\n        /* \"#utility.yul\":1587:1730   */\n      tag_243\n      jumpi\n        /* \"#utility.yul\":1652:1662   */\n      0x4e487b71\n        /* \"#utility.yul\":1647:1650   */\n      0xe0\n        /* \"#utility.yul\":1643:1663   */\n      shl\n        /* \"#utility.yul\":1640:1641   */\n      0x00\n        /* \"#utility.yul\":1633:1664   */\n      mstore\n        /* \"#utility.yul\":1687:1691   */\n      0x21\n        /* \"#utility.yul\":1684:1685   */\n      0x04\n        /* \"#utility.yul\":1677:1692   */\n      mstore\n        /* \"#utility.yul\":1715:1719   */\n      0x24\n        /* \"#utility.yul\":1712:1713   */\n      0x00\n        /* \"#utility.yul\":1705:1720   */\n      revert\n        /* \"#utility.yul\":1587:1730   */\n    tag_243:\n        /* \"#utility.yul\":1739:1757   */\n      swap1\n      mstore\n        /* \"#utility.yul\":1522:1763   */\n      jump\t// out\n        /* \"#utility.yul\":1768:2742   */\n    tag_30:\n        /* \"#utility.yul\":2124:2128   */\n      0x00\n        /* \"#utility.yul\":2153:2156   */\n      0x0100\n        /* \"#utility.yul\":2183:2185   */\n      dup1\n        /* \"#utility.yul\":2172:2181   */\n      dup4\n        /* \"#utility.yul\":2165:2186   */\n      mstore\n        /* \"#utility.yul\":2209:2254   */\n      tag_245\n        /* \"#utility.yul\":2250:2252   */\n      dup2\n        /* \"#utility.yul\":2239:2248   */\n      dup5\n        /* \"#utility.yul\":2235:2253   */\n      add\n        /* \"#utility.yul\":2227:2233   */\n      dup13\n        /* \"#utility.yul\":2209:2254   */\n      tag_219\n      jump\t// in\n    tag_245:\n        /* \"#utility.yul\":2195:2254   */\n      swap1\n      pop\n        /* \"#utility.yul\":2302:2311   */\n      dup3\n        /* \"#utility.yul\":2294:2300   */\n      dup2\n        /* \"#utility.yul\":2290:2312   */\n      sub\n        /* \"#utility.yul\":2285:2287   */\n      0x20\n        /* \"#utility.yul\":2274:2283   */\n      dup5\n        /* \"#utility.yul\":2270:2288   */\n      add\n        /* \"#utility.yul\":2263:2313   */\n      mstore\n        /* \"#utility.yul\":2336:2369   */\n      tag_246\n        /* \"#utility.yul\":2362:2368   */\n      dup2\n        /* \"#utility.yul\":2354:2360   */\n      dup12\n        /* \"#utility.yul\":2336:2369   */\n      tag_219\n      jump\t// in\n    tag_246:\n        /* \"#utility.yul\":2322:2369   */\n      swap1\n      pop\n        /* \"#utility.yul\":2417:2426   */\n      dup3\n        /* \"#utility.yul\":2409:2415   */\n      dup2\n        /* \"#utility.yul\":2405:2427   */\n      sub\n        /* \"#utility.yul\":2400:2402   */\n      0x40\n        /* \"#utility.yul\":2389:2398   */\n      dup5\n        /* \"#utility.yul\":2385:2403   */\n      add\n        /* \"#utility.yul\":2378:2428   */\n      mstore\n        /* \"#utility.yul\":2445:2478   */\n      tag_247\n        /* \"#utility.yul\":2471:2477   */\n      dup2\n        /* \"#utility.yul\":2463:2469   */\n      dup11\n        /* \"#utility.yul\":2445:2478   */\n      tag_219\n      jump\t// in\n    tag_247:\n        /* \"#utility.yul\":2437:2478   */\n      swap2\n      pop\n      pop\n        /* \"#utility.yul\":2514:2520   */\n      dup7\n        /* \"#utility.yul\":2509:2511   */\n      0x60\n        /* \"#utility.yul\":2498:2507   */\n      dup4\n        /* \"#utility.yul\":2494:2512   */\n      add\n        /* \"#utility.yul\":2487:2521   */\n      mstore\n        /* \"#utility.yul\":2530:2588   */\n      tag_248\n        /* \"#utility.yul\":2583:2586   */\n      0x80\n        /* \"#utility.yul\":2572:2581   */\n      dup4\n        /* \"#utility.yul\":2568:2587   */\n      add\n        /* \"#utility.yul\":2560:2566   */\n      dup8\n        /* \"#utility.yul\":2530:2588   */\n      tag_220\n      jump\t// in\n    tag_248:\n        /* \"#utility.yul\":2625:2631   */\n      dup5\n        /* \"#utility.yul\":2619:2622   */\n      0xa0\n        /* \"#utility.yul\":2608:2617   */\n      dup4\n        /* \"#utility.yul\":2604:2623   */\n      add\n        /* \"#utility.yul\":2597:2632   */\n      mstore\n        /* \"#utility.yul\":2669:2675   */\n      dup4\n        /* \"#utility.yul\":2663:2666   */\n      0xc0\n        /* \"#utility.yul\":2652:2661   */\n      dup4\n        /* \"#utility.yul\":2648:2667   */\n      add\n        /* \"#utility.yul\":2641:2676   */\n      mstore\n        /* \"#utility.yul\":2727:2733   */\n      dup3\n        /* \"#utility.yul\":2720:2734   */\n      iszero\n        /* \"#utility.yul\":2713:2735   */\n      iszero\n        /* \"#utility.yul\":2707:2710   */\n      0xe0\n        /* \"#utility.yul\":2696:2705   */\n      dup4\n        /* \"#utility.yul\":2692:2711   */\n      add\n        /* \"#utility.yul\":2685:2736   */\n      mstore\n        /* \"#utility.yul\":1768:2742   */\n      swap10\n      swap9\n      pop\n      pop\n      pop\n      pop\n      pop\n      pop\n      pop\n      pop\n      pop\n      jump\t// out\n        /* \"#utility.yul\":2992:3119   */\n    tag_221:\n        /* \"#utility.yul\":3053:3063   */\n      0x4e487b71\n        /* \"#utility.yul\":3048:3051   */\n      0xe0\n        /* \"#utility.yul\":3044:3064   */\n      shl\n        /* \"#utility.yul\":3041:3042   */\n      0x00\n        /* \"#utility.yul\":3034:3065   */\n      mstore\n        /* \"#utility.yul\":3084:3088   */\n      0x41\n        /* \"#utility.yul\":3081:3082   */\n      0x04\n        /* \"#utility.yul\":3074:3089   */\n      mstore\n        /* \"#utility.yul\":3108:3112   */\n      0x24\n        /* \"#utility.yul\":3105:3106   */\n      0x00\n        /* \"#utility.yul\":3098:3113   */\n      revert\n        /* \"#utility.yul\":3124:3843   */\n    tag_222:\n        /* \"#utility.yul\":3167:3172   */\n      0x00\n        /* \"#utility.yul\":3220:3223   */\n      dup3\n        /* \"#utility.yul\":3213:3217   */\n      0x1f\n        /* \"#utility.yul\":3205:3211   */\n      dup4\n        /* \"#utility.yul\":3201:3218   */\n      add\n        /* \"#utility.yul\":3197:3224   */\n      slt\n        /* \"#utility.yul\":3187:3242   */\n      tag_252\n      jumpi\n        /* \"#utility.yul\":3238:3239   */\n      0x00\n        /* \"#utility.yul\":3235:3236   */\n      dup1\n        /* \"#utility.yul\":3228:3240   */\n      revert\n        /* \"#utility.yul\":3187:3242   */\n    tag_252:\n        /* \"#utility.yul\":3274:3280   */\n      dup2\n        /* \"#utility.yul\":3261:3281   */\n      calldataload\n        /* \"#utility.yul\":3300:3318   */\n      0xffffffffffffffff\n        /* \"#utility.yul\":3337:3339   */\n      dup1\n        /* \"#utility.yul\":3333:3335   */\n      dup3\n        /* \"#utility.yul\":3330:3340   */\n      gt\n        /* \"#utility.yul\":3327:3363   */\n      iszero\n      tag_254\n      jumpi\n        /* \"#utility.yul\":3343:3361   */\n      tag_254\n      tag_221\n      jump\t// in\n    tag_254:\n        /* \"#utility.yul\":3418:3420   */\n      0x40\n        /* \"#utility.yul\":3412:3421   */\n      mload\n        /* \"#utility.yul\":3386:3388   */\n      0x1f\n        /* \"#utility.yul\":3472:3485   */\n      dup4\n      add\n      not(0x1f)\n        /* \"#utility.yul\":3468:3490   */\n      swap1\n      dup2\n      and\n        /* \"#utility.yul\":3492:3494   */\n      0x3f\n        /* \"#utility.yul\":3464:3495   */\n      add\n        /* \"#utility.yul\":3460:3500   */\n      and\n        /* \"#utility.yul\":3448:3501   */\n      dup2\n      add\n      swap1\n        /* \"#utility.yul\":3516:3534   */\n      dup3\n      dup3\n      gt\n        /* \"#utility.yul\":3536:3558   */\n      dup2\n      dup4\n      lt\n        /* \"#utility.yul\":3513:3559   */\n      or\n        /* \"#utility.yul\":3510:3582   */\n      iszero\n      tag_256\n      jumpi\n        /* \"#utility.yul\":3562:3580   */\n      tag_256\n      tag_221\n      jump\t// in\n    tag_256:\n        /* \"#utility.yul\":3602:3612   */\n      dup2\n        /* \"#utility.yul\":3598:3600   */\n      0x40\n        /* \"#utility.yul\":3591:3613   */\n      mstore\n        /* \"#utility.yul\":3637:3639   */\n      dup4\n        /* \"#utility.yul\":3629:3635   */\n      dup2\n        /* \"#utility.yul\":3622:3640   */\n      mstore\n        /* \"#utility.yul\":3683:3686   */\n      dup7\n        /* \"#utility.yul\":3676:3680   */\n      0x20\n        /* \"#utility.yul\":3671:3673   */\n      dup6\n        /* \"#utility.yul\":3663:3669   */\n      dup9\n        /* \"#utility.yul\":3659:3674   */\n      add\n        /* \"#utility.yul\":3655:3681   */\n      add\n        /* \"#utility.yul\":3652:3687   */\n      gt\n        /* \"#utility.yul\":3649:3704   */\n      iszero\n      tag_257\n      jumpi\n        /* \"#utility.yul\":3700:3701   */\n      0x00\n        /* \"#utility.yul\":3697:3698   */\n      dup1\n        /* \"#utility.yul\":3690:3702   */\n      revert\n        /* \"#utility.yul\":3649:3704   */\n    tag_257:\n        /* \"#utility.yul\":3764:3766   */\n      dup4\n        /* \"#utility.yul\":3757:3761   */\n      0x20\n        /* \"#utility.yul\":3749:3755   */\n      dup8\n        /* \"#utility.yul\":3745:3762   */\n      add\n        /* \"#utility.yul\":3738:3742   */\n      0x20\n        /* \"#utility.yul\":3730:3736   */\n      dup4\n        /* \"#utility.yul\":3726:3743   */\n      add\n        /* \"#utility.yul\":3713:3767   */\n      calldatacopy\n        /* \"#utility.yul\":3811:3812   */\n      0x00\n        /* \"#utility.yul\":3804:3808   */\n      0x20\n        /* \"#utility.yul\":3799:3801   */\n      dup6\n        /* \"#utility.yul\":3791:3797   */\n      dup4\n        /* \"#utility.yul\":3787:3802   */\n      add\n        /* \"#utility.yul\":3783:3809   */\n      add\n        /* \"#utility.yul\":3776:3813   */\n      mstore\n        /* \"#utility.yul\":3831:3837   */\n      dup1\n        /* \"#utility.yul\":3822:3837   */\n      swap5\n      pop\n      pop\n      pop\n      pop\n      pop\n        /* \"#utility.yul\":3124:3843   */\n      swap3\n      swap2\n      pop\n      pop\n      jump\t// out\n        /* \"#utility.yul\":3848:4660   */\n    tag_40:\n        /* \"#utility.yul\":3964:3970   */\n      0x00\n        /* \"#utility.yul\":3972:3978   */\n      dup1\n        /* \"#utility.yul\":3980:3986   */\n      0x00\n        /* \"#utility.yul\":3988:3994   */\n      dup1\n        /* \"#utility.yul\":4041:4044   */\n      0x80\n        /* \"#utility.yul\":4029:4038   */\n      dup6\n        /* \"#utility.yul\":4020:4027   */\n      dup8\n        /* \"#utility.yul\":4016:4039   */\n      sub\n        /* \"#utility.yul\":4012:4045   */\n      slt\n        /* \"#utility.yul\":4009:4062   */\n      iszero\n      tag_259\n      jumpi\n        /* \"#utility.yul\":4058:4059   */\n      0x00\n        /* \"#utility.yul\":4055:4056   */\n      dup1\n        /* \"#utility.yul\":4048:4060   */\n      revert\n        /* \"#utility.yul\":4009:4062   */\n    tag_259:\n        /* \"#utility.yul\":4098:4107   */\n      dup5\n        /* \"#utility.yul\":4085:4108   */\n      calldataload\n        /* \"#utility.yul\":4127:4145   */\n      0xffffffffffffffff\n        /* \"#utility.yul\":4168:4170   */\n      dup1\n        /* \"#utility.yul\":4160:4166   */\n      dup3\n        /* \"#utility.yul\":4157:4171   */\n      gt\n        /* \"#utility.yul\":4154:4188   */\n      iszero\n      tag_260\n      jumpi\n        /* \"#utility.yul\":4184:4185   */\n      0x00\n        /* \"#utility.yul\":4181:4182   */\n      dup1\n        /* \"#utility.yul\":4174:4186   */\n      revert\n        /* \"#utility.yul\":4154:4188   */\n    tag_260:\n        /* \"#utility.yul\":4207:4257   */\n      tag_261\n        /* \"#utility.yul\":4249:4256   */\n      dup9\n        /* \"#utility.yul\":4240:4246   */\n      dup4\n        /* \"#utility.yul\":4229:4238   */\n      dup10\n        /* \"#utility.yul\":4225:4247   */\n      add\n        /* \"#utility.yul\":4207:4257   */\n      tag_222\n      jump\t// in\n    tag_261:\n        /* \"#utility.yul\":4197:4257   */\n      swap6\n      pop\n        /* \"#utility.yul\":4310:4312   */\n      0x20\n        /* \"#utility.yul\":4299:4308   */\n      dup8\n        /* \"#utility.yul\":4295:4313   */\n      add\n        /* \"#utility.yul\":4282:4314   */\n      calldataload\n        /* \"#utility.yul\":4266:4314   */\n      swap2\n      pop\n        /* \"#utility.yul\":4339:4341   */\n      dup1\n        /* \"#utility.yul\":4329:4337   */\n      dup3\n        /* \"#utility.yul\":4326:4342   */\n      gt\n        /* \"#utility.yul\":4323:4359   */\n      iszero\n      tag_262\n      jumpi\n        /* \"#utility.yul\":4355:4356   */\n      0x00\n        /* \"#utility.yul\":4352:4353   */\n      dup1\n        /* \"#utility.yul\":4345:4357   */\n      revert\n        /* \"#utility.yul\":4323:4359   */\n    tag_262:\n        /* \"#utility.yul\":4378:4430   */\n      tag_263\n        /* \"#utility.yul\":4422:4429   */\n      dup9\n        /* \"#utility.yul\":4411:4419   */\n      dup4\n        /* \"#utility.yul\":4400:4409   */\n      dup10\n        /* \"#utility.yul\":4396:4420   */\n      add\n        /* \"#utility.yul\":4378:4430   */\n      tag_222\n      jump\t// in\n    tag_263:\n        /* \"#utility.yul\":4368:4430   */\n      swap5\n      pop\n        /* \"#utility.yul\":4483:4485   */\n      0x40\n        /* \"#utility.yul\":4472:4481   */\n      dup8\n        /* \"#utility.yul\":4468:4486   */\n      add\n        /* \"#utility.yul\":4455:4487   */\n      calldataload\n        /* \"#utility.yul\":4439:4487   */\n      swap2\n      pop\n        /* \"#utility.yul\":4512:4514   */\n      dup1\n        /* \"#utility.yul\":4502:4510   */\n      dup3\n        /* \"#utility.yul\":4499:4515   */\n      gt\n        /* \"#utility.yul\":4496:4532   */\n      iszero\n      tag_264\n      jumpi\n        /* \"#utility.yul\":4528:4529   */\n      0x00\n        /* \"#utility.yul\":4525:4526   */\n      dup1\n        /* \"#utility.yul\":4518:4530   */\n      revert\n        /* \"#utility.yul\":4496:4532   */\n    tag_264:\n      pop\n        /* \"#utility.yul\":4551:4603   */\n      tag_265\n        /* \"#utility.yul\":4595:4602   */\n      dup8\n        /* \"#utility.yul\":4584:4592   */\n      dup3\n        /* \"#utility.yul\":4573:4582   */\n      dup9\n        /* \"#utility.yul\":4569:4593   */\n      add\n        /* \"#utility.yul\":4551:4603   */\n      tag_222\n      jump\t// in\n    tag_265:\n        /* \"#utility.yul\":3848:4660   */\n      swap5\n      swap8\n      swap4\n      swap7\n      pop\n        /* \"#utility.yul\":4541:4603   */\n      swap4\n      swap5\n        /* \"#utility.yul\":4650:4652   */\n      0x60\n        /* \"#utility.yul\":4635:4653   */\n      add\n        /* \"#utility.yul\":4622:4654   */\n      calldataload\n      swap4\n      pop\n      pop\n      pop\n        /* \"#utility.yul\":3848:4660   */\n      jump\t// out\n        /* \"#utility.yul\":4847:5101   */\n    tag_46:\n        /* \"#utility.yul\":4915:4921   */\n      0x00\n        /* \"#utility.yul\":4923:4929   */\n      dup1\n        /* \"#utility.yul\":4976:4978   */\n      0x40\n        /* \"#utility.yul\":4964:4973   */\n      dup4\n        /* \"#utility.yul\":4955:4962   */\n      dup6\n        /* \"#utility.yul\":4951:4974   */\n      sub\n        /* \"#utility.yul\":4947:4979   */\n      slt\n        /* \"#utility.yul\":4944:4996   */\n      iszero\n      tag_268\n      jumpi\n        /* \"#utility.yul\":4992:4993   */\n      0x00\n        /* \"#utility.yul\":4989:4990   */\n      dup1\n        /* \"#utility.yul\":4982:4994   */\n      revert\n        /* \"#utility.yul\":4944:4996   */\n    tag_268:\n        /* \"#utility.yul\":5028:5037   */\n      dup3\n        /* \"#utility.yul\":5015:5038   */\n      calldataload\n        /* \"#utility.yul\":5005:5038   */\n      swap2\n      pop\n        /* \"#utility.yul\":5057:5095   */\n      tag_269\n        /* \"#utility.yul\":5091:5093   */\n      0x20\n        /* \"#utility.yul\":5080:5089   */\n      dup5\n        /* \"#utility.yul\":5076:5094   */\n      add\n        /* \"#utility.yul\":5057:5095   */\n      tag_217\n      jump\t// in\n    tag_269:\n        /* \"#utility.yul\":5047:5095   */\n      swap1\n      pop\n        /* \"#utility.yul\":4847:5101   */\n      swap3\n      pop\n      swap3\n      swap1\n      pop\n      jump\t// out\n        /* \"#utility.yul\":5590:6564   */\n    tag_58:\n        /* \"#utility.yul\":5946:5950   */\n      0x00\n        /* \"#utility.yul\":5975:5978   */\n      0x0100\n        /* \"#utility.yul\":6005:6007   */\n      dup1\n        /* \"#utility.yul\":5994:6003   */\n      dup4\n        /* \"#utility.yul\":5987:6008   */\n      mstore\n        /* \"#utility.yul\":6031:6076   */\n      tag_273\n        /* \"#utility.yul\":6072:6074   */\n      dup2\n        /* \"#utility.yul\":6061:6070   */\n      dup5\n        /* \"#utility.yul\":6057:6075   */\n      add\n        /* \"#utility.yul\":6049:6055   */\n      dup13\n        /* \"#utility.yul\":6031:6076   */\n      tag_219\n      jump\t// in\n    tag_273:\n        /* \"#utility.yul\":6017:6076   */\n      swap1\n      pop\n        /* \"#utility.yul\":6112:6118   */\n      dup10\n        /* \"#utility.yul\":6107:6109   */\n      0x20\n        /* \"#utility.yul\":6096:6105   */\n      dup5\n        /* \"#utility.yul\":6092:6110   */\n      add\n        /* \"#utility.yul\":6085:6119   */\n      mstore\n        /* \"#utility.yul\":6128:6185   */\n      tag_274\n        /* \"#utility.yul\":6181:6183   */\n      0x40\n        /* \"#utility.yul\":6170:6179   */\n      dup5\n        /* \"#utility.yul\":6166:6184   */\n      add\n        /* \"#utility.yul\":6158:6164   */\n      dup11\n        /* \"#utility.yul\":6128:6185   */\n      tag_220\n      jump\t// in\n    tag_274:\n        /* \"#utility.yul\":6233:6242   */\n      dup3\n        /* \"#utility.yul\":6225:6231   */\n      dup2\n        /* \"#utility.yul\":6221:6243   */\n      sub\n        /* \"#utility.yul\":6216:6218   */\n      0x60\n        /* \"#utility.yul\":6205:6214   */\n      dup5\n        /* \"#utility.yul\":6201:6219   */\n      add\n        /* \"#utility.yul\":6194:6244   */\n      mstore\n        /* \"#utility.yul\":6267:6300   */\n      tag_275\n        /* \"#utility.yul\":6293:6299   */\n      dup2\n        /* \"#utility.yul\":6285:6291   */\n      dup10\n        /* \"#utility.yul\":6267:6300   */\n      tag_219\n      jump\t// in\n    tag_275:\n        /* \"#utility.yul\":6253:6300   */\n      swap1\n      pop\n        /* \"#utility.yul\":6349:6358   */\n      dup3\n        /* \"#utility.yul\":6341:6347   */\n      dup2\n        /* \"#utility.yul\":6337:6359   */\n      sub\n        /* \"#utility.yul\":6331:6334   */\n      0x80\n        /* \"#utility.yul\":6320:6329   */\n      dup5\n        /* \"#utility.yul\":6316:6335   */\n      add\n        /* \"#utility.yul\":6309:6360   */\n      mstore\n        /* \"#utility.yul\":6377:6410   */\n      tag_276\n        /* \"#utility.yul\":6403:6409   */\n      dup2\n        /* \"#utility.yul\":6395:6401   */\n      dup9\n        /* \"#utility.yul\":6377:6410   */\n      tag_219\n      jump\t// in\n    tag_276:\n        /* \"#utility.yul\":6441:6444   */\n      0xa0\n        /* \"#utility.yul\":6426:6445   */\n      dup5\n      add\n        /* \"#utility.yul\":6419:6454   */\n      swap7\n      swap1\n      swap7\n      mstore\n      pop\n      pop\n        /* \"#utility.yul\":6485:6488   */\n      0xc0\n        /* \"#utility.yul\":6470:6489   */\n      dup2\n      add\n        /* \"#utility.yul\":6463:6498   */\n      swap3\n      swap1\n      swap3\n      mstore\n        /* \"#utility.yul\":6542:6556   */\n      iszero\n        /* \"#utility.yul\":6535:6557   */\n      iszero\n        /* \"#utility.yul\":6529:6532   */\n      0xe0\n        /* \"#utility.yul\":6514:6533   */\n      swap1\n      swap2\n      add\n        /* \"#utility.yul\":6507:6558   */\n      mstore\n        /* \"#utility.yul\":6369:6410   */\n      swap6\n        /* \"#utility.yul\":5590:6564   */\n      swap5\n      pop\n      pop\n      pop\n      pop\n      pop\n      jump\t// out\n        /* \"#utility.yul\":6569:6909   */\n    tag_61:\n        /* \"#utility.yul\":6653:6659   */\n      0x00\n        /* \"#utility.yul\":6661:6667   */\n      dup1\n        /* \"#utility.yul\":6714:6716   */\n      0x40\n        /* \"#utility.yul\":6702:6711   */\n      dup4\n        /* \"#utility.yul\":6693:6700   */\n      dup6\n        /* \"#utility.yul\":6689:6712   */\n      sub\n        /* \"#utility.yul\":6685:6717   */\n      slt\n        /* \"#utility.yul\":6682:6734   */\n      iszero\n      tag_278\n      jumpi\n        /* \"#utility.yul\":6730:6731   */\n      0x00\n        /* \"#utility.yul\":6727:6728   */\n      dup1\n        /* \"#utility.yul\":6720:6732   */\n      revert\n        /* \"#utility.yul\":6682:6734   */\n    tag_278:\n        /* \"#utility.yul\":6766:6775   */\n      dup3\n        /* \"#utility.yul\":6753:6776   */\n      calldataload\n        /* \"#utility.yul\":6743:6776   */\n      swap2\n      pop\n        /* \"#utility.yul\":6826:6828   */\n      0x20\n        /* \"#utility.yul\":6815:6824   */\n      dup4\n        /* \"#utility.yul\":6811:6829   */\n      add\n        /* \"#utility.yul\":6798:6830   */\n      calldataload\n        /* \"#utility.yul\":6859:6860   */\n      0x03\n        /* \"#utility.yul\":6852:6857   */\n      dup2\n        /* \"#utility.yul\":6849:6861   */\n      lt\n        /* \"#utility.yul\":6839:6879   */\n      tag_279\n      jumpi\n        /* \"#utility.yul\":6875:6876   */\n      0x00\n        /* \"#utility.yul\":6872:6873   */\n      dup1\n        /* \"#utility.yul\":6865:6877   */\n      revert\n        /* \"#utility.yul\":6839:6879   */\n    tag_279:\n        /* \"#utility.yul\":6898:6903   */\n      dup1\n        /* \"#utility.yul\":6888:6903   */\n      swap2\n      pop\n      pop\n        /* \"#utility.yul\":6569:6909   */\n      swap3\n      pop\n      swap3\n      swap1\n      pop\n      jump\t// out\n        /* \"#utility.yul\":8381:8626   */\n    tag_87:\n        /* \"#utility.yul\":8448:8454   */\n      0x00\n        /* \"#utility.yul\":8501:8503   */\n      0x20\n        /* \"#utility.yul\":8489:8498   */\n      dup3\n        /* \"#utility.yul\":8480:8487   */\n      dup5\n        /* \"#utility.yul\":8476:8499   */\n      sub\n        /* \"#utility.yul\":8472:8504   */\n      slt\n        /* \"#utility.yul\":8469:8521   */\n      iszero\n      tag_285\n      jumpi\n        /* \"#utility.yul\":8517:8518   */\n      0x00\n        /* \"#utility.yul\":8514:8515   */\n      dup1\n        /* \"#utility.yul\":8507:8519   */\n      revert\n        /* \"#utility.yul\":8469:8521   */\n    tag_285:\n        /* \"#utility.yul\":8549:8558   */\n      dup2\n        /* \"#utility.yul\":8543:8559   */\n      mload\n        /* \"#utility.yul\":8568:8596   */\n      tag_232\n        /* \"#utility.yul\":8590:8595   */\n      dup2\n        /* \"#utility.yul\":8568:8596   */\n      tag_218\n      jump\t// in\n        /* \"#utility.yul\":8981:9108   */\n    tag_223:\n        /* \"#utility.yul\":9042:9052   */\n      0x4e487b71\n        /* \"#utility.yul\":9037:9040   */\n      0xe0\n        /* \"#utility.yul\":9033:9053   */\n      shl\n        /* \"#utility.yul\":9030:9031   */\n      0x00\n        /* \"#utility.yul\":9023:9054   */\n      mstore\n        /* \"#utility.yul\":9073:9077   */\n      0x11\n        /* \"#utility.yul\":9070:9071   */\n      0x04\n        /* \"#utility.yul\":9063:9078   */\n      mstore\n        /* \"#utility.yul\":9097:9101   */\n      0x24\n        /* \"#utility.yul\":9094:9095   */\n      0x00\n        /* \"#utility.yul\":9087:9102   */\n      revert\n        /* \"#utility.yul\":9113:9238   */\n    tag_93:\n        /* \"#utility.yul\":9178:9187   */\n      dup1\n      dup3\n      add\n        /* \"#utility.yul\":9199:9209   */\n      dup1\n      dup3\n      gt\n        /* \"#utility.yul\":9196:9232   */\n      iszero\n      tag_291\n      jumpi\n        /* \"#utility.yul\":9212:9230   */\n      tag_291\n      tag_223\n      jump\t// in\n    tag_291:\n        /* \"#utility.yul\":9113:9238   */\n      swap3\n      swap2\n      pop\n      pop\n      jump\t// out\n        /* \"#utility.yul\":9506:9886   */\n    tag_102:\n        /* \"#utility.yul\":9585:9586   */\n      0x01\n        /* \"#utility.yul\":9581:9593   */\n      dup2\n      dup2\n      shr\n      swap1\n        /* \"#utility.yul\":9628:9640   */\n      dup3\n      and\n      dup1\n        /* \"#utility.yul\":9649:9710   */\n      tag_294\n      jumpi\n        /* \"#utility.yul\":9703:9707   */\n      0x7f\n        /* \"#utility.yul\":9695:9701   */\n      dup3\n        /* \"#utility.yul\":9691:9708   */\n      and\n        /* \"#utility.yul\":9681:9708   */\n      swap2\n      pop\n        /* \"#utility.yul\":9649:9710   */\n    tag_294:\n        /* \"#utility.yul\":9756:9758   */\n      0x20\n        /* \"#utility.yul\":9748:9754   */\n      dup3\n        /* \"#utility.yul\":9745:9759   */\n      lt\n        /* \"#utility.yul\":9725:9743   */\n      dup2\n        /* \"#utility.yul\":9722:9760   */\n      sub\n        /* \"#utility.yul\":9719:9880   */\n      tag_295\n      jumpi\n        /* \"#utility.yul\":9802:9812   */\n      0x4e487b71\n        /* \"#utility.yul\":9797:9800   */\n      0xe0\n        /* \"#utility.yul\":9793:9813   */\n      shl\n        /* \"#utility.yul\":9790:9791   */\n      0x00\n        /* \"#utility.yul\":9783:9814   */\n      mstore\n        /* \"#utility.yul\":9837:9841   */\n      0x22\n        /* \"#utility.yul\":9834:9835   */\n      0x04\n        /* \"#utility.yul\":9827:9842   */\n      mstore\n        /* \"#utility.yul\":9865:9869   */\n      0x24\n        /* \"#utility.yul\":9862:9863   */\n      0x00\n        /* \"#utility.yul\":9855:9870   */\n      revert\n        /* \"#utility.yul\":9719:9880   */\n    tag_295:\n      pop\n        /* \"#utility.yul\":9506:9886   */\n      swap2\n      swap1\n      pop\n      jump\t// out\n        /* \"#utility.yul\":11301:11469   */\n    tag_143:\n        /* \"#utility.yul\":11374:11383   */\n      dup1\n      dup3\n      mul\n        /* \"#utility.yul\":11405:11414   */\n      dup2\n      iszero\n        /* \"#utility.yul\":11422:11437   */\n      dup3\n      dup3\n      div\n        /* \"#utility.yul\":11416:11438   */\n      dup5\n      eq\n        /* \"#utility.yul\":11402:11439   */\n      or\n        /* \"#utility.yul\":11392:11463   */\n      tag_291\n      jumpi\n        /* \"#utility.yul\":11443:11461   */\n      tag_291\n      tag_223\n      jump\t// in\n        /* \"#utility.yul\":11474:11691   */\n    tag_145:\n        /* \"#utility.yul\":11514:11515   */\n      0x00\n        /* \"#utility.yul\":11540:11541   */\n      dup3\n        /* \"#utility.yul\":11530:11662   */\n      tag_304\n      jumpi\n        /* \"#utility.yul\":11584:11594   */\n      0x4e487b71\n        /* \"#utility.yul\":11579:11582   */\n      0xe0\n        /* \"#utility.yul\":11575:11595   */\n      shl\n        /* \"#utility.yul\":11572:11573   */\n      0x00\n        /* \"#utility.yul\":11565:11596   */\n      mstore\n        /* \"#utility.yul\":11619:11623   */\n      0x12\n        /* \"#utility.yul\":11616:11617   */\n      0x04\n        /* \"#utility.yul\":11609:11624   */\n      mstore\n        /* \"#utility.yul\":11647:11651   */\n      0x24\n        /* \"#utility.yul\":11644:11645   */\n      0x00\n        /* \"#utility.yul\":11637:11652   */\n      revert\n        /* \"#utility.yul\":11530:11662   */\n    tag_304:\n      pop\n        /* \"#utility.yul\":11676:11685   */\n      div\n      swap1\n        /* \"#utility.yul\":11474:11691   */\n      jump\t// out\n        /* \"#utility.yul\":12704:12839   */\n    tag_168:\n        /* \"#utility.yul\":12743:12746   */\n      0x00\n        /* \"#utility.yul\":12764:12781   */\n      0x01\n      dup3\n      add\n        /* \"#utility.yul\":12761:12804   */\n      tag_310\n      jumpi\n        /* \"#utility.yul\":12784:12802   */\n      tag_310\n      tag_223\n      jump\t// in\n    tag_310:\n      pop\n        /* \"#utility.yul\":12831:12832   */\n      0x01\n        /* \"#utility.yul\":12820:12833   */\n      add\n      swap1\n        /* \"#utility.yul\":12704:12839   */\n      jump\t// out\n        /* \"#utility.yul\":12970:13488   */\n    tag_225:\n        /* \"#utility.yul\":13072:13074   */\n      0x1f\n        /* \"#utility.yul\":13067:13070   */\n      dup3\n        /* \"#utility.yul\":13064:13075   */\n      gt\n        /* \"#utility.yul\":13061:13482   */\n      iszero\n      tag_313\n      jumpi\n        /* \"#utility.yul\":13108:13113   */\n      dup1\n        /* \"#utility.yul\":13105:13106   */\n      0x00\n        /* \"#utility.yul\":13098:13114   */\n      mstore\n        /* \"#utility.yul\":13152:13156   */\n      0x20\n        /* \"#utility.yul\":13149:13150   */\n      0x00\n        /* \"#utility.yul\":13139:13157   */\n      keccak256\n        /* \"#utility.yul\":13222:13224   */\n      0x1f\n        /* \"#utility.yul\":13210:13220   */\n      dup5\n        /* \"#utility.yul\":13206:13225   */\n      add\n        /* \"#utility.yul\":13203:13204   */\n      0x05\n        /* \"#utility.yul\":13199:13226   */\n      shr\n        /* \"#utility.yul\":13193:13197   */\n      dup2\n        /* \"#utility.yul\":13189:13227   */\n      add\n        /* \"#utility.yul\":13258:13262   */\n      0x20\n        /* \"#utility.yul\":13246:13256   */\n      dup6\n        /* \"#utility.yul\":13243:13263   */\n      lt\n        /* \"#utility.yul\":13240:13287   */\n      iszero\n      tag_314\n      jumpi\n      pop\n        /* \"#utility.yul\":13281:13285   */\n      dup1\n        /* \"#utility.yul\":13240:13287   */\n    tag_314:\n        /* \"#utility.yul\":13336:13338   */\n      0x1f\n        /* \"#utility.yul\":13331:13334   */\n      dup5\n        /* \"#utility.yul\":13327:13339   */\n      add\n        /* \"#utility.yul\":13324:13325   */\n      0x05\n        /* \"#utility.yul\":13320:13340   */\n      shr\n        /* \"#utility.yul\":13314:13318   */\n      dup3\n        /* \"#utility.yul\":13310:13341   */\n      add\n        /* \"#utility.yul\":13300:13341   */\n      swap2\n      pop\n        /* \"#utility.yul\":13391:13472   */\n    tag_315:\n        /* \"#utility.yul\":13409:13411   */\n      dup2\n        /* \"#utility.yul\":13402:13407   */\n      dup2\n        /* \"#utility.yul\":13399:13412   */\n      lt\n        /* \"#utility.yul\":13391:13472   */\n      iszero\n      tag_317\n      jumpi\n        /* \"#utility.yul\":13468:13469   */\n      0x00\n        /* \"#utility.yul\":13454:13470   */\n      dup2\n      sstore\n        /* \"#utility.yul\":13435:13436   */\n      0x01\n        /* \"#utility.yul\":13424:13437   */\n      add\n        /* \"#utility.yul\":13391:13472   */\n      jump(tag_315)\n    tag_317:\n        /* \"#utility.yul\":13395:13398   */\n      pop\n      pop\n        /* \"#utility.yul\":13061:13482   */\n    tag_313:\n        /* \"#utility.yul\":12970:13488   */\n      pop\n      pop\n      pop\n      jump\t// out\n        /* \"#utility.yul\":13664:15009   */\n    tag_170:\n        /* \"#utility.yul\":13790:13793   */\n      dup2\n        /* \"#utility.yul\":13784:13794   */\n      mload\n        /* \"#utility.yul\":13817:13835   */\n      0xffffffffffffffff\n        /* \"#utility.yul\":13809:13815   */\n      dup2\n        /* \"#utility.yul\":13806:13836   */\n      gt\n        /* \"#utility.yul\":13803:13859   */\n      iszero\n      tag_321\n      jumpi\n        /* \"#utility.yul\":13839:13857   */\n      tag_321\n      tag_221\n      jump\t// in\n    tag_321:\n        /* \"#utility.yul\":13868:13965   */\n      tag_322\n        /* \"#utility.yul\":13958:13964   */\n      dup2\n        /* \"#utility.yul\":13918:13956   */\n      tag_323\n        /* \"#utility.yul\":13950:13954   */\n      dup5\n        /* \"#utility.yul\":13944:13955   */\n      sload\n        /* \"#utility.yul\":13918:13956   */\n      tag_102\n      jump\t// in\n    tag_323:\n        /* \"#utility.yul\":13912:13916   */\n      dup5\n        /* \"#utility.yul\":13868:13965   */\n      tag_225\n      jump\t// in\n    tag_322:\n        /* \"#utility.yul\":14020:14024   */\n      0x20\n      dup1\n        /* \"#utility.yul\":14077:14079   */\n      0x1f\n        /* \"#utility.yul\":14066:14080   */\n      dup4\n      gt\n        /* \"#utility.yul\":14094:14095   */\n      0x01\n        /* \"#utility.yul\":14089:14752   */\n      dup2\n      eq\n      tag_325\n      jumpi\n        /* \"#utility.yul\":14796:14797   */\n      0x00\n        /* \"#utility.yul\":14813:14819   */\n      dup5\n        /* \"#utility.yul\":14810:14899   */\n      iszero\n      tag_326\n      jumpi\n      pop\n        /* \"#utility.yul\":14865:14884   */\n      dup6\n      dup4\n      add\n        /* \"#utility.yul\":14859:14885   */\n      mload\n        /* \"#utility.yul\":14810:14899   */\n    tag_326:\n      not(0x00)\n        /* \"#utility.yul\":13621:13622   */\n      0x03\n        /* \"#utility.yul\":13617:13628   */\n      dup7\n      swap1\n      shl\n        /* \"#utility.yul\":13613:13637   */\n      shr\n        /* \"#utility.yul\":13609:13638   */\n      not\n        /* \"#utility.yul\":13599:13639   */\n      and\n        /* \"#utility.yul\":13645:13646   */\n      0x01\n        /* \"#utility.yul\":13641:13652   */\n      dup6\n      swap1\n      shl\n        /* \"#utility.yul\":13596:13653   */\n      or\n        /* \"#utility.yul\":14912:14993   */\n      dup6\n      sstore\n        /* \"#utility.yul\":14059:15003   */\n      jump(tag_324)\n        /* \"#utility.yul\":14089:14752   */\n    tag_325:\n        /* \"#utility.yul\":12917:12918   */\n      0x00\n        /* \"#utility.yul\":12910:12924   */\n      dup6\n      dup2\n      mstore\n        /* \"#utility.yul\":12954:12958   */\n      0x20\n        /* \"#utility.yul\":12941:12959   */\n      dup2\n      keccak256\n      not(0x1f)\n        /* \"#utility.yul\":14125:14145   */\n      dup7\n      and\n      swap2\n        /* \"#utility.yul\":14243:14479   */\n    tag_329:\n        /* \"#utility.yul\":14257:14264   */\n      dup3\n        /* \"#utility.yul\":14254:14255   */\n      dup2\n        /* \"#utility.yul\":14251:14265   */\n      lt\n        /* \"#utility.yul\":14243:14479   */\n      iszero\n      tag_331\n      jumpi\n        /* \"#utility.yul\":14346:14365   */\n      dup9\n      dup7\n      add\n        /* \"#utility.yul\":14340:14366   */\n      mload\n        /* \"#utility.yul\":14325:14367   */\n      dup3\n      sstore\n        /* \"#utility.yul\":14438:14465   */\n      swap5\n      dup5\n      add\n      swap5\n        /* \"#utility.yul\":14406:14407   */\n      0x01\n        /* \"#utility.yul\":14394:14408   */\n      swap1\n      swap2\n      add\n      swap1\n        /* \"#utility.yul\":14273:14292   */\n      dup5\n      add\n        /* \"#utility.yul\":14243:14479   */\n      jump(tag_329)\n    tag_331:\n        /* \"#utility.yul\":14247:14250   */\n      pop\n        /* \"#utility.yul\":14507:14513   */\n      dup6\n        /* \"#utility.yul\":14498:14505   */\n      dup3\n        /* \"#utility.yul\":14495:14514   */\n      lt\n        /* \"#utility.yul\":14492:14693   */\n      iszero\n      tag_332\n      jumpi\n        /* \"#utility.yul\":14568:14587   */\n      dup8\n      dup6\n      add\n        /* \"#utility.yul\":14562:14588   */\n      mload\n      not(0x00)\n        /* \"#utility.yul\":14651:14652   */\n      0x03\n        /* \"#utility.yul\":14647:14661   */\n      dup9\n      swap1\n      shl\n        /* \"#utility.yul\":14663:14666   */\n      0xf8\n        /* \"#utility.yul\":14643:14667   */\n      and\n        /* \"#utility.yul\":14639:14676   */\n      shr\n        /* \"#utility.yul\":14635:14677   */\n      not\n        /* \"#utility.yul\":14620:14678   */\n      and\n        /* \"#utility.yul\":14605:14679   */\n      dup2\n      sstore\n        /* \"#utility.yul\":14492:14693   */\n    tag_332:\n      pop\n      pop\n        /* \"#utility.yul\":14739:14740   */\n      0x01\n        /* \"#utility.yul\":14730:14736   */\n      dup5\n        /* \"#utility.yul\":14727:14728   */\n      0x01\n        /* \"#utility.yul\":14723:14737   */\n      shl\n        /* \"#utility.yul\":14719:14741   */\n      add\n        /* \"#utility.yul\":14713:14717   */\n      dup6\n        /* \"#utility.yul\":14706:14742   */\n      sstore\n        /* \"#utility.yul\":14059:15003   */\n    tag_324:\n      pop\n      pop\n      pop\n      pop\n        /* \"#utility.yul\":13664:15009   */\n      pop\n      pop\n      jump\t// out\n        /* \"#utility.yul\":15014:15633   */\n    tag_177:\n        /* \"#utility.yul\":15287:15290   */\n      0x80\n        /* \"#utility.yul\":15276:15285   */\n      dup2\n        /* \"#utility.yul\":15269:15291   */\n      mstore\n        /* \"#utility.yul\":15250:15254   */\n      0x00\n        /* \"#utility.yul\":15314:15360   */\n      tag_334\n        /* \"#utility.yul\":15355:15358   */\n      0x80\n        /* \"#utility.yul\":15344:15353   */\n      dup4\n        /* \"#utility.yul\":15340:15359   */\n      add\n        /* \"#utility.yul\":15332:15338   */\n      dup8\n        /* \"#utility.yul\":15314:15360   */\n      tag_219\n      jump\t// in\n    tag_334:\n        /* \"#utility.yul\":15408:15417   */\n      dup3\n        /* \"#utility.yul\":15400:15406   */\n      dup2\n        /* \"#utility.yul\":15396:15418   */\n      sub\n        /* \"#utility.yul\":15391:15393   */\n      0x20\n        /* \"#utility.yul\":15380:15389   */\n      dup5\n        /* \"#utility.yul\":15376:15394   */\n      add\n        /* \"#utility.yul\":15369:15419   */\n      mstore\n        /* \"#utility.yul\":15442:15475   */\n      tag_335\n        /* \"#utility.yul\":15468:15474   */\n      dup2\n        /* \"#utility.yul\":15460:15466   */\n      dup8\n        /* \"#utility.yul\":15442:15475   */\n      tag_219\n      jump\t// in\n    tag_335:\n        /* \"#utility.yul\":15428:15475   */\n      swap1\n      pop\n        /* \"#utility.yul\":15523:15532   */\n      dup3\n        /* \"#utility.yul\":15515:15521   */\n      dup2\n        /* \"#utility.yul\":15511:15533   */\n      sub\n        /* \"#utility.yul\":15506:15508   */\n      0x40\n        /* \"#utility.yul\":15495:15504   */\n      dup5\n        /* \"#utility.yul\":15491:15509   */\n      add\n        /* \"#utility.yul\":15484:15534   */\n      mstore\n        /* \"#utility.yul\":15551:15584   */\n      tag_336\n        /* \"#utility.yul\":15577:15583   */\n      dup2\n        /* \"#utility.yul\":15569:15575   */\n      dup7\n        /* \"#utility.yul\":15551:15584   */\n      tag_219\n      jump\t// in\n    tag_336:\n        /* \"#utility.yul\":15543:15584   */\n      swap2\n      pop\n      pop\n        /* \"#utility.yul\":15620:15626   */\n      dup3\n        /* \"#utility.yul\":15615:15617   */\n      0x60\n        /* \"#utility.yul\":15604:15613   */\n      dup4\n        /* \"#utility.yul\":15600:15618   */\n      add\n        /* \"#utility.yul\":15593:15627   */\n      mstore\n        /* \"#utility.yul\":15014:15633   */\n      swap6\n      swap5\n      pop\n      pop\n      pop\n      pop\n      pop\n      jump\t// out\n        /* \"#utility.yul\":16334:16548   */\n    tag_213:\n        /* \"#utility.yul\":16482:16484   */\n      0x20\n        /* \"#utility.yul\":16467:16485   */\n      dup2\n      add\n        /* \"#utility.yul\":16494:16542   */\n      tag_291\n        /* \"#utility.yul\":16471:16480   */\n      dup3\n        /* \"#utility.yul\":16524:16530   */\n      dup5\n        /* \"#utility.yul\":16494:16542   */\n      tag_220\n      jump\t// in\n\n    auxdata: 0xa264697066735822122039f13365fc3a40694d27d3a8ae4204c8f9788d87913e93e3776257f59b28a05b64736f6c63430008190033\n}\n",
    "bytecode": {
      "linkReferences": {},
      "object": "6080604052348015600e575f80fd5b50604051611687380380611687833981016040819052602b9160a5565b60018055600280546001600160a01b0319166001600160a01b0383161790556051336056565b5060d0565b5f80546001600160a01b038381166001600160a01b0319831681178455604051919092169283917f8292fce18fa69edf4db7b94ea2e58241df0ae57f97e0a6c9b29067028bf92d769190a35050565b5f6020828403121560b4575f80fd5b81516001600160a01b038116811460c9575f80fd5b9392505050565b6115aa806100dd5f395ff3fe608060405234801561000f575f80fd5b50600436106100c4575f3560e01c806376e004061161007d578063b1283e7711610058578063b1283e77146101ea578063df55406e14610211578063ec97908214610224575f80fd5b806376e004061461015e5780637f1a10da1461017f5780638da5cb5b146101da575f80fd5b80633ec79193116100ad5780633ec79193146100f057806343425e8814610120578063677bd9ff1461014b575f80fd5b806313af4035146100c857806339b46372146100dd575b5f80fd5b6100db6100d6366004611002565b61022d565b005b6100db6100eb36600461102f565b610263565b6101036100fe366004611064565b610500565b6040516101179897969594939291906110dd565b60405180910390f35b600254610133906001600160a01b031681565b6040516001600160a01b039091168152602001610117565b6100db610159366004611064565b61070c565b61017161016c3660046111ec565b610a61565b604051908152602001610117565b6101c561018d366004611276565b5f9182526004602090815260408084206001600160a01b03939093168452600883018252808420546009909301909152909120549091565b60408051928352602083019190915201610117565b5f546001600160a01b0316610133565b6101fd6101f8366004611064565b610bea565b6040516101179897969594939291906112a0565b6100db61021f366004611311565b610dc8565b61017160035481565b5f546001600160a01b03163314610257576040516316ccb9cb60e11b815260040160405180910390fd5b61026081610f80565b50565b5f838152600460205260409020600181015442106102c85760405162461bcd60e51b815260206004820152601f60248201527f4d61726b65742074726164696e6720706572696f642068617320656e6465640060448201526064015b60405180910390fd5b600781015460ff161561031d5760405162461bcd60e51b815260206004820152601760248201527f4d61726b657420616c7265616479207265736f6c76656400000000000000000060448201526064016102bf565b5f821161036c5760405162461bcd60e51b815260206004820152601760248201527f416d6f756e74206d75737420626520706f73697469766500000000000000000060448201526064016102bf565b6002546040516323b872dd60e01b8152336004820152306024820152604481018490526001600160a01b03909116906323b872dd906064016020604051808303815f875af11580156103c0573d5f803e3d5ffd5b505050506040513d601f19601f820116820180604052508101906103e49190611342565b6104305760405162461bcd60e51b815260206004820152601560248201527f546f6b656e207472616e73666572206661696c6564000000000000000000000060448201526064016102bf565b821561047b57335f90815260088201602052604081208054849290610456908490611371565b9250508190555081816005015f8282546104709190611371565b909155506104bb9050565b335f9081526009820160205260408120805484929061049b908490611371565b9250508190555081816006015f8282546104b59190611371565b90915550505b60408051841515815260208101849052339186917fb3a1ddef05fa52ff8a462662e00f5fd54a3b35e85417cafcaa671fb30434bd11910160405180910390a350505050565b5f818152600460208190526040822060018101546002820154600583015460068401546007850154855460609889988998919788978897889788979596879660038801968801959460ff908116949392911690889061055e9061138a565b80601f016020809104026020016040519081016040528092919081815260200182805461058a9061138a565b80156105d55780601f106105ac576101008083540402835291602001916105d5565b820191905f5260205f20905b8154815290600101906020018083116105b857829003601f168201915b505050505097508680546105e89061138a565b80601f01602080910402602001604051908101604052809291908181526020018280546106149061138a565b801561065f5780601f106106365761010080835404028352916020019161065f565b820191905f5260205f20905b81548152906001019060200180831161064257829003601f168201915b505050505096508580546106729061138a565b80601f016020809104026020016040519081016040528092919081815260200182805461069e9061138a565b80156106e95780601f106106c0576101008083540402835291602001916106e9565b820191905f5260205f20905b8154815290600101906020018083116106cc57829003601f168201915b505050505095509850985098509850985098509850985050919395975091939597565b5f818152600460205260409020600781015460ff1661076d5760405162461bcd60e51b815260206004820152601760248201527f4d61726b6574206e6f74207265736f6c7665642079657400000000000000000060448201526064016102bf565b335f908152600a8201602052604090205460ff16156107ce5760405162461bcd60e51b815260206004820152601860248201527f57696e6e696e677320616c726561647920636c61696d6564000000000000000060448201526064016102bf565b5f8080600160028086015460ff16908111156107ec576107ec6110a9565b0361081b575050335f9081526008830160205260408120805460058501546006860154939092559250906108ab565b60028481015460ff1681811115610834576108346110a9565b03610863575050335f9081526009830160205260408120805460068501546005860154939092559250906108ab565b60405162461bcd60e51b815260206004820152601b60248201527f4d61726b6574206f7574636f6d65206973206e6f742076616c6964000000000060448201526064016102bf565b5f83116108fa5760405162461bcd60e51b815260206004820152601460248201527f4e6f2077696e6e696e677320746f20636c61696d00000000000000000000000060448201526064016102bf565b5f8261090e83670de0b6b3a76400006113c2565b61091891906113d9565b90505f670de0b6b3a764000061092e83876113c2565b61093891906113d9565b6109429086611371565b60025460405163a9059cbb60e01b8152336004820152602481018390529192506001600160a01b03169063a9059cbb906044016020604051808303815f875af1158015610991573d5f803e3d5ffd5b505050506040513d601f19601f820116820180604052508101906109b59190611342565b610a015760405162461bcd60e51b815260206004820152601560248201527f546f6b656e207472616e73666572206661696c6564000000000000000000000060448201526064016102bf565b335f818152600a8801602052604090819020805460ff191660011790555188907f4ec90e965519d92681267467f775ada5bd214aa92c0dc93d90a5e880ce9ed02690610a509085815260200190565b60405180910390a350505050505050565b5f80546001600160a01b03163314610a8c576040516316ccb9cb60e11b815260040160405180910390fd5b5f8211610adb5760405162461bcd60e51b815260206004820152601960248201527f4475726174696f6e206d75737420626520706f7369746976650000000000000060448201526064016102bf565b5f8451118015610aeb57505f8351115b610b375760405162461bcd60e51b815260206004820152601760248201527f4f7074696f6e732063616e6e6f7420626520656d70747900000000000000000060448201526064016102bf565b600380545f9182610b47836113f8565b909155505f81815260046020526040902090915080610b66888261145c565b5060038101610b75878261145c565b5060048101610b84868261145c565b50610b8f8442611371565b6001820181905560028201805460ff1916905560405183917fa2d123850430ad736c7d9b724e8f4ac57a15f478145540d7d4f9e01af14147f691610bd8918b918b918b9161151c565b60405180910390a25095945050505050565b60046020525f9081526040902080548190610c049061138a565b80601f0160208091040260200160405190810160405280929190818152602001828054610c309061138a565b8015610c7b5780601f10610c5257610100808354040283529160200191610c7b565b820191905f5260205f20905b815481529060010190602001808311610c5e57829003601f168201915b50505050600183015460028401546003850180549495929460ff909216935090610ca49061138a565b80601f0160208091040260200160405190810160405280929190818152602001828054610cd09061138a565b8015610d1b5780601f10610cf257610100808354040283529160200191610d1b565b820191905f5260205f20905b815481529060010190602001808311610cfe57829003601f168201915b505050505090806004018054610d309061138a565b80601f0160208091040260200160405190810160405280929190818152602001828054610d5c9061138a565b8015610da75780601f10610d7e57610100808354040283529160200191610da7565b820191905f5260205f20905b815481529060010190602001808311610d8a57829003601f168201915b50505050600583015460068401546007909401549293909290915060ff1688565b5f546001600160a01b03163314610df2576040516316ccb9cb60e11b815260040160405180910390fd5b5f8281526004602052604090206001810154421015610e535760405162461bcd60e51b815260206004820152601760248201527f4d61726b6574206861736e277420656e6465642079657400000000000000000060448201526064016102bf565b600781015460ff1615610ea85760405162461bcd60e51b815260206004820152601760248201527f4d61726b657420616c7265616479207265736f6c76656400000000000000000060448201526064016102bf565b5f826002811115610ebb57610ebb6110a9565b03610f085760405162461bcd60e51b815260206004820152600f60248201527f496e76616c6964206f7574636f6d65000000000000000000000000000000000060448201526064016102bf565b81816002015f6101000a81548160ff02191690836002811115610f2d57610f2d6110a9565b021790555060078101805460ff1916600117905560405183907f739f283563fb51ab6b89ee95d937b2e63a6cfcb83c385dbebb629f9d97bd43e690610f73908590611566565b60405180910390a2505050565b5f80546001600160a01b038381167fffffffffffffffffffffffff0000000000000000000000000000000000000000831681178455604051919092169283917f8292fce18fa69edf4db7b94ea2e58241df0ae57f97e0a6c9b29067028bf92d769190a35050565b80356001600160a01b0381168114610ffd575f80fd5b919050565b5f60208284031215611012575f80fd5b61101b82610fe7565b9392505050565b8015158114610260575f80fd5b5f805f60608486031215611041575f80fd5b83359250602084013561105381611022565b929592945050506040919091013590565b5f60208284031215611074575f80fd5b5035919050565b5f81518084528060208401602086015e5f602082860101526020601f19601f83011685010191505092915050565b634e487b7160e01b5f52602160045260245ffd5b600381106110d957634e487b7160e01b5f52602160045260245ffd5b9052565b5f6101008083526110f08184018c61107b565b90508281036020840152611104818b61107b565b90508281036040840152611118818a61107b565b91505086606083015261112e60808301876110bd565b8460a08301528360c083015282151560e08301529998505050505050505050565b634e487b7160e01b5f52604160045260245ffd5b5f82601f830112611172575f80fd5b813567ffffffffffffffff8082111561118d5761118d61114f565b604051601f8301601f19908116603f011681019082821181831017156111b5576111b561114f565b816040528381528660208588010111156111cd575f80fd5b836020870160208301375f602085830101528094505050505092915050565b5f805f80608085870312156111ff575f80fd5b843567ffffffffffffffff80821115611216575f80fd5b61122288838901611163565b95506020870135915080821115611237575f80fd5b61124388838901611163565b94506040870135915080821115611258575f80fd5b5061126587828801611163565b949793965093946060013593505050565b5f8060408385031215611287575f80fd5b8235915061129760208401610fe7565b90509250929050565b5f6101008083526112b38184018c61107b565b90508960208401526112c8604084018a6110bd565b82810360608401526112da818961107b565b905082810360808401526112ee818861107b565b60a0840196909652505060c0810192909252151560e09091015295945050505050565b5f8060408385031215611322575f80fd5b82359150602083013560038110611337575f80fd5b809150509250929050565b5f60208284031215611352575f80fd5b815161101b81611022565b634e487b7160e01b5f52601160045260245ffd5b808201808211156113845761138461135d565b92915050565b600181811c9082168061139e57607f821691505b6020821081036113bc57634e487b7160e01b5f52602260045260245ffd5b50919050565b80820281158282048414176113845761138461135d565b5f826113f357634e487b7160e01b5f52601260045260245ffd5b500490565b5f600182016114095761140961135d565b5060010190565b601f82111561145757805f5260205f20601f840160051c810160208510156114355750805b601f840160051c820191505b81811015611454575f8155600101611441565b50505b505050565b815167ffffffffffffffff8111156114765761147661114f565b61148a81611484845461138a565b84611410565b602080601f8311600181146114bd575f84156114a65750858301515b5f19600386901b1c1916600185901b178555611514565b5f85815260208120601f198616915b828110156114eb578886015182559484019460019091019084016114cc565b508582101561150857878501515f19600388901b60f8161c191681555b505060018460011b0185555b505050505050565b608081525f61152e608083018761107b565b8281036020840152611540818761107b565b90508281036040840152611554818661107b565b91505082606083015295945050505050565b6020810161138482846110bd56fea264697066735822122039f13365fc3a40694d27d3a8ae4204c8f9788d87913e93e3776257f59b28a05b64736f6c63430008190033",
      "opcodes": "PUSH1 0x80 PUSH1 0x40 MSTORE CALLVALUE DUP1 ISZERO PUSH1 0xE JUMPI PUSH0 DUP1 REVERT JUMPDEST POP PUSH1 0x40 MLOAD PUSH2 0x1687 CODESIZE SUB DUP1 PUSH2 0x1687 DUP4 CODECOPY DUP2 ADD PUSH1 0x40 DUP2 SWAP1 MSTORE PUSH1 0x2B SWAP2 PUSH1 0xA5 JUMP JUMPDEST PUSH1 0x1 DUP1 SSTORE PUSH1 0x2 DUP1 SLOAD PUSH1 0x1 PUSH1 0x1 PUSH1 0xA0 SHL SUB NOT AND PUSH1 0x1 PUSH1 0x1 PUSH1 0xA0 SHL SUB DUP4 AND OR SWAP1 SSTORE PUSH1 0x51 CALLER PUSH1 0x56 JUMP JUMPDEST POP PUSH1 0xD0 JUMP JUMPDEST PUSH0 DUP1 SLOAD PUSH1 0x1 PUSH1 0x1 PUSH1 0xA0 SHL SUB DUP4 DUP2 AND PUSH1 0x1 PUSH1 0x1 PUSH1 0xA0 SHL SUB NOT DUP4 AND DUP2 OR DUP5 SSTORE PUSH1 0x40 MLOAD SWAP2 SWAP1 SWAP3 AND SWAP3 DUP4 SWAP2 PUSH32 0x8292FCE18FA69EDF4DB7B94EA2E58241DF0AE57F97E0A6C9B29067028BF92D76 SWAP2 SWAP1 LOG3 POP POP JUMP JUMPDEST PUSH0 PUSH1 0x20 DUP3 DUP5 SUB SLT ISZERO PUSH1 0xB4 JUMPI PUSH0 DUP1 REVERT JUMPDEST DUP2 MLOAD PUSH1 0x1 PUSH1 0x1 PUSH1 0xA0 SHL SUB DUP2 AND DUP2 EQ PUSH1 0xC9 JUMPI PUSH0 DUP1 REVERT JUMPDEST SWAP4 SWAP3 POP POP POP JUMP JUMPDEST PUSH2 0x15AA DUP1 PUSH2 0xDD PUSH0 CODECOPY PUSH0 RETURN INVALID PUSH1 0x80 PUSH1 0x40 MSTORE CALLVALUE DUP1 ISZERO PUSH2 0xF JUMPI PUSH0 DUP1 REVERT JUMPDEST POP PUSH1 0x4 CALLDATASIZE LT PUSH2 0xC4 JUMPI PUSH0 CALLDATALOAD PUSH1 0xE0 SHR DUP1 PUSH4 0x76E00406 GT PUSH2 0x7D JUMPI DUP1 PUSH4 0xB1283E77 GT PUSH2 0x58 JUMPI DUP1 PUSH4 0xB1283E77 EQ PUSH2 0x1EA JUMPI DUP1 PUSH4 0xDF55406E EQ PUSH2 0x211 JUMPI DUP1 PUSH4 0xEC979082 EQ PUSH2 0x224 JUMPI PUSH0 DUP1 REVERT JUMPDEST DUP1 PUSH4 0x76E00406 EQ PUSH2 0x15E JUMPI DUP1 PUSH4 0x7F1A10DA EQ PUSH2 0x17F JUMPI DUP1 PUSH4 0x8DA5CB5B EQ PUSH2 0x1DA JUMPI PUSH0 DUP1 REVERT JUMPDEST DUP1 PUSH4 0x3EC79193 GT PUSH2 0xAD JUMPI DUP1 PUSH4 0x3EC79193 EQ PUSH2 0xF0 JUMPI DUP1 PUSH4 0x43425E88 EQ PUSH2 0x120 JUMPI DUP1 PUSH4 0x677BD9FF EQ PUSH2 0x14B JUMPI PUSH0 DUP1 REVERT JUMPDEST DUP1 PUSH4 0x13AF4035 EQ PUSH2 0xC8 JUMPI DUP1 PUSH4 0x39B46372 EQ PUSH2 0xDD JUMPI JUMPDEST PUSH0 DUP1 REVERT JUMPDEST PUSH2 0xDB PUSH2 0xD6 CALLDATASIZE PUSH1 0x4 PUSH2 0x1002 JUMP JUMPDEST PUSH2 0x22D JUMP JUMPDEST STOP JUMPDEST PUSH2 0xDB PUSH2 0xEB CALLDATASIZE PUSH1 0x4 PUSH2 0x102F JUMP JUMPDEST PUSH2 0x263 JUMP JUMPDEST PUSH2 0x103 PUSH2 0xFE CALLDATASIZE PUSH1 0x4 PUSH2 0x1064 JUMP JUMPDEST PUSH2 0x500 JUMP JUMPDEST PUSH1 0x40 MLOAD PUSH2 0x117 SWAP9 SWAP8 SWAP7 SWAP6 SWAP5 SWAP4 SWAP3 SWAP2 SWAP1 PUSH2 0x10DD JUMP JUMPDEST PUSH1 0x40 MLOAD DUP1 SWAP2 SUB SWAP1 RETURN JUMPDEST PUSH1 0x2 SLOAD PUSH2 0x133 SWAP1 PUSH1 0x1 PUSH1 0x1 PUSH1 0xA0 SHL SUB AND DUP2 JUMP JUMPDEST PUSH1 0x40 MLOAD PUSH1 0x1 PUSH1 0x1 PUSH1 0xA0 SHL SUB SWAP1 SWAP2 AND DUP2 MSTORE PUSH1 0x20 ADD PUSH2 0x117 JUMP JUMPDEST PUSH2 0xDB PUSH2 0x159 CALLDATASIZE PUSH1 0x4 PUSH2 0x1064 JUMP JUMPDEST PUSH2 0x70C JUMP JUMPDEST PUSH2 0x171 PUSH2 0x16C CALLDATASIZE PUSH1 0x4 PUSH2 0x11EC JUMP JUMPDEST PUSH2 0xA61 JUMP JUMPDEST PUSH1 0x40 MLOAD SWAP1 DUP2 MSTORE PUSH1 0x20 ADD PUSH2 0x117 JUMP JUMPDEST PUSH2 0x1C5 PUSH2 0x18D CALLDATASIZE PUSH1 0x4 PUSH2 0x1276 JUMP JUMPDEST PUSH0 SWAP2 DUP3 MSTORE PUSH1 0x4 PUSH1 0x20 SWAP1 DUP2 MSTORE PUSH1 0x40 DUP1 DUP5 KECCAK256 PUSH1 0x1 PUSH1 0x1 PUSH1 0xA0 SHL SUB SWAP4 SWAP1 SWAP4 AND DUP5 MSTORE PUSH1 0x8 DUP4 ADD DUP3 MSTORE DUP1 DUP5 KECCAK256 SLOAD PUSH1 0x9 SWAP1 SWAP4 ADD SWAP1 SWAP2 MSTORE SWAP1 SWAP2 KECCAK256 SLOAD SWAP1 SWAP2 JUMP JUMPDEST PUSH1 0x40 DUP1 MLOAD SWAP3 DUP4 MSTORE PUSH1 0x20 DUP4 ADD SWAP2 SWAP1 SWAP2 MSTORE ADD PUSH2 0x117 JUMP JUMPDEST PUSH0 SLOAD PUSH1 0x1 PUSH1 0x1 PUSH1 0xA0 SHL SUB AND PUSH2 0x133 JUMP JUMPDEST PUSH2 0x1FD PUSH2 0x1F8 CALLDATASIZE PUSH1 0x4 PUSH2 0x1064 JUMP JUMPDEST PUSH2 0xBEA JUMP JUMPDEST PUSH1 0x40 MLOAD PUSH2 0x117 SWAP9 SWAP8 SWAP7 SWAP6 SWAP5 SWAP4 SWAP3 SWAP2 SWAP1 PUSH2 0x12A0 JUMP JUMPDEST PUSH2 0xDB PUSH2 0x21F CALLDATASIZE PUSH1 0x4 PUSH2 0x1311 JUMP JUMPDEST PUSH2 0xDC8 JUMP JUMPDEST PUSH2 0x171 PUSH1 0x3 SLOAD DUP2 JUMP JUMPDEST PUSH0 SLOAD PUSH1 0x1 PUSH1 0x1 PUSH1 0xA0 SHL SUB AND CALLER EQ PUSH2 0x257 JUMPI PUSH1 0x40 MLOAD PUSH4 0x16CCB9CB PUSH1 0xE1 SHL DUP2 MSTORE PUSH1 0x4 ADD PUSH1 0x40 MLOAD DUP1 SWAP2 SUB SWAP1 REVERT JUMPDEST PUSH2 0x260 DUP2 PUSH2 0xF80 JUMP JUMPDEST POP JUMP JUMPDEST PUSH0 DUP4 DUP2 MSTORE PUSH1 0x4 PUSH1 0x20 MSTORE PUSH1 0x40 SWAP1 KECCAK256 PUSH1 0x1 DUP2 ADD SLOAD TIMESTAMP LT PUSH2 0x2C8 JUMPI PUSH1 0x40 MLOAD PUSH3 0x461BCD PUSH1 0xE5 SHL DUP2 MSTORE PUSH1 0x20 PUSH1 0x4 DUP3 ADD MSTORE PUSH1 0x1F PUSH1 0x24 DUP3 ADD MSTORE PUSH32 0x4D61726B65742074726164696E6720706572696F642068617320656E64656400 PUSH1 0x44 DUP3 ADD MSTORE PUSH1 0x64 ADD JUMPDEST PUSH1 0x40 MLOAD DUP1 SWAP2 SUB SWAP1 REVERT JUMPDEST PUSH1 0x7 DUP2 ADD SLOAD PUSH1 0xFF AND ISZERO PUSH2 0x31D JUMPI PUSH1 0x40 MLOAD PUSH3 0x461BCD PUSH1 0xE5 SHL DUP2 MSTORE PUSH1 0x20 PUSH1 0x4 DUP3 ADD MSTORE PUSH1 0x17 PUSH1 0x24 DUP3 ADD MSTORE PUSH32 0x4D61726B657420616C7265616479207265736F6C766564000000000000000000 PUSH1 0x44 DUP3 ADD MSTORE PUSH1 0x64 ADD PUSH2 0x2BF JUMP JUMPDEST PUSH0 DUP3 GT PUSH2 0x36C JUMPI PUSH1 0x40 MLOAD PUSH3 0x461BCD PUSH1 0xE5 SHL DUP2 MSTORE PUSH1 0x20 PUSH1 0x4 DUP3 ADD MSTORE PUSH1 0x17 PUSH1 0x24 DUP3 ADD MSTORE PUSH32 0x416D6F756E74206D75737420626520706F736974697665000000000000000000 PUSH1 0x44 DUP3 ADD MSTORE PUSH1 0x64 ADD PUSH2 0x2BF JUMP JUMPDEST PUSH1 0x2 SLOAD PUSH1 0x40 MLOAD PUSH4 0x23B872DD PUSH1 0xE0 SHL DUP2 MSTORE CALLER PUSH1 0x4 DUP3 ADD MSTORE ADDRESS PUSH1 0x24 DUP3 ADD MSTORE PUSH1 0x44 DUP2 ADD DUP5 SWAP1 MSTORE PUSH1 0x1 PUSH1 0x1 PUSH1 0xA0 SHL SUB SWAP1 SWAP2 AND SWAP1 PUSH4 0x23B872DD SWAP1 PUSH1 0x64 ADD PUSH1 0x20 PUSH1 0x40 MLOAD DUP1 DUP4 SUB DUP2 PUSH0 DUP8 GAS CALL ISZERO DUP1 ISZERO PUSH2 0x3C0 JUMPI RETURNDATASIZE PUSH0 DUP1 RETURNDATACOPY RETURNDATASIZE PUSH0 REVERT JUMPDEST POP POP POP POP PUSH1 0x40 MLOAD RETURNDATASIZE PUSH1 0x1F NOT PUSH1 0x1F DUP3 ADD AND DUP3 ADD DUP1 PUSH1 0x40 MSTORE POP DUP2 ADD SWAP1 PUSH2 0x3E4 SWAP2 SWAP1 PUSH2 0x1342 JUMP JUMPDEST PUSH2 0x430 JUMPI PUSH1 0x40 MLOAD PUSH3 0x461BCD PUSH1 0xE5 SHL DUP2 MSTORE PUSH1 0x20 PUSH1 0x4 DUP3 ADD MSTORE PUSH1 0x15 PUSH1 0x24 DUP3 ADD MSTORE PUSH32 0x546F6B656E207472616E73666572206661696C65640000000000000000000000 PUSH1 0x44 DUP3 ADD MSTORE PUSH1 0x64 ADD PUSH2 0x2BF JUMP JUMPDEST DUP3 ISZERO PUSH2 0x47B JUMPI CALLER PUSH0 SWAP1 DUP2 MSTORE PUSH1 0x8 DUP3 ADD PUSH1 0x20 MSTORE PUSH1 0x40 DUP2 KECCAK256 DUP1 SLOAD DUP5 SWAP3 SWAP1 PUSH2 0x456 SWAP1 DUP5 SWAP1 PUSH2 0x1371 JUMP JUMPDEST SWAP3 POP POP DUP2 SWAP1 SSTORE POP DUP2 DUP2 PUSH1 0x5 ADD PUSH0 DUP3 DUP3 SLOAD PUSH2 0x470 SWAP2 SWAP1 PUSH2 0x1371 JUMP JUMPDEST SWAP1 SWAP2 SSTORE POP PUSH2 0x4BB SWAP1 POP JUMP JUMPDEST CALLER PUSH0 SWAP1 DUP2 MSTORE PUSH1 0x9 DUP3 ADD PUSH1 0x20 MSTORE PUSH1 0x40 DUP2 KECCAK256 DUP1 SLOAD DUP5 SWAP3 SWAP1 PUSH2 0x49B SWAP1 DUP5 SWAP1 PUSH2 0x1371 JUMP JUMPDEST SWAP3 POP POP DUP2 SWAP1 SSTORE POP DUP2 DUP2 PUSH1 0x6 ADD PUSH0 DUP3 DUP3 SLOAD PUSH2 0x4B5 SWAP2 SWAP1 PUSH2 0x1371 JUMP JUMPDEST SWAP1 SWAP2 SSTORE POP POP JUMPDEST PUSH1 0x40 DUP1 MLOAD DUP5 ISZERO ISZERO DUP2 MSTORE PUSH1 0x20 DUP2 ADD DUP5 SWAP1 MSTORE CALLER SWAP2 DUP7 SWAP2 PUSH32 0xB3A1DDEF05FA52FF8A462662E00F5FD54A3B35E85417CAFCAA671FB30434BD11 SWAP2 ADD PUSH1 0x40 MLOAD DUP1 SWAP2 SUB SWAP1 LOG3 POP POP POP POP JUMP JUMPDEST PUSH0 DUP2 DUP2 MSTORE PUSH1 0x4 PUSH1 0x20 DUP2 SWAP1 MSTORE PUSH1 0x40 DUP3 KECCAK256 PUSH1 0x1 DUP2 ADD SLOAD PUSH1 0x2 DUP3 ADD SLOAD PUSH1 0x5 DUP4 ADD SLOAD PUSH1 0x6 DUP5 ADD SLOAD PUSH1 0x7 DUP6 ADD SLOAD DUP6 SLOAD PUSH1 0x60 SWAP9 DUP10 SWAP9 DUP10 SWAP9 SWAP2 SWAP8 DUP9 SWAP8 DUP9 SWAP8 DUP9 SWAP8 DUP9 SWAP8 SWAP6 SWAP7 DUP8 SWAP7 PUSH1 0x3 DUP9 ADD SWAP7 DUP9 ADD SWAP6 SWAP5 PUSH1 0xFF SWAP1 DUP2 AND SWAP5 SWAP4 SWAP3 SWAP2 AND SWAP1 DUP9 SWAP1 PUSH2 0x55E SWAP1 PUSH2 0x138A JUMP JUMPDEST DUP1 PUSH1 0x1F ADD PUSH1 0x20 DUP1 SWAP2 DIV MUL PUSH1 0x20 ADD PUSH1 0x40 MLOAD SWAP1 DUP2 ADD PUSH1 0x40 MSTORE DUP1 SWAP3 SWAP2 SWAP1 DUP2 DUP2 MSTORE PUSH1 0x20 ADD DUP3 DUP1 SLOAD PUSH2 0x58A SWAP1 PUSH2 0x138A JUMP JUMPDEST DUP1 ISZERO PUSH2 0x5D5 JUMPI DUP1 PUSH1 0x1F LT PUSH2 0x5AC JUMPI PUSH2 0x100 DUP1 DUP4 SLOAD DIV MUL DUP4 MSTORE SWAP2 PUSH1 0x20 ADD SWAP2 PUSH2 0x5D5 JUMP JUMPDEST DUP3 ADD SWAP2 SWAP1 PUSH0 MSTORE PUSH1 0x20 PUSH0 KECCAK256 SWAP1 JUMPDEST DUP2 SLOAD DUP2 MSTORE SWAP1 PUSH1 0x1 ADD SWAP1 PUSH1 0x20 ADD DUP1 DUP4 GT PUSH2 0x5B8 JUMPI DUP3 SWAP1 SUB PUSH1 0x1F AND DUP3 ADD SWAP2 JUMPDEST POP POP POP POP POP SWAP8 POP DUP7 DUP1 SLOAD PUSH2 0x5E8 SWAP1 PUSH2 0x138A JUMP JUMPDEST DUP1 PUSH1 0x1F ADD PUSH1 0x20 DUP1 SWAP2 DIV MUL PUSH1 0x20 ADD PUSH1 0x40 MLOAD SWAP1 DUP2 ADD PUSH1 0x40 MSTORE DUP1 SWAP3 SWAP2 SWAP1 DUP2 DUP2 MSTORE PUSH1 0x20 ADD DUP3 DUP1 SLOAD PUSH2 0x614 SWAP1 PUSH2 0x138A JUMP JUMPDEST DUP1 ISZERO PUSH2 0x65F JUMPI DUP1 PUSH1 0x1F LT PUSH2 0x636 JUMPI PUSH2 0x100 DUP1 DUP4 SLOAD DIV MUL DUP4 MSTORE SWAP2 PUSH1 0x20 ADD SWAP2 PUSH2 0x65F JUMP JUMPDEST DUP3 ADD SWAP2 SWAP1 PUSH0 MSTORE PUSH1 0x20 PUSH0 KECCAK256 SWAP1 JUMPDEST DUP2 SLOAD DUP2 MSTORE SWAP1 PUSH1 0x1 ADD SWAP1 PUSH1 0x20 ADD DUP1 DUP4 GT PUSH2 0x642 JUMPI DUP3 SWAP1 SUB PUSH1 0x1F AND DUP3 ADD SWAP2 JUMPDEST POP POP POP POP POP SWAP7 POP DUP6 DUP1 SLOAD PUSH2 0x672 SWAP1 PUSH2 0x138A JUMP JUMPDEST DUP1 PUSH1 0x1F ADD PUSH1 0x20 DUP1 SWAP2 DIV MUL PUSH1 0x20 ADD PUSH1 0x40 MLOAD SWAP1 DUP2 ADD PUSH1 0x40 MSTORE DUP1 SWAP3 SWAP2 SWAP1 DUP2 DUP2 MSTORE PUSH1 0x20 ADD DUP3 DUP1 SLOAD PUSH2 0x69E SWAP1 PUSH2 0x138A JUMP JUMPDEST DUP1 ISZERO PUSH2 0x6E9 JUMPI DUP1 PUSH1 0x1F LT PUSH2 0x6C0 JUMPI PUSH2 0x100 DUP1 DUP4 SLOAD DIV MUL DUP4 MSTORE SWAP2 PUSH1 0x20 ADD SWAP2 PUSH2 0x6E9 JUMP JUMPDEST DUP3 ADD SWAP2 SWAP1 PUSH0 MSTORE PUSH1 0x20 PUSH0 KECCAK256 SWAP1 JUMPDEST DUP2 SLOAD DUP2 MSTORE SWAP1 PUSH1 0x1 ADD SWAP1 PUSH1 0x20 ADD DUP1 DUP4 GT PUSH2 0x6CC JUMPI DUP3 SWAP1 SUB PUSH1 0x1F AND DUP3 ADD SWAP2 JUMPDEST POP POP POP POP POP SWAP6 POP SWAP9 POP SWAP9 POP SWAP9 POP SWAP9 POP SWAP9 POP SWAP9 POP SWAP9 POP SWAP9 POP POP SWAP2 SWAP4 SWAP6 SWAP8 POP SWAP2 SWAP4 SWAP6 SWAP8 JUMP JUMPDEST PUSH0 DUP2 DUP2 MSTORE PUSH1 0x4 PUSH1 0x20 MSTORE PUSH1 0x40 SWAP1 KECCAK256 PUSH1 0x7 DUP2 ADD SLOAD PUSH1 0xFF AND PUSH2 0x76D JUMPI PUSH1 0x40 MLOAD PUSH3 0x461BCD PUSH1 0xE5 SHL DUP2 MSTORE PUSH1 0x20 PUSH1 0x4 DUP3 ADD MSTORE PUSH1 0x17 PUSH1 0x24 DUP3 ADD MSTORE PUSH32 0x4D61726B6574206E6F74207265736F6C76656420796574000000000000000000 PUSH1 0x44 DUP3 ADD MSTORE PUSH1 0x64 ADD PUSH2 0x2BF JUMP JUMPDEST CALLER PUSH0 SWAP1 DUP2 MSTORE PUSH1 0xA DUP3 ADD PUSH1 0x20 MSTORE PUSH1 0x40 SWAP1 KECCAK256 SLOAD PUSH1 0xFF AND ISZERO PUSH2 0x7CE JUMPI PUSH1 0x40 MLOAD PUSH3 0x461BCD PUSH1 0xE5 SHL DUP2 MSTORE PUSH1 0x20 PUSH1 0x4 DUP3 ADD MSTORE PUSH1 0x18 PUSH1 0x24 DUP3 ADD MSTORE PUSH32 0x57696E6E696E677320616C726561647920636C61696D65640000000000000000 PUSH1 0x44 DUP3 ADD MSTORE PUSH1 0x64 ADD PUSH2 0x2BF JUMP JUMPDEST PUSH0 DUP1 DUP1 PUSH1 0x1 PUSH1 0x2 DUP1 DUP7 ADD SLOAD PUSH1 0xFF AND SWAP1 DUP2 GT ISZERO PUSH2 0x7EC JUMPI PUSH2 0x7EC PUSH2 0x10A9 JUMP JUMPDEST SUB PUSH2 0x81B JUMPI POP POP CALLER PUSH0 SWAP1 DUP2 MSTORE PUSH1 0x8 DUP4 ADD PUSH1 0x20 MSTORE PUSH1 0x40 DUP2 KECCAK256 DUP1 SLOAD PUSH1 0x5 DUP6 ADD SLOAD PUSH1 0x6 DUP7 ADD SLOAD SWAP4 SWAP1 SWAP3 SSTORE SWAP3 POP SWAP1 PUSH2 0x8AB JUMP JUMPDEST PUSH1 0x2 DUP5 DUP2 ADD SLOAD PUSH1 0xFF AND DUP2 DUP2 GT ISZERO PUSH2 0x834 JUMPI PUSH2 0x834 PUSH2 0x10A9 JUMP JUMPDEST SUB PUSH2 0x863 JUMPI POP POP CALLER PUSH0 SWAP1 DUP2 MSTORE PUSH1 0x9 DUP4 ADD PUSH1 0x20 MSTORE PUSH1 0x40 DUP2 KECCAK256 DUP1 SLOAD PUSH1 0x6 DUP6 ADD SLOAD PUSH1 0x5 DUP7 ADD SLOAD SWAP4 SWAP1 SWAP3 SSTORE SWAP3 POP SWAP1 PUSH2 0x8AB JUMP JUMPDEST PUSH1 0x40 MLOAD PUSH3 0x461BCD PUSH1 0xE5 SHL DUP2 MSTORE PUSH1 0x20 PUSH1 0x4 DUP3 ADD MSTORE PUSH1 0x1B PUSH1 0x24 DUP3 ADD MSTORE PUSH32 0x4D61726B6574206F7574636F6D65206973206E6F742076616C69640000000000 PUSH1 0x44 DUP3 ADD MSTORE PUSH1 0x64 ADD PUSH2 0x2BF JUMP JUMPDEST PUSH0 DUP4 GT PUSH2 0x8FA JUMPI PUSH1 0x40 MLOAD PUSH3 0x461BCD PUSH1 0xE5 SHL DUP2 MSTORE PUSH1 0x20 PUSH1 0x4 DUP3 ADD MSTORE PUSH1 0x14 PUSH1 0x24 DUP3 ADD MSTORE PUSH32 0x4E6F2077696E6E696E677320746F20636C61696D000000000000000000000000 PUSH1 0x44 DUP3 ADD MSTORE PUSH1 0x64 ADD PUSH2 0x2BF JUMP JUMPDEST PUSH0 DUP3 PUSH2 0x90E DUP4 PUSH8 0xDE0B6B3A7640000 PUSH2 0x13C2 JUMP JUMPDEST PUSH2 0x918 SWAP2 SWAP1 PUSH2 0x13D9 JUMP JUMPDEST SWAP1 POP PUSH0 PUSH8 0xDE0B6B3A7640000 PUSH2 0x92E DUP4 DUP8 PUSH2 0x13C2 JUMP JUMPDEST PUSH2 0x938 SWAP2 SWAP1 PUSH2 0x13D9 JUMP JUMPDEST PUSH2 0x942 SWAP1 DUP7 PUSH2 0x1371 JUMP JUMPDEST PUSH1 0x2 SLOAD PUSH1 0x40 MLOAD PUSH4 0xA9059CBB PUSH1 0xE0 SHL DUP2 MSTORE CALLER PUSH1 0x4 DUP3 ADD MSTORE PUSH1 0x24 DUP2 ADD DUP4 SWAP1 MSTORE SWAP2 SWAP3 POP PUSH1 0x1 PUSH1 0x1 PUSH1 0xA0 SHL SUB AND SWAP1 PUSH4 0xA9059CBB SWAP1 PUSH1 0x44 ADD PUSH1 0x20 PUSH1 0x40 MLOAD DUP1 DUP4 SUB DUP2 PUSH0 DUP8 GAS CALL ISZERO DUP1 ISZERO PUSH2 0x991 JUMPI RETURNDATASIZE PUSH0 DUP1 RETURNDATACOPY RETURNDATASIZE PUSH0 REVERT JUMPDEST POP POP POP POP PUSH1 0x40 MLOAD RETURNDATASIZE PUSH1 0x1F NOT PUSH1 0x1F DUP3 ADD AND DUP3 ADD DUP1 PUSH1 0x40 MSTORE POP DUP2 ADD SWAP1 PUSH2 0x9B5 SWAP2 SWAP1 PUSH2 0x1342 JUMP JUMPDEST PUSH2 0xA01 JUMPI PUSH1 0x40 MLOAD PUSH3 0x461BCD PUSH1 0xE5 SHL DUP2 MSTORE PUSH1 0x20 PUSH1 0x4 DUP3 ADD MSTORE PUSH1 0x15 PUSH1 0x24 DUP3 ADD MSTORE PUSH32 0x546F6B656E207472616E73666572206661696C65640000000000000000000000 PUSH1 0x44 DUP3 ADD MSTORE PUSH1 0x64 ADD PUSH2 0x2BF JUMP JUMPDEST CALLER PUSH0 DUP2 DUP2 MSTORE PUSH1 0xA DUP9 ADD PUSH1 0x20 MSTORE PUSH1 0x40 SWAP1 DUP2 SWAP1 KECCAK256 DUP1 SLOAD PUSH1 0xFF NOT AND PUSH1 0x1 OR SWAP1 SSTORE MLOAD DUP9 SWAP1 PUSH32 0x4EC90E965519D92681267467F775ADA5BD214AA92C0DC93D90A5E880CE9ED026 SWAP1 PUSH2 0xA50 SWAP1 DUP6 DUP2 MSTORE PUSH1 0x20 ADD SWAP1 JUMP JUMPDEST PUSH1 0x40 MLOAD DUP1 SWAP2 SUB SWAP1 LOG3 POP POP POP POP POP POP POP JUMP JUMPDEST PUSH0 DUP1 SLOAD PUSH1 0x1 PUSH1 0x1 PUSH1 0xA0 SHL SUB AND CALLER EQ PUSH2 0xA8C JUMPI PUSH1 0x40 MLOAD PUSH4 0x16CCB9CB PUSH1 0xE1 SHL DUP2 MSTORE PUSH1 0x4 ADD PUSH1 0x40 MLOAD DUP1 SWAP2 SUB SWAP1 REVERT JUMPDEST PUSH0 DUP3 GT PUSH2 0xADB JUMPI PUSH1 0x40 MLOAD PUSH3 0x461BCD PUSH1 0xE5 SHL DUP2 MSTORE PUSH1 0x20 PUSH1 0x4 DUP3 ADD MSTORE PUSH1 0x19 PUSH1 0x24 DUP3 ADD MSTORE PUSH32 0x4475726174696F6E206D75737420626520706F73697469766500000000000000 PUSH1 0x44 DUP3 ADD MSTORE PUSH1 0x64 ADD PUSH2 0x2BF JUMP JUMPDEST PUSH0 DUP5 MLOAD GT DUP1 ISZERO PUSH2 0xAEB JUMPI POP PUSH0 DUP4 MLOAD GT JUMPDEST PUSH2 0xB37 JUMPI PUSH1 0x40 MLOAD PUSH3 0x461BCD PUSH1 0xE5 SHL DUP2 MSTORE PUSH1 0x20 PUSH1 0x4 DUP3 ADD MSTORE PUSH1 0x17 PUSH1 0x24 DUP3 ADD MSTORE PUSH32 0x4F7074696F6E732063616E6E6F7420626520656D707479000000000000000000 PUSH1 0x44 DUP3 ADD MSTORE PUSH1 0x64 ADD PUSH2 0x2BF JUMP JUMPDEST PUSH1 0x3 DUP1 SLOAD PUSH0 SWAP2 DUP3 PUSH2 0xB47 DUP4 PUSH2 0x13F8 JUMP JUMPDEST SWAP1 SWAP2 SSTORE POP PUSH0 DUP2 DUP2 MSTORE PUSH1 0x4 PUSH1 0x20 MSTORE PUSH1 0x40 SWAP1 KECCAK256 SWAP1 SWAP2 POP DUP1 PUSH2 0xB66 DUP9 DUP3 PUSH2 0x145C JUMP JUMPDEST POP PUSH1 0x3 DUP2 ADD PUSH2 0xB75 DUP8 DUP3 PUSH2 0x145C JUMP JUMPDEST POP PUSH1 0x4 DUP2 ADD PUSH2 0xB84 DUP7 DUP3 PUSH2 0x145C JUMP JUMPDEST POP PUSH2 0xB8F DUP5 TIMESTAMP PUSH2 0x1371 JUMP JUMPDEST PUSH1 0x1 DUP3 ADD DUP2 SWAP1 SSTORE PUSH1 0x2 DUP3 ADD DUP1 SLOAD PUSH1 0xFF NOT AND SWAP1 SSTORE PUSH1 0x40 MLOAD DUP4 SWAP2 PUSH32 0xA2D123850430AD736C7D9B724E8F4AC57A15F478145540D7D4F9E01AF14147F6 SWAP2 PUSH2 0xBD8 SWAP2 DUP12 SWAP2 DUP12 SWAP2 DUP12 SWAP2 PUSH2 0x151C JUMP JUMPDEST PUSH1 0x40 MLOAD DUP1 SWAP2 SUB SWAP1 LOG2 POP SWAP6 SWAP5 POP POP POP POP POP JUMP JUMPDEST PUSH1 0x4 PUSH1 0x20 MSTORE PUSH0 SWAP1 DUP2 MSTORE PUSH1 0x40 SWAP1 KECCAK256 DUP1 SLOAD DUP2 SWAP1 PUSH2 0xC04 SWAP1 PUSH2 0x138A JUMP JUMPDEST DUP1 PUSH1 0x1F ADD PUSH1 0x20 DUP1 SWAP2 DIV MUL PUSH1 0x20 ADD PUSH1 0x40 MLOAD SWAP1 DUP2 ADD PUSH1 0x40 MSTORE DUP1 SWAP3 SWAP2 SWAP1 DUP2 DUP2 MSTORE PUSH1 0x20 ADD DUP3 DUP1 SLOAD PUSH2 0xC30 SWAP1 PUSH2 0x138A JUMP JUMPDEST DUP1 ISZERO PUSH2 0xC7B JUMPI DUP1 PUSH1 0x1F LT PUSH2 0xC52 JUMPI PUSH2 0x100 DUP1 DUP4 SLOAD DIV MUL DUP4 MSTORE SWAP2 PUSH1 0x20 ADD SWAP2 PUSH2 0xC7B JUMP JUMPDEST DUP3 ADD SWAP2 SWAP1 PUSH0 MSTORE PUSH1 0x20 PUSH0 KECCAK256 SWAP1 JUMPDEST DUP2 SLOAD DUP2 MSTORE SWAP1 PUSH1 0x1 ADD SWAP1 PUSH1 0x20 ADD DUP1 DUP4 GT PUSH2 0xC5E JUMPI DUP3 SWAP1 SUB PUSH1 0x1F AND DUP3 ADD SWAP2 JUMPDEST POP POP POP POP PUSH1 0x1 DUP4 ADD SLOAD PUSH1 0x2 DUP5 ADD SLOAD PUSH1 0x3 DUP6 ADD DUP1 SLOAD SWAP5 SWAP6 SWAP3 SWAP5 PUSH1 0xFF SWAP1 SWAP3 AND SWAP4 POP SWAP1 PUSH2 0xCA4 SWAP1 PUSH2 0x138A JUMP JUMPDEST DUP1 PUSH1 0x1F ADD PUSH1 0x20 DUP1 SWAP2 DIV MUL PUSH1 0x20 ADD PUSH1 0x40 MLOAD SWAP1 DUP2 ADD PUSH1 0x40 MSTORE DUP1 SWAP3 SWAP2 SWAP1 DUP2 DUP2 MSTORE PUSH1 0x20 ADD DUP3 DUP1 SLOAD PUSH2 0xCD0 SWAP1 PUSH2 0x138A JUMP JUMPDEST DUP1 ISZERO PUSH2 0xD1B JUMPI DUP1 PUSH1 0x1F LT PUSH2 0xCF2 JUMPI PUSH2 0x100 DUP1 DUP4 SLOAD DIV MUL DUP4 MSTORE SWAP2 PUSH1 0x20 ADD SWAP2 PUSH2 0xD1B JUMP JUMPDEST DUP3 ADD SWAP2 SWAP1 PUSH0 MSTORE PUSH1 0x20 PUSH0 KECCAK256 SWAP1 JUMPDEST DUP2 SLOAD DUP2 MSTORE SWAP1 PUSH1 0x1 ADD SWAP1 PUSH1 0x20 ADD DUP1 DUP4 GT PUSH2 0xCFE JUMPI DUP3 SWAP1 SUB PUSH1 0x1F AND DUP3 ADD SWAP2 JUMPDEST POP POP POP POP POP SWAP1 DUP1 PUSH1 0x4 ADD DUP1 SLOAD PUSH2 0xD30 SWAP1 PUSH2 0x138A JUMP JUMPDEST DUP1 PUSH1 0x1F ADD PUSH1 0x20 DUP1 SWAP2 DIV MUL PUSH1 0x20 ADD PUSH1 0x40 MLOAD SWAP1 DUP2 ADD PUSH1 0x40 MSTORE DUP1 SWAP3 SWAP2 SWAP1 DUP2 DUP2 MSTORE PUSH1 0x20 ADD DUP3 DUP1 SLOAD PUSH2 0xD5C SWAP1 PUSH2 0x138A JUMP JUMPDEST DUP1 ISZERO PUSH2 0xDA7 JUMPI DUP1 PUSH1 0x1F LT PUSH2 0xD7E JUMPI PUSH2 0x100 DUP1 DUP4 SLOAD DIV MUL DUP4 MSTORE SWAP2 PUSH1 0x20 ADD SWAP2 PUSH2 0xDA7 JUMP JUMPDEST DUP3 ADD SWAP2 SWAP1 PUSH0 MSTORE PUSH1 0x20 PUSH0 KECCAK256 SWAP1 JUMPDEST DUP2 SLOAD DUP2 MSTORE SWAP1 PUSH1 0x1 ADD SWAP1 PUSH1 0x20 ADD DUP1 DUP4 GT PUSH2 0xD8A JUMPI DUP3 SWAP1 SUB PUSH1 0x1F AND DUP3 ADD SWAP2 JUMPDEST POP POP POP POP PUSH1 0x5 DUP4 ADD SLOAD PUSH1 0x6 DUP5 ADD SLOAD PUSH1 0x7 SWAP1 SWAP5 ADD SLOAD SWAP3 SWAP4 SWAP1 SWAP3 SWAP1 SWAP2 POP PUSH1 0xFF AND DUP9 JUMP JUMPDEST PUSH0 SLOAD PUSH1 0x1 PUSH1 0x1 PUSH1 0xA0 SHL SUB AND CALLER EQ PUSH2 0xDF2 JUMPI PUSH1 0x40 MLOAD PUSH4 0x16CCB9CB PUSH1 0xE1 SHL DUP2 MSTORE PUSH1 0x4 ADD PUSH1 0x40 MLOAD DUP1 SWAP2 SUB SWAP1 REVERT JUMPDEST PUSH0 DUP3 DUP2 MSTORE PUSH1 0x4 PUSH1 0x20 MSTORE PUSH1 0x40 SWAP1 KECCAK256 PUSH1 0x1 DUP2 ADD SLOAD TIMESTAMP LT ISZERO PUSH2 0xE53 JUMPI PUSH1 0x40 MLOAD PUSH3 0x461BCD PUSH1 0xE5 SHL DUP2 MSTORE PUSH1 0x20 PUSH1 0x4 DUP3 ADD MSTORE PUSH1 0x17 PUSH1 0x24 DUP3 ADD MSTORE PUSH32 0x4D61726B6574206861736E277420656E64656420796574000000000000000000 PUSH1 0x44 DUP3 ADD MSTORE PUSH1 0x64 ADD PUSH2 0x2BF JUMP JUMPDEST PUSH1 0x7 DUP2 ADD SLOAD PUSH1 0xFF AND ISZERO PUSH2 0xEA8 JUMPI PUSH1 0x40 MLOAD PUSH3 0x461BCD PUSH1 0xE5 SHL DUP2 MSTORE PUSH1 0x20 PUSH1 0x4 DUP3 ADD MSTORE PUSH1 0x17 PUSH1 0x24 DUP3 ADD MSTORE PUSH32 0x4D61726B657420616C7265616479207265736F6C766564000000000000000000 PUSH1 0x44 DUP3 ADD MSTORE PUSH1 0x64 ADD PUSH2 0x2BF JUMP JUMPDEST PUSH0 DUP3 PUSH1 0x2 DUP2 GT ISZERO PUSH2 0xEBB JUMPI PUSH2 0xEBB PUSH2 0x10A9 JUMP JUMPDEST SUB PUSH2 0xF08 JUMPI PUSH1 0x40 MLOAD PUSH3 0x461BCD PUSH1 0xE5 SHL DUP2 MSTORE PUSH1 0x20 PUSH1 0x4 DUP3 ADD MSTORE PUSH1 0xF PUSH1 0x24 DUP3 ADD MSTORE PUSH32 0x496E76616C6964206F7574636F6D650000000000000000000000000000000000 PUSH1 0x44 DUP3 ADD MSTORE PUSH1 0x64 ADD PUSH2 0x2BF JUMP JUMPDEST DUP2 DUP2 PUSH1 0x2 ADD PUSH0 PUSH2 0x100 EXP DUP2 SLOAD DUP2 PUSH1 0xFF MUL NOT AND SWAP1 DUP4 PUSH1 0x2 DUP2 GT ISZERO PUSH2 0xF2D JUMPI PUSH2 0xF2D PUSH2 0x10A9 JUMP JUMPDEST MUL OR SWAP1 SSTORE POP PUSH1 0x7 DUP2 ADD DUP1 SLOAD PUSH1 0xFF NOT AND PUSH1 0x1 OR SWAP1 SSTORE PUSH1 0x40 MLOAD DUP4 SWAP1 PUSH32 0x739F283563FB51AB6B89EE95D937B2E63A6CFCB83C385DBEBB629F9D97BD43E6 SWAP1 PUSH2 0xF73 SWAP1 DUP6 SWAP1 PUSH2 0x1566 JUMP JUMPDEST PUSH1 0x40 MLOAD DUP1 SWAP2 SUB SWAP1 LOG2 POP POP POP JUMP JUMPDEST PUSH0 DUP1 SLOAD PUSH1 0x1 PUSH1 0x1 PUSH1 0xA0 SHL SUB DUP4 DUP2 AND PUSH32 0xFFFFFFFFFFFFFFFFFFFFFFFF0000000000000000000000000000000000000000 DUP4 AND DUP2 OR DUP5 SSTORE PUSH1 0x40 MLOAD SWAP2 SWAP1 SWAP3 AND SWAP3 DUP4 SWAP2 PUSH32 0x8292FCE18FA69EDF4DB7B94EA2E58241DF0AE57F97E0A6C9B29067028BF92D76 SWAP2 SWAP1 LOG3 POP POP JUMP JUMPDEST DUP1 CALLDATALOAD PUSH1 0x1 PUSH1 0x1 PUSH1 0xA0 SHL SUB DUP2 AND DUP2 EQ PUSH2 0xFFD JUMPI PUSH0 DUP1 REVERT JUMPDEST SWAP2 SWAP1 POP JUMP JUMPDEST PUSH0 PUSH1 0x20 DUP3 DUP5 SUB SLT ISZERO PUSH2 0x1012 JUMPI PUSH0 DUP1 REVERT JUMPDEST PUSH2 0x101B DUP3 PUSH2 0xFE7 JUMP JUMPDEST SWAP4 SWAP3 POP POP POP JUMP JUMPDEST DUP1 ISZERO ISZERO DUP2 EQ PUSH2 0x260 JUMPI PUSH0 DUP1 REVERT JUMPDEST PUSH0 DUP1 PUSH0 PUSH1 0x60 DUP5 DUP7 SUB SLT ISZERO PUSH2 0x1041 JUMPI PUSH0 DUP1 REVERT JUMPDEST DUP4 CALLDATALOAD SWAP3 POP PUSH1 0x20 DUP5 ADD CALLDATALOAD PUSH2 0x1053 DUP2 PUSH2 0x1022 JUMP JUMPDEST SWAP3 SWAP6 SWAP3 SWAP5 POP POP POP PUSH1 0x40 SWAP2 SWAP1 SWAP2 ADD CALLDATALOAD SWAP1 JUMP JUMPDEST PUSH0 PUSH1 0x20 DUP3 DUP5 SUB SLT ISZERO PUSH2 0x1074 JUMPI PUSH0 DUP1 REVERT JUMPDEST POP CALLDATALOAD SWAP2 SWAP1 POP JUMP JUMPDEST PUSH0 DUP2 MLOAD DUP1 DUP5 MSTORE DUP1 PUSH1 0x20 DUP5 ADD PUSH1 0x20 DUP7 ADD MCOPY PUSH0 PUSH1 0x20 DUP3 DUP7 ADD ADD MSTORE PUSH1 0x20 PUSH1 0x1F NOT PUSH1 0x1F DUP4 ADD AND DUP6 ADD ADD SWAP2 POP POP SWAP3 SWAP2 POP POP JUMP JUMPDEST PUSH4 0x4E487B71 PUSH1 0xE0 SHL PUSH0 MSTORE PUSH1 0x21 PUSH1 0x4 MSTORE PUSH1 0x24 PUSH0 REVERT JUMPDEST PUSH1 0x3 DUP2 LT PUSH2 0x10D9 JUMPI PUSH4 0x4E487B71 PUSH1 0xE0 SHL PUSH0 MSTORE PUSH1 0x21 PUSH1 0x4 MSTORE PUSH1 0x24 PUSH0 REVERT JUMPDEST SWAP1 MSTORE JUMP JUMPDEST PUSH0 PUSH2 0x100 DUP1 DUP4 MSTORE PUSH2 0x10F0 DUP2 DUP5 ADD DUP13 PUSH2 0x107B JUMP JUMPDEST SWAP1 POP DUP3 DUP2 SUB PUSH1 0x20 DUP5 ADD MSTORE PUSH2 0x1104 DUP2 DUP12 PUSH2 0x107B JUMP JUMPDEST SWAP1 POP DUP3 DUP2 SUB PUSH1 0x40 DUP5 ADD MSTORE PUSH2 0x1118 DUP2 DUP11 PUSH2 0x107B JUMP JUMPDEST SWAP2 POP POP DUP7 PUSH1 0x60 DUP4 ADD MSTORE PUSH2 0x112E PUSH1 0x80 DUP4 ADD DUP8 PUSH2 0x10BD JUMP JUMPDEST DUP5 PUSH1 0xA0 DUP4 ADD MSTORE DUP4 PUSH1 0xC0 DUP4 ADD MSTORE DUP3 ISZERO ISZERO PUSH1 0xE0 DUP4 ADD MSTORE SWAP10 SWAP9 POP POP POP POP POP POP POP POP POP JUMP JUMPDEST PUSH4 0x4E487B71 PUSH1 0xE0 SHL PUSH0 MSTORE PUSH1 0x41 PUSH1 0x4 MSTORE PUSH1 0x24 PUSH0 REVERT JUMPDEST PUSH0 DUP3 PUSH1 0x1F DUP4 ADD SLT PUSH2 0x1172 JUMPI PUSH0 DUP1 REVERT JUMPDEST DUP2 CALLDATALOAD PUSH8 0xFFFFFFFFFFFFFFFF DUP1 DUP3 GT ISZERO PUSH2 0x118D JUMPI PUSH2 0x118D PUSH2 0x114F JUMP JUMPDEST PUSH1 0x40 MLOAD PUSH1 0x1F DUP4 ADD PUSH1 0x1F NOT SWAP1 DUP2 AND PUSH1 0x3F ADD AND DUP2 ADD SWAP1 DUP3 DUP3 GT DUP2 DUP4 LT OR ISZERO PUSH2 0x11B5 JUMPI PUSH2 0x11B5 PUSH2 0x114F JUMP JUMPDEST DUP2 PUSH1 0x40 MSTORE DUP4 DUP2 MSTORE DUP7 PUSH1 0x20 DUP6 DUP9 ADD ADD GT ISZERO PUSH2 0x11CD JUMPI PUSH0 DUP1 REVERT JUMPDEST DUP4 PUSH1 0x20 DUP8 ADD PUSH1 0x20 DUP4 ADD CALLDATACOPY PUSH0 PUSH1 0x20 DUP6 DUP4 ADD ADD MSTORE DUP1 SWAP5 POP POP POP POP POP SWAP3 SWAP2 POP POP JUMP JUMPDEST PUSH0 DUP1 PUSH0 DUP1 PUSH1 0x80 DUP6 DUP8 SUB SLT ISZERO PUSH2 0x11FF JUMPI PUSH0 DUP1 REVERT JUMPDEST DUP5 CALLDATALOAD PUSH8 0xFFFFFFFFFFFFFFFF DUP1 DUP3 GT ISZERO PUSH2 0x1216 JUMPI PUSH0 DUP1 REVERT JUMPDEST PUSH2 0x1222 DUP9 DUP4 DUP10 ADD PUSH2 0x1163 JUMP JUMPDEST SWAP6 POP PUSH1 0x20 DUP8 ADD CALLDATALOAD SWAP2 POP DUP1 DUP3 GT ISZERO PUSH2 0x1237 JUMPI PUSH0 DUP1 REVERT JUMPDEST PUSH2 0x1243 DUP9 DUP4 DUP10 ADD PUSH2 0x1163 JUMP JUMPDEST SWAP5 POP PUSH1 0x40 DUP8 ADD CALLDATALOAD SWAP2 POP DUP1 DUP3 GT ISZERO PUSH2 0x1258 JUMPI PUSH0 DUP1 REVERT JUMPDEST POP PUSH2 0x1265 DUP8 DUP3 DUP9 ADD PUSH2 0x1163 JUMP JUMPDEST SWAP5 SWAP8 SWAP4 SWAP7 POP SWAP4 SWAP5 PUSH1 0x60 ADD CALLDATALOAD SWAP4 POP POP POP JUMP JUMPDEST PUSH0 DUP1 PUSH1 0x40 DUP4 DUP6 SUB SLT ISZERO PUSH2 0x1287 JUMPI PUSH0 DUP1 REVERT JUMPDEST DUP3 CALLDATALOAD SWAP2 POP PUSH2 0x1297 PUSH1 0x20 DUP5 ADD PUSH2 0xFE7 JUMP JUMPDEST SWAP1 POP SWAP3 POP SWAP3 SWAP1 POP JUMP JUMPDEST PUSH0 PUSH2 0x100 DUP1 DUP4 MSTORE PUSH2 0x12B3 DUP2 DUP5 ADD DUP13 PUSH2 0x107B JUMP JUMPDEST SWAP1 POP DUP10 PUSH1 0x20 DUP5 ADD MSTORE PUSH2 0x12C8 PUSH1 0x40 DUP5 ADD DUP11 PUSH2 0x10BD JUMP JUMPDEST DUP3 DUP2 SUB PUSH1 0x60 DUP5 ADD MSTORE PUSH2 0x12DA DUP2 DUP10 PUSH2 0x107B JUMP JUMPDEST SWAP1 POP DUP3 DUP2 SUB PUSH1 0x80 DUP5 ADD MSTORE PUSH2 0x12EE DUP2 DUP9 PUSH2 0x107B JUMP JUMPDEST PUSH1 0xA0 DUP5 ADD SWAP7 SWAP1 SWAP7 MSTORE POP POP PUSH1 0xC0 DUP2 ADD SWAP3 SWAP1 SWAP3 MSTORE ISZERO ISZERO PUSH1 0xE0 SWAP1 SWAP2 ADD MSTORE SWAP6 SWAP5 POP POP POP POP POP JUMP JUMPDEST PUSH0 DUP1 PUSH1 0x40 DUP4 DUP6 SUB SLT ISZERO PUSH2 0x1322 JUMPI PUSH0 DUP1 REVERT JUMPDEST DUP3 CALLDATALOAD SWAP2 POP PUSH1 0x20 DUP4 ADD CALLDATALOAD PUSH1 0x3 DUP2 LT PUSH2 0x1337 JUMPI PUSH0 DUP1 REVERT JUMPDEST DUP1 SWAP2 POP POP SWAP3 POP SWAP3 SWAP1 POP JUMP JUMPDEST PUSH0 PUSH1 0x20 DUP3 DUP5 SUB SLT ISZERO PUSH2 0x1352 JUMPI PUSH0 DUP1 REVERT JUMPDEST DUP2 MLOAD PUSH2 0x101B DUP2 PUSH2 0x1022 JUMP JUMPDEST PUSH4 0x4E487B71 PUSH1 0xE0 SHL PUSH0 MSTORE PUSH1 0x11 PUSH1 0x4 MSTORE PUSH1 0x24 PUSH0 REVERT JUMPDEST DUP1 DUP3 ADD DUP1 DUP3 GT ISZERO PUSH2 0x1384 JUMPI PUSH2 0x1384 PUSH2 0x135D JUMP JUMPDEST SWAP3 SWAP2 POP POP JUMP JUMPDEST PUSH1 0x1 DUP2 DUP2 SHR SWAP1 DUP3 AND DUP1 PUSH2 0x139E JUMPI PUSH1 0x7F DUP3 AND SWAP2 POP JUMPDEST PUSH1 0x20 DUP3 LT DUP2 SUB PUSH2 0x13BC JUMPI PUSH4 0x4E487B71 PUSH1 0xE0 SHL PUSH0 MSTORE PUSH1 0x22 PUSH1 0x4 MSTORE PUSH1 0x24 PUSH0 REVERT JUMPDEST POP SWAP2 SWAP1 POP JUMP JUMPDEST DUP1 DUP3 MUL DUP2 ISZERO DUP3 DUP3 DIV DUP5 EQ OR PUSH2 0x1384 JUMPI PUSH2 0x1384 PUSH2 0x135D JUMP JUMPDEST PUSH0 DUP3 PUSH2 0x13F3 JUMPI PUSH4 0x4E487B71 PUSH1 0xE0 SHL PUSH0 MSTORE PUSH1 0x12 PUSH1 0x4 MSTORE PUSH1 0x24 PUSH0 REVERT JUMPDEST POP DIV SWAP1 JUMP JUMPDEST PUSH0 PUSH1 0x1 DUP3 ADD PUSH2 0x1409 JUMPI PUSH2 0x1409 PUSH2 0x135D JUMP JUMPDEST POP PUSH1 0x1 ADD SWAP1 JUMP JUMPDEST PUSH1 0x1F DUP3 GT ISZERO PUSH2 0x1457 JUMPI DUP1 PUSH0 MSTORE PUSH1 0x20 PUSH0 KECCAK256 PUSH1 0x1F DUP5 ADD PUSH1 0x5 SHR DUP2 ADD PUSH1 0x20 DUP6 LT ISZERO PUSH2 0x1435 JUMPI POP DUP1 JUMPDEST PUSH1 0x1F DUP5 ADD PUSH1 0x5 SHR DUP3 ADD SWAP2 POP JUMPDEST DUP2 DUP2 LT ISZERO PUSH2 0x1454 JUMPI PUSH0 DUP2 SSTORE PUSH1 0x1 ADD PUSH2 0x1441 JUMP JUMPDEST POP POP JUMPDEST POP POP POP JUMP JUMPDEST DUP2 MLOAD PUSH8 0xFFFFFFFFFFFFFFFF DUP2 GT ISZERO PUSH2 0x1476 JUMPI PUSH2 0x1476 PUSH2 0x114F JUMP JUMPDEST PUSH2 0x148A DUP2 PUSH2 0x1484 DUP5 SLOAD PUSH2 0x138A JUMP JUMPDEST DUP5 PUSH2 0x1410 JUMP JUMPDEST PUSH1 0x20 DUP1 PUSH1 0x1F DUP4 GT PUSH1 0x1 DUP2 EQ PUSH2 0x14BD JUMPI PUSH0 DUP5 ISZERO PUSH2 0x14A6 JUMPI POP DUP6 DUP4 ADD MLOAD JUMPDEST PUSH0 NOT PUSH1 0x3 DUP7 SWAP1 SHL SHR NOT AND PUSH1 0x1 DUP6 SWAP1 SHL OR DUP6 SSTORE PUSH2 0x1514 JUMP JUMPDEST PUSH0 DUP6 DUP2 MSTORE PUSH1 0x20 DUP2 KECCAK256 PUSH1 0x1F NOT DUP7 AND SWAP2 JUMPDEST DUP3 DUP2 LT ISZERO PUSH2 0x14EB JUMPI DUP9 DUP7 ADD MLOAD DUP3 SSTORE SWAP5 DUP5 ADD SWAP5 PUSH1 0x1 SWAP1 SWAP2 ADD SWAP1 DUP5 ADD PUSH2 0x14CC JUMP JUMPDEST POP DUP6 DUP3 LT ISZERO PUSH2 0x1508 JUMPI DUP8 DUP6 ADD MLOAD PUSH0 NOT PUSH1 0x3 DUP9 SWAP1 SHL PUSH1 0xF8 AND SHR NOT AND DUP2 SSTORE JUMPDEST POP POP PUSH1 0x1 DUP5 PUSH1 0x1 SHL ADD DUP6 SSTORE JUMPDEST POP POP POP POP POP POP JUMP JUMPDEST PUSH1 0x80 DUP2 MSTORE PUSH0 PUSH2 0x152E PUSH1 0x80 DUP4 ADD DUP8 PUSH2 0x107B JUMP JUMPDEST DUP3 DUP2 SUB PUSH1 0x20 DUP5 ADD MSTORE PUSH2 0x1540 DUP2 DUP8 PUSH2 0x107B JUMP JUMPDEST SWAP1 POP DUP3 DUP2 SUB PUSH1 0x40 DUP5 ADD MSTORE PUSH2 0x1554 DUP2 DUP7 PUSH2 0x107B JUMP JUMPDEST SWAP2 POP POP DUP3 PUSH1 0x60 DUP4 ADD MSTORE SWAP6 SWAP5 POP POP POP POP POP JUMP JUMPDEST PUSH1 0x20 DUP2 ADD PUSH2 0x1384 DUP3 DUP5 PUSH2 0x10BD JUMP INVALID LOG2 PUSH5 0x6970667358 0x22 SLT KECCAK256 CODECOPY CALL CALLER PUSH6 0xFC3A40694D27 0xD3 0xA8 0xAE TIMESTAMP DIV 0xC8 0xF9 PUSH25 0x8D87913E93E3776257F59B28A05B64736F6C63430008190033 "
    },
    "gasEstimates": {
      "creation": {
        "codeDepositCost": "1109200",
        "executionCost": "infinite",
        "totalCost": "infinite"
      },
      "external": {
        "bettingToken()": "2381",
        "buyShares(uint256,bool,uint256)": "infinite",
        "claimWinnings(uint256)": "infinite",
        "createMarket(string,string,string,uint256)": "infinite",
        "getMarketInfo(uint256)": "infinite",
        "getSharesBalance(uint256,address)": "4888",
        "marketCount()": "2360",
        "markets(uint256)": "infinite",
        "owner()": "2396",
        "resolveMarket(uint256,uint8)": "56902",
        "setOwner(address)": "28279"
      },
      "internal": {
        "_canSetOwner()": "infinite"
      }
    },
    "methodIdentifiers": {
      "bettingToken()": "43425e88",
      "buyShares(uint256,bool,uint256)": "39b46372",
      "claimWinnings(uint256)": "677bd9ff",
      "createMarket(string,string,string,uint256)": "76e00406",
      "getMarketInfo(uint256)": "3ec79193",
      "getSharesBalance(uint256,address)": "7f1a10da",
      "marketCount()": "ec979082",
      "markets(uint256)": "b1283e77",
      "owner()": "8da5cb5b",
      "resolveMarket(uint256,uint8)": "df55406e",
      "setOwner(address)": "13af4035"
    }
  },
  "storageLayout": {
    "storage": [
      {
        "astId": 697,
        "contract": "SimplePredictionMarket.sol:SimplePredictionMarket",
        "label": "_owner",
        "offset": 0,
        "slot": "0",
        "type": "t_address"
      },
      {
        "astId": 778,
        "contract": "SimplePredictionMarket.sol:SimplePredictionMarket",
        "label": "_status",
        "offset": 0,
        "slot": "1",
        "type": "t_uint256"
      },
      {
        "astId": 45,
        "contract": "SimplePredictionMarket.sol:SimplePredictionMarket",
        "label": "bettingToken",
        "offset": 0,
        "slot": "2",
        "type": "t_contract(IERC20)685"
      },
      {
        "astId": 47,
        "contract": "SimplePredictionMarket.sol:SimplePredictionMarket",
        "label": "marketCount",
        "offset": 0,
        "slot": "3",
        "type": "t_uint256"
      },
      {
        "astId": 52,
        "contract": "SimplePredictionMarket.sol:SimplePredictionMarket",
        "label": "markets",
        "offset": 0,
        "slot": "4",
        "type": "t_mapping(t_uint256,t_struct(Market)42_storage)"
      }
    ],
    "types": {
      "t_address": {
        "encoding": "inplace",
        "label": "address",
        "numberOfBytes": "20"
      },
      "t_bool": {
        "encoding": "inplace",
        "label": "bool",
        "numberOfBytes": "1"
      },
      "t_contract(IERC20)685": {
        "encoding": "inplace",
        "label": "contract IERC20",
        "numberOfBytes": "20"
      },
      "t_enum(MarketOutcome)12": {
        "encoding": "inplace",
        "label": "enum SimplePredictionMarket.MarketOutcome",
        "numberOfBytes": "1"
      },
      "t_mapping(t_address,t_bool)": {
        "encoding": "mapping",
        "key": "t_address",
        "label": "mapping(address => bool)",
        "numberOfBytes": "32",
        "value": "t_bool"
      },
      "t_mapping(t_address,t_uint256)": {
        "encoding": "mapping",
        "key": "t_address",
        "label": "mapping(address => uint256)",
        "numberOfBytes": "32",
        "value": "t_uint256"
      },
      "t_mapping(t_uint256,t_struct(Market)42_storage)": {
        "encoding": "mapping",
        "key": "t_uint256",
        "label": "mapping(uint256 => struct SimplePredictionMarket.Market)",
        "numberOfBytes": "32",
        "value": "t_struct(Market)42_storage"
      },
      "t_string_storage": {
        "encoding": "bytes",
        "label": "string",
        "numberOfBytes": "32"
      },
      "t_struct(Market)42_storage": {
        "encoding": "inplace",
        "label": "struct SimplePredictionMarket.Market",
        "members": [
          {
            "astId": 14,
            "contract": "SimplePredictionMarket.sol:SimplePredictionMarket",
            "label": "question",
            "offset": 0,
            "slot": "0",
            "type": "t_string_storage"
          },
          {
            "astId": 16,
            "contract": "SimplePredictionMarket.sol:SimplePredictionMarket",
            "label": "endTime",
            "offset": 0,
            "slot": "1",
            "type": "t_uint256"
          },
          {
            "astId": 19,
            "contract": "SimplePredictionMarket.sol:SimplePredictionMarket",
            "label": "outcome",
            "offset": 0,
            "slot": "2",
            "type": "t_enum(MarketOutcome)12"
          },
          {
            "astId": 21,
            "contract": "SimplePredictionMarket.sol:SimplePredictionMarket",
            "label": "optionA",
            "offset": 0,
            "slot": "3",
            "type": "t_string_storage"
          },
          {
            "astId": 23,
            "contract": "SimplePredictionMarket.sol:SimplePredictionMarket",
            "label": "optionB",
            "offset": 0,
            "slot": "4",
            "type": "t_string_storage"
          },
          {
            "astId": 25,
            "contract": "SimplePredictionMarket.sol:SimplePredictionMarket",
            "label": "totalOptionAShares",
            "offset": 0,
            "slot": "5",
            "type": "t_uint256"
          },
          {
            "astId": 27,
            "contract": "SimplePredictionMarket.sol:SimplePredictionMarket",
            "label": "totalOptionBShares",
            "offset": 0,
            "slot": "6",
            "type": "t_uint256"
          },
          {
            "astId": 29,
            "contract": "SimplePredictionMarket.sol:SimplePredictionMarket",
            "label": "resolved",
            "offset": 0,
            "slot": "7",
            "type": "t_bool"
          },
          {
            "astId": 33,
            "contract": "SimplePredictionMarket.sol:SimplePredictionMarket",
            "label": "optionASharesBalance",
            "offset": 0,
            "slot": "8",
            "type": "t_mapping(t_address,t_uint256)"
          },
          {
            "astId": 37,
            "contract": "SimplePredictionMarket.sol:SimplePredictionMarket",
            "label": "optionBSharesBalance",
            "offset": 0,
            "slot": "9",
            "type": "t_mapping(t_address,t_uint256)"
          },
          {
            "astId": 41,
            "contract": "SimplePredictionMarket.sol:SimplePredictionMarket",
            "label": "hasClaimed",
            "offset": 0,
            "slot": "10",
            "type": "t_mapping(t_address,t_bool)"
          }
        ],
        "numberOfBytes": "352"
      },
      "t_uint256": {
        "encoding": "inplace",
        "label": "uint256",
        "numberOfBytes": "32"
      }
    }
  },
  "userdoc": {
    "kind": "user",
    "methods": {
      "owner()": {
        "notice": "Returns the owner of the contract."
      },
      "setOwner(address)": {
        "notice": "Lets an authorized wallet set a new owner for the contract."
      }
    },
    "version": 1
  }
}